{
  "contractName": "ANMLS",
  "abi": [
    {
      "inputs": [
        {
          "internalType": "uint256",
          "name": "GenesParent1",
          "type": "uint256"
        },
        {
          "internalType": "uint256",
          "name": "GenesParent2",
          "type": "uint256"
        },
        {
          "internalType": "string",
          "name": "base",
          "type": "string"
        }
      ],
      "stateMutability": "nonpayable",
      "type": "constructor"
    },
    {
      "anonymous": false,
      "inputs": [
        {
          "indexed": true,
          "internalType": "address",
          "name": "_owner",
          "type": "address"
        },
        {
          "indexed": true,
          "internalType": "address",
          "name": "_approved",
          "type": "address"
        },
        {
          "indexed": true,
          "internalType": "uint256",
          "name": "_tokenId",
          "type": "uint256"
        }
      ],
      "name": "Approval",
      "type": "event"
    },
    {
      "anonymous": false,
      "inputs": [
        {
          "indexed": true,
          "internalType": "address",
          "name": "_owner",
          "type": "address"
        },
        {
          "indexed": true,
          "internalType": "address",
          "name": "_operator",
          "type": "address"
        },
        {
          "indexed": false,
          "internalType": "bool",
          "name": "_approved",
          "type": "bool"
        }
      ],
      "name": "ApprovalForAll",
      "type": "event"
    },
    {
      "anonymous": false,
      "inputs": [
        {
          "indexed": true,
          "internalType": "address",
          "name": "_from",
          "type": "address"
        },
        {
          "indexed": true,
          "internalType": "address",
          "name": "_to",
          "type": "address"
        },
        {
          "indexed": true,
          "internalType": "uint256",
          "name": "_tokenId",
          "type": "uint256"
        }
      ],
      "name": "Transfer",
      "type": "event"
    },
    {
      "inputs": [
        {
          "internalType": "uint256",
          "name": "Parent1",
          "type": "uint256"
        },
        {
          "internalType": "uint256",
          "name": "Parent2",
          "type": "uint256"
        },
        {
          "internalType": "string",
          "name": "childName",
          "type": "string"
        },
        {
          "internalType": "string",
          "name": "base",
          "type": "string"
        }
      ],
      "name": "breed",
      "outputs": [
        {
          "internalType": "uint256",
          "name": "",
          "type": "uint256"
        }
      ],
      "stateMutability": "nonpayable",
      "type": "function"
    },
    {
      "inputs": [
        {
          "internalType": "uint256",
          "name": "_tokenId",
          "type": "uint256"
        }
      ],
      "name": "nameOf",
      "outputs": [
        {
          "internalType": "string",
          "name": "",
          "type": "string"
        }
      ],
      "stateMutability": "view",
      "type": "function",
      "constant": true
    },
    {
      "inputs": [
        {
          "internalType": "uint256",
          "name": "_tokenId",
          "type": "uint256"
        }
      ],
      "name": "parent1Of",
      "outputs": [
        {
          "internalType": "uint256",
          "name": "",
          "type": "uint256"
        }
      ],
      "stateMutability": "view",
      "type": "function",
      "constant": true
    },
    {
      "inputs": [
        {
          "internalType": "uint256",
          "name": "_tokenId",
          "type": "uint256"
        }
      ],
      "name": "parent2Of",
      "outputs": [
        {
          "internalType": "uint256",
          "name": "",
          "type": "uint256"
        }
      ],
      "stateMutability": "view",
      "type": "function",
      "constant": true
    },
    {
      "inputs": [
        {
          "internalType": "uint256",
          "name": "_tokenId",
          "type": "uint256"
        }
      ],
      "name": "genesOf",
      "outputs": [
        {
          "internalType": "uint256",
          "name": "",
          "type": "uint256"
        }
      ],
      "stateMutability": "view",
      "type": "function",
      "constant": true
    },
    {
      "inputs": [],
      "name": "last",
      "outputs": [
        {
          "internalType": "uint256",
          "name": "",
          "type": "uint256"
        }
      ],
      "stateMutability": "view",
      "type": "function",
      "constant": true
    },
    {
      "inputs": [
        {
          "internalType": "address",
          "name": "_checkowner",
          "type": "address"
        }
      ],
      "name": "balanceOf",
      "outputs": [
        {
          "internalType": "uint256",
          "name": "",
          "type": "uint256"
        }
      ],
      "stateMutability": "view",
      "type": "function",
      "constant": true
    },
    {
      "inputs": [
        {
          "internalType": "uint256",
          "name": "_tokenId",
          "type": "uint256"
        }
      ],
      "name": "ownerOf",
      "outputs": [
        {
          "internalType": "address",
          "name": "",
          "type": "address"
        }
      ],
      "stateMutability": "view",
      "type": "function",
      "constant": true
    },
    {
      "inputs": [
        {
          "internalType": "address",
          "name": "_from",
          "type": "address"
        },
        {
          "internalType": "address",
          "name": "_to",
          "type": "address"
        },
        {
          "internalType": "uint256",
          "name": "_tokenId",
          "type": "uint256"
        }
      ],
      "name": "safeTransferFrom",
      "outputs": [],
      "stateMutability": "nonpayable",
      "type": "function"
    },
    {
      "inputs": [
        {
          "internalType": "address",
          "name": "_from",
          "type": "address"
        },
        {
          "internalType": "address",
          "name": "_to",
          "type": "address"
        },
        {
          "internalType": "uint256",
          "name": "_tokenId",
          "type": "uint256"
        },
        {
          "internalType": "bytes",
          "name": "data",
          "type": "bytes"
        }
      ],
      "name": "safeTransferFrom",
      "outputs": [],
      "stateMutability": "nonpayable",
      "type": "function"
    },
    {
      "inputs": [
        {
          "internalType": "address",
          "name": "_from",
          "type": "address"
        },
        {
          "internalType": "address",
          "name": "_to",
          "type": "address"
        },
        {
          "internalType": "uint256",
          "name": "_tokenId",
          "type": "uint256"
        }
      ],
      "name": "transferFrom",
      "outputs": [],
      "stateMutability": "nonpayable",
      "type": "function"
    },
    {
      "inputs": [
        {
          "internalType": "address",
          "name": "_approved",
          "type": "address"
        },
        {
          "internalType": "uint256",
          "name": "_tokenId",
          "type": "uint256"
        }
      ],
      "name": "approve",
      "outputs": [],
      "stateMutability": "nonpayable",
      "type": "function"
    },
    {
      "inputs": [
        {
          "internalType": "address",
          "name": "_newoperator",
          "type": "address"
        },
        {
          "internalType": "bool",
          "name": "_approved",
          "type": "bool"
        }
      ],
      "name": "setApprovalForAll",
      "outputs": [],
      "stateMutability": "nonpayable",
      "type": "function"
    },
    {
      "inputs": [
        {
          "internalType": "uint256",
          "name": "_tokenId",
          "type": "uint256"
        }
      ],
      "name": "getApproved",
      "outputs": [
        {
          "internalType": "address",
          "name": "",
          "type": "address"
        }
      ],
      "stateMutability": "view",
      "type": "function",
      "constant": true
    },
    {
      "inputs": [
        {
          "internalType": "address",
          "name": "_checkowner",
          "type": "address"
        },
        {
          "internalType": "address",
          "name": "_checkoperator",
          "type": "address"
        }
      ],
      "name": "isApprovedForAll",
      "outputs": [
        {
          "internalType": "bool",
          "name": "",
          "type": "bool"
        }
      ],
      "stateMutability": "view",
      "type": "function",
      "constant": true
    },
    {
      "inputs": [],
      "name": "name",
      "outputs": [
        {
          "internalType": "string",
          "name": "_retname",
          "type": "string"
        }
      ],
      "stateMutability": "pure",
      "type": "function",
      "constant": true
    },
    {
      "inputs": [],
      "name": "symbol",
      "outputs": [
        {
          "internalType": "string",
          "name": "_retsymbol",
          "type": "string"
        }
      ],
      "stateMutability": "pure",
      "type": "function",
      "constant": true
    },
    {
      "inputs": [
        {
          "internalType": "uint256",
          "name": "_tokenId",
          "type": "uint256"
        }
      ],
      "name": "tokenURI",
      "outputs": [
        {
          "internalType": "string",
          "name": "",
          "type": "string"
        }
      ],
      "stateMutability": "view",
      "type": "function",
      "constant": true
    },
    {
      "inputs": [
        {
          "internalType": "uint256",
          "name": "_tokenId",
          "type": "uint256"
        },
        {
          "internalType": "string",
          "name": "newuri",
          "type": "string"
        }
      ],
      "name": "setTokenUri",
      "outputs": [],
      "stateMutability": "nonpayable",
      "type": "function"
    },
    {
      "inputs": [
        {
          "internalType": "bytes4",
          "name": "interfaceID",
          "type": "bytes4"
        }
      ],
      "name": "supportsInterface",
      "outputs": [
        {
          "internalType": "bool",
          "name": "",
          "type": "bool"
        }
      ],
      "stateMutability": "view",
      "type": "function",
      "constant": true
    },
    {
      "inputs": [],
      "name": "totalSupply",
      "outputs": [
        {
          "internalType": "uint256",
          "name": "",
          "type": "uint256"
        }
      ],
      "stateMutability": "view",
      "type": "function",
      "constant": true
    },
    {
      "inputs": [
        {
          "internalType": "uint256",
          "name": "_index",
          "type": "uint256"
        }
      ],
      "name": "tokenByIndex",
      "outputs": [
        {
          "internalType": "uint256",
          "name": "",
          "type": "uint256"
        }
      ],
      "stateMutability": "view",
      "type": "function",
      "constant": true
    },
    {
      "inputs": [
        {
          "internalType": "address",
          "name": "_checkowner",
          "type": "address"
        },
        {
          "internalType": "uint256",
          "name": "_index",
          "type": "uint256"
        }
      ],
      "name": "tokenOfOwnerByIndex",
      "outputs": [
        {
          "internalType": "uint256",
          "name": "",
          "type": "uint256"
        }
      ],
      "stateMutability": "view",
      "type": "function",
      "constant": true
    }
  ],
  "bytecode": "0x6080604052600080553480156200001557600080fd5b5060405162003e6d38038062003e6d833981810160405260608110156200003b57600080fd5b810190808051906020019092919080519060200190929190805160405193929190846401000000008211156200007057600080fd5b838201915060208201858111156200008757600080fd5b8251866001820283011164010000000082111715620000a557600080fd5b8083526020830192505050908051906020019080838360005b83811015620000db578082015181840152602081019050620000be565b50505050905090810190601f168015620001095780820380516001836020036101000a031916815260200191505b506040525050506200015c836000806040518060400160405280600381526020017f45766500000000000000000000000000000000000000000000000000000000008152503386620002f960201b60201c565b620001a8826000806040518060400160405280600481526020017f4164616d000000000000000000000000000000000000000000000000000000008152503386620002f960201b60201c565b6001600b60006380ac58cd60e01b7bffffffffffffffffffffffffffffffffffffffffffffffffffffffff1916815260200190815260200160002060006101000a81548160ff0219169083151502179055506001600b60006301ffc9a760e01b7bffffffffffffffffffffffffffffffffffffffffffffffffffffffff1916815260200190815260200160002060006101000a81548160ff0219169083151502179055506001600b6000635b5e139f60e01b7bffffffffffffffffffffffffffffffffffffffffffffffffffffffff1916815260200190815260200160002060006101000a81548160ff0219169083151502179055506001600b600063780e9d6360e01b7bffffffffffffffffffffffffffffffffffffffffffffffffffffffff1916815260200190815260200160002060006101000a81548160ff021916908315150217905550505050620005af565b600080815480929190600101919050555084600360008054815260200190815260200160002081905550836004600080548152602001908152602001600020819055508560026000805481526020019081526020016000208190555082600560008054815260200190815260200160002090805190602001906200037f92919062000509565b5081600660008054815260200190815260200160002060006101000a81548173ffffffffffffffffffffffffffffffffffffffff021916908373ffffffffffffffffffffffffffffffffffffffff1602179055508060086000805481526020019081526020016000209080519060200190620003fd92919062000509565b50600960008373ffffffffffffffffffffffffffffffffffffffff1673ffffffffffffffffffffffffffffffffffffffff16815260200190815260200160002060005490806001815401808255809150506001900390600052602060002001600090919091909150556001600960008473ffffffffffffffffffffffffffffffffffffffff1673ffffffffffffffffffffffffffffffffffffffff1681526020019081526020016000208054905003600a60008473ffffffffffffffffffffffffffffffffffffffff1673ffffffffffffffffffffffffffffffffffffffff16815260200190815260200160002060008054815260200190815260200160002081905550505050505050565b828054600181600116156101000203166002900490600052602060002090601f016020900481019282601f106200054c57805160ff19168380011785556200057d565b828001600101855582156200057d579182015b828111156200057c5782518255916020019190600101906200055f565b5b5090506200058c919062000590565b5090565b5b80821115620005ab57600081600090555060010162000591565b5090565b6138ae80620005bf6000396000f3fe608060405234801561001057600080fd5b506004361061014d5760003560e01c806347799da8116100c3578063a22cb4651161007c578063a22cb465146108f5578063af8f66b214610945578063b78c53c214610987578063b88d4fde146109c9578063c87b56dd14610a8c578063e985e9c514610b335761014d565b806347799da81461069d5780634f6ccce7146106bb57806357f7789e146106fd5780636352211e146107c257806370a082311461081a57806395d89b41146108725761014d565b8063095ea7b311610115578063095ea7b3146104b157806318160ddd146104ff57806323b872dd1461051d5780632f745c591461058b57806342842e0e146105ed57806347477ad21461065b5761014d565b806301ffc9a714610152578063051a2664146101b5578063053dcc4f1461025c57806306fdde03146103d6578063081812fc14610459575b600080fd5b61019d6004803603602081101561016857600080fd5b8101908080357bffffffffffffffffffffffffffffffffffffffffffffffffffffffff19169060200190929190505050610bad565b60405180821515815260200191505060405180910390f35b6101e1600480360360208110156101cb57600080fd5b8101908080359060200190929190505050610c15565b6040518080602001828103825283818151815260200191508051906020019080838360005b83811015610221578082015181840152602081019050610206565b50505050905090810190601f16801561024e5780820380516001836020036101000a031916815260200191505b509250505060405180910390f35b6103c06004803603608081101561027257600080fd5b810190808035906020019092919080359060200190929190803590602001906401000000008111156102a357600080fd5b8201836020820111156102b557600080fd5b803590602001918460018302840111640100000000831117156102d757600080fd5b91908080601f016020809104026020016040519081016040528093929190818152602001838380828437600081840152601f19601f8201169050808301925050505050505091929192908035906020019064010000000081111561033a57600080fd5b82018360208201111561034c57600080fd5b8035906020019184600183028401116401000000008311171561036e57600080fd5b91908080601f016020809104026020016040519081016040528093929190818152602001838380828437600081840152601f19601f820116905080830192505050505050509192919290505050610d45565b6040518082815260200191505060405180910390f35b6103de61120e565b6040518080602001828103825283818151815260200191508051906020019080838360005b8381101561041e578082015181840152602081019050610403565b50505050905090810190601f16801561044b5780820380516001836020036101000a031916815260200191505b509250505060405180910390f35b6104856004803603602081101561046f57600080fd5b810190808035906020019092919050505061124b565b604051808273ffffffffffffffffffffffffffffffffffffffff16815260200191505060405180910390f35b6104fd600480360360408110156104c757600080fd5b81019080803573ffffffffffffffffffffffffffffffffffffffff16906020019092919080359060200190929190505050611303565b005b610507611562565b6040518082815260200191505060405180910390f35b6105896004803603606081101561053357600080fd5b81019080803573ffffffffffffffffffffffffffffffffffffffff169060200190929190803573ffffffffffffffffffffffffffffffffffffffff1690602001909291908035906020019092919050505061156b565b005b6105d7600480360360408110156105a157600080fd5b81019080803573ffffffffffffffffffffffffffffffffffffffff16906020019092919080359060200190929190505050611947565b6040518082815260200191505060405180910390f35b6106596004803603606081101561060357600080fd5b81019080803573ffffffffffffffffffffffffffffffffffffffff169060200190929190803573ffffffffffffffffffffffffffffffffffffffff16906020019092919080359060200190929190505050611ae3565b005b6106876004803603602081101561067157600080fd5b810190808035906020019092919050505061211d565b6040518082815260200191505060405180910390f35b6106a56121b5565b6040518082815260200191505060405180910390f35b6106e7600480360360208110156106d157600080fd5b81019080803590602001909291905050506121be565b6040518082815260200191505060405180910390f35b6107c06004803603604081101561071357600080fd5b81019080803590602001909291908035906020019064010000000081111561073a57600080fd5b82018360208201111561074c57600080fd5b8035906020019184600183028401116401000000008311171561076e57600080fd5b91908080601f016020809104026020016040519081016040528093929190818152602001838380828437600081840152601f19601f820116905080830192505050505050509192919290505050612241565b005b6107ee600480360360208110156107d857600080fd5b8101908080359060200190929190505050612463565b604051808273ffffffffffffffffffffffffffffffffffffffff16815260200191505060405180910390f35b61085c6004803603602081101561083057600080fd5b81019080803573ffffffffffffffffffffffffffffffffffffffff1690602001909291905050506124a0565b6040518082815260200191505060405180910390f35b61087a6124ec565b6040518080602001828103825283818151815260200191508051906020019080838360005b838110156108ba57808201518184015260208101905061089f565b50505050905090810190601f1680156108e75780820380516001836020036101000a031916815260200191505b509250505060405180910390f35b6109436004803603604081101561090b57600080fd5b81019080803573ffffffffffffffffffffffffffffffffffffffff169060200190929190803515159060200190929190505050612529565b005b6109716004803603602081101561095b57600080fd5b8101908080359060200190929190505050612628565b6040518082815260200191505060405180910390f35b6109b36004803603602081101561099d57600080fd5b81019080803590602001909291905050506126c0565b6040518082815260200191505060405180910390f35b610a8a600480360360808110156109df57600080fd5b81019080803573ffffffffffffffffffffffffffffffffffffffff169060200190929190803573ffffffffffffffffffffffffffffffffffffffff1690602001909291908035906020019092919080359060200190640100000000811115610a4657600080fd5b820183602082011115610a5857600080fd5b80359060200191846001830284011164010000000083111715610a7a57600080fd5b9091929391929390505050612758565b005b610ab860048036036020811015610aa257600080fd5b8101908080359060200190929190505050612db2565b6040518080602001828103825283818151815260200191508051906020019080838360005b83811015610af8578082015181840152602081019050610add565b50505050905090810190601f168015610b255780820380516001836020036101000a031916815260200191505b509250505060405180910390f35b610b9560048036036040811015610b4957600080fd5b81019080803573ffffffffffffffffffffffffffffffffffffffff169060200190929190803573ffffffffffffffffffffffffffffffffffffffff169060200190929190505050612ee2565b60405180821515815260200191505060405180910390f35b6000600b6000837bffffffffffffffffffffffffffffffffffffffffffffffffffffffff19167bffffffffffffffffffffffffffffffffffffffffffffffffffffffff1916815260200190815260200160002060009054906101000a900460ff169050919050565b6060610c2082612f76565b610c92576040517f08c379a00000000000000000000000000000000000000000000000000000000081526004018080602001828103825260128152602001807f4e6f7420612076616c696420546f6b656e21000000000000000000000000000081525060200191505060405180910390fd5b600560008381526020019081526020016000208054600181600116156101000203166002900480601f016020809104026020016040519081016040528092919081815260200182805460018160011615610100020316600290048015610d395780601f10610d0e57610100808354040283529160200191610d39565b820191906000526020600020905b815481529060010190602001808311610d1c57829003601f168201915b50505050509050919050565b600083851415610dbd576040517f08c379a000000000000000000000000000000000000000000000000000000000815260040180806020018281038252601c8152602001807f4e6565642074776f20696e646976696475616c20506172656e7473210000000081525060200191505060405180910390fd5b3373ffffffffffffffffffffffffffffffffffffffff166006600087815260200190815260200160002060009054906101000a900473ffffffffffffffffffffffffffffffffffffffff1673ffffffffffffffffffffffffffffffffffffffff161480610eea575060011515600160006006600089815260200190815260200160002060009054906101000a900473ffffffffffffffffffffffffffffffffffffffff1673ffffffffffffffffffffffffffffffffffffffff1673ffffffffffffffffffffffffffffffffffffffff16815260200190815260200160002060003373ffffffffffffffffffffffffffffffffffffffff1673ffffffffffffffffffffffffffffffffffffffff16815260200190815260200160002060009054906101000a900460ff161515145b610f3f576040517f08c379a000000000000000000000000000000000000000000000000000000000815260040180806020018281038252603d81526020018061383c603d913960400191505060405180910390fd5b3373ffffffffffffffffffffffffffffffffffffffff166006600086815260200190815260200160002060009054906101000a900473ffffffffffffffffffffffffffffffffffffffff1673ffffffffffffffffffffffffffffffffffffffff16148061106c575060011515600160006006600088815260200190815260200160002060009054906101000a900473ffffffffffffffffffffffffffffffffffffffff1673ffffffffffffffffffffffffffffffffffffffff1673ffffffffffffffffffffffffffffffffffffffff16815260200190815260200160002060003373ffffffffffffffffffffffffffffffffffffffff1673ffffffffffffffffffffffffffffffffffffffff16815260200190815260200160002060009054906101000a900460ff161515145b6110c1576040517f08c379a000000000000000000000000000000000000000000000000000000000815260040180806020018281038252603e8152602001806137af603e913960400191505060405180910390fd5b600043604051602001808281526020019150506040516020818303038152906040528051906020012060001c90506000816002600088815260200190815260200160002054600260008a815260200190815260200160002054181660026000898152602001908152602001600020547fffffffffffffffffffffffffffffffffffffffffffffffffffffffffffffffff600260008a815260200190815260200160002054600260008c8152602001908152602001600020541818161790506111ff818888883389876040516020018083805190602001908083835b602083106111bf578051825260208201915060208101905060208303925061119c565b6001836020036101000a03801982511681845116808217855250505050505090500182815260200192505050604051602081830303815290604052612fa1565b60005492505050949350505050565b60606040518060400160405280600781526020017f416e696d616c7300000000000000000000000000000000000000000000000000815250905090565b600061125682612f76565b6112c8576040517f08c379a00000000000000000000000000000000000000000000000000000000081526004018080602001828103825260108152602001807f4e6f7420612076616c6964204e4654210000000000000000000000000000000081525060200191505060405180910390fd5b6007600083815260200190815260200160002060009054906101000a900473ffffffffffffffffffffffffffffffffffffffff169050919050565b3373ffffffffffffffffffffffffffffffffffffffff166006600083815260200190815260200160002060009054906101000a900473ffffffffffffffffffffffffffffffffffffffff1673ffffffffffffffffffffffffffffffffffffffff1614806114295750600160006006600084815260200190815260200160002060009054906101000a900473ffffffffffffffffffffffffffffffffffffffff1673ffffffffffffffffffffffffffffffffffffffff1673ffffffffffffffffffffffffffffffffffffffff16815260200190815260200160002060003373ffffffffffffffffffffffffffffffffffffffff1673ffffffffffffffffffffffffffffffffffffffff16815260200190815260200160002060009054906101000a900460ff165b61147e576040517f08c379a000000000000000000000000000000000000000000000000000000000815260040180806020018281038252602a815260200180613812602a913960400191505060405180910390fd5b816007600083815260200190815260200160002060006101000a81548173ffffffffffffffffffffffffffffffffffffffff021916908373ffffffffffffffffffffffffffffffffffffffff160217905550808273ffffffffffffffffffffffffffffffffffffffff166006600084815260200190815260200160002060009054906101000a900473ffffffffffffffffffffffffffffffffffffffff1673ffffffffffffffffffffffffffffffffffffffff167f8c5be1e5ebec7d5bd14f71427d1e84f3dd0314c0f7b2291e5b200ac8c7c3b92560405160405180910390a45050565b60008054905090565b8273ffffffffffffffffffffffffffffffffffffffff166006600083815260200190815260200160002060009054906101000a900473ffffffffffffffffffffffffffffffffffffffff1673ffffffffffffffffffffffffffffffffffffffff161461163f576040517f08c379a00000000000000000000000000000000000000000000000000000000081526004018080602001828103825260168152602001807f596f7520617265206e6f7420746865206f776e6572210000000000000000000081525060200191505060405180910390fd5b3373ffffffffffffffffffffffffffffffffffffffff166006600083815260200190815260200160002060009054906101000a900473ffffffffffffffffffffffffffffffffffffffff1673ffffffffffffffffffffffffffffffffffffffff16148061170a57503373ffffffffffffffffffffffffffffffffffffffff166007600083815260200190815260200160002060009054906101000a900473ffffffffffffffffffffffffffffffffffffffff1673ffffffffffffffffffffffffffffffffffffffff16145b61177c576040517f08c379a00000000000000000000000000000000000000000000000000000000081526004018080602001828103825260168152602001807f596f7520617265206e6f7420746865206f776e6572210000000000000000000081525060200191505060405180910390fd5b600073ffffffffffffffffffffffffffffffffffffffff168273ffffffffffffffffffffffffffffffffffffffff16141580156117e65750600073ffffffffffffffffffffffffffffffffffffffff168373ffffffffffffffffffffffffffffffffffffffff1614155b611858576040517f08c379a000000000000000000000000000000000000000000000000000000000815260040180806020018281038252601b8152602001807f43616e6e6f742073656e6420746f207a65726f2061646472657373000000000081525060200191505060405180910390fd5b600054811115801561186a5750600081115b6118dc576040517f08c379a000000000000000000000000000000000000000000000000000000000815260040180806020018281038252600f8152602001807f4e6f7420612076616c6964204e4654000000000000000000000000000000000081525060200191505060405180910390fd5b6118e78383836131ad565b808273ffffffffffffffffffffffffffffffffffffffff168473ffffffffffffffffffffffffffffffffffffffff167fddf252ad1be2c89b69c2b068fc378daa952ba7f163c4a11628f55a4df523b3ef60405160405180910390a4505050565b600081600960008573ffffffffffffffffffffffffffffffffffffffff1673ffffffffffffffffffffffffffffffffffffffff16815260200190815260200160002080549050116119e3576040517f08c379a00000000000000000000000000000000000000000000000000000000081526004018080602001828103825260258152602001806137ed6025913960400191505060405180910390fd5b600073ffffffffffffffffffffffffffffffffffffffff168373ffffffffffffffffffffffffffffffffffffffff161415611a86576040517f08c379a00000000000000000000000000000000000000000000000000000000081526004018080602001828103825260158152602001807f476976656e2041646472657373206973207a65726f000000000000000000000081525060200191505060405180910390fd5b600960008473ffffffffffffffffffffffffffffffffffffffff1673ffffffffffffffffffffffffffffffffffffffff1681526020019081526020016000208281548110611ad057fe5b9060005260206000200154905092915050565b6006600082815260200190815260200160002060009054906101000a900473ffffffffffffffffffffffffffffffffffffffff1673ffffffffffffffffffffffffffffffffffffffff163373ffffffffffffffffffffffffffffffffffffffff161480611bdd575060011515600160008573ffffffffffffffffffffffffffffffffffffffff1673ffffffffffffffffffffffffffffffffffffffff16815260200190815260200160002060003373ffffffffffffffffffffffffffffffffffffffff1673ffffffffffffffffffffffffffffffffffffffff16815260200190815260200160002060009054906101000a900460ff161515145b80611c4657506006600082815260200190815260200160002060009054906101000a900473ffffffffffffffffffffffffffffffffffffffff1673ffffffffffffffffffffffffffffffffffffffff163373ffffffffffffffffffffffffffffffffffffffff16145b611cb8576040517f08c379a00000000000000000000000000000000000000000000000000000000081526004018080602001828103825260168152602001807f53656e646572206e6f7420617574686f72697a6564210000000000000000000081525060200191505060405180910390fd5b6006600082815260200190815260200160002060009054906101000a900473ffffffffffffffffffffffffffffffffffffffff1673ffffffffffffffffffffffffffffffffffffffff168373ffffffffffffffffffffffffffffffffffffffff1614611d8c576040517f08c379a000000000000000000000000000000000000000000000000000000000815260040180806020018281038252600e8152602001807f4e6f7420746865204f776e65722100000000000000000000000000000000000081525060200191505060405180910390fd5b600073ffffffffffffffffffffffffffffffffffffffff168273ffffffffffffffffffffffffffffffffffffffff1614158015611df65750600073ffffffffffffffffffffffffffffffffffffffff168373ffffffffffffffffffffffffffffffffffffffff1614155b611e68576040517f08c379a00000000000000000000000000000000000000000000000000000000081526004018080602001828103825260208152602001807f43616e6e6f74207472616e7366657220746f205a65726f20416464726573732181525060200191505060405180910390fd5b6000548111158015611e7a5750600081115b611eec576040517f08c379a000000000000000000000000000000000000000000000000000000000815260040180806020018281038252600f8152602001807f4e6f7420612076616c6964204e4654000000000000000000000000000000000081525060200191505060405180910390fd5b611ef78383836131ad565b6000807fc5d2460186f7233c927e7db2dcc703c0e500b653ca82273b7bfad8045d85a47060001b9050833f91506000801b8214158015611f375750808214155b156120bb5760008473ffffffffffffffffffffffffffffffffffffffff1663150b7a023388876040518463ffffffff1660e01b8152600401808473ffffffffffffffffffffffffffffffffffffffff1681526020018373ffffffffffffffffffffffffffffffffffffffff16815260200182815260200180602001828103825260008152602001602001945050505050602060405180830381600087803b158015611fe157600080fd5b505af1158015611ff5573d6000803e3d6000fd5b505050506040513d602081101561200b57600080fd5b8101908080519060200190929190505050905063150b7a0260e01b817bffffffffffffffffffffffffffffffffffffffffffffffffffffffff1916146120b9576040517f08c379a00000000000000000000000000000000000000000000000000000000081526004018080602001828103825260138152602001807f43616e206e6f742072656365697665204e46540000000000000000000000000081525060200191505060405180910390fd5b505b828473ffffffffffffffffffffffffffffffffffffffff168673ffffffffffffffffffffffffffffffffffffffff167fddf252ad1be2c89b69c2b068fc378daa952ba7f163c4a11628f55a4df523b3ef60405160405180910390a45050505050565b600061212882612f76565b61219a576040517f08c379a00000000000000000000000000000000000000000000000000000000081526004018080602001828103825260128152602001807f4e6f7420612076616c696420546f6b656e21000000000000000000000000000081525060200191505060405180910390fd5b60026000838152602001908152602001600020549050919050565b60008054905090565b600080548210612236576040517f08c379a00000000000000000000000000000000000000000000000000000000081526004018080602001828103825260118152602001807f496e64657820697320746f6f206869676800000000000000000000000000000081525060200191505060405180910390fd5b600182019050919050565b61224a82612f76565b6122bc576040517f08c379a000000000000000000000000000000000000000000000000000000000815260040180806020018281038252600f8152602001807f4e6f7420612076616c6964204e4654000000000000000000000000000000000081525060200191505060405180910390fd5b3373ffffffffffffffffffffffffffffffffffffffff166006600084815260200190815260200160002060009054906101000a900473ffffffffffffffffffffffffffffffffffffffff1673ffffffffffffffffffffffffffffffffffffffff1614806123e25750600160006006600085815260200190815260200160002060009054906101000a900473ffffffffffffffffffffffffffffffffffffffff1673ffffffffffffffffffffffffffffffffffffffff1673ffffffffffffffffffffffffffffffffffffffff16815260200190815260200160002060003373ffffffffffffffffffffffffffffffffffffffff1673ffffffffffffffffffffffffffffffffffffffff16815260200190815260200160002060009054906101000a900460ff165b612437576040517f08c379a000000000000000000000000000000000000000000000000000000000815260040180806020018281038252602a815260200180613812602a913960400191505060405180910390fd5b8060086000848152602001908152602001600020908051906020019061245e929190613711565b505050565b60006006600083815260200190815260200160002060009054906101000a900473ffffffffffffffffffffffffffffffffffffffff169050919050565b6000600960008373ffffffffffffffffffffffffffffffffffffffff1673ffffffffffffffffffffffffffffffffffffffff168152602001908152602001600020805490509050919050565b60606040518060400160405280600581526020017f414e4d4c53000000000000000000000000000000000000000000000000000000815250905090565b80600160003373ffffffffffffffffffffffffffffffffffffffff1673ffffffffffffffffffffffffffffffffffffffff16815260200190815260200160002060008473ffffffffffffffffffffffffffffffffffffffff1673ffffffffffffffffffffffffffffffffffffffff16815260200190815260200160002060006101000a81548160ff0219169083151502179055508173ffffffffffffffffffffffffffffffffffffffff163373ffffffffffffffffffffffffffffffffffffffff167f17307eab39ab6107e8899845ad3d59bd9653f200f220920489ca2b5937696c318360405180821515815260200191505060405180910390a35050565b600061263382612f76565b6126a5576040517f08c379a00000000000000000000000000000000000000000000000000000000081526004018080602001828103825260128152602001807f4e6f7420612076616c696420546f6b656e21000000000000000000000000000081525060200191505060405180910390fd5b60046000838152602001908152602001600020549050919050565b60006126cb82612f76565b61273d576040517f08c379a00000000000000000000000000000000000000000000000000000000081526004018080602001828103825260128152602001807f4e6f7420612076616c696420546f6b656e21000000000000000000000000000081525060200191505060405180910390fd5b60036000838152602001908152602001600020549050919050565b6006600084815260200190815260200160002060009054906101000a900473ffffffffffffffffffffffffffffffffffffffff1673ffffffffffffffffffffffffffffffffffffffff163373ffffffffffffffffffffffffffffffffffffffff161480612852575060011515600160008773ffffffffffffffffffffffffffffffffffffffff1673ffffffffffffffffffffffffffffffffffffffff16815260200190815260200160002060003373ffffffffffffffffffffffffffffffffffffffff1673ffffffffffffffffffffffffffffffffffffffff16815260200190815260200160002060009054906101000a900460ff161515145b806128bb57506006600084815260200190815260200160002060009054906101000a900473ffffffffffffffffffffffffffffffffffffffff1673ffffffffffffffffffffffffffffffffffffffff163373ffffffffffffffffffffffffffffffffffffffff16145b61292d576040517f08c379a00000000000000000000000000000000000000000000000000000000081526004018080602001828103825260168152602001807f53656e646572206e6f7420617574686f72697a6564210000000000000000000081525060200191505060405180910390fd5b6006600084815260200190815260200160002060009054906101000a900473ffffffffffffffffffffffffffffffffffffffff1673ffffffffffffffffffffffffffffffffffffffff168573ffffffffffffffffffffffffffffffffffffffff1614612a01576040517f08c379a000000000000000000000000000000000000000000000000000000000815260040180806020018281038252600e8152602001807f4e6f7420746865204f776e65722100000000000000000000000000000000000081525060200191505060405180910390fd5b600073ffffffffffffffffffffffffffffffffffffffff168473ffffffffffffffffffffffffffffffffffffffff16148015612a695750600073ffffffffffffffffffffffffffffffffffffffff168573ffffffffffffffffffffffffffffffffffffffff16145b612adb576040517f08c379a00000000000000000000000000000000000000000000000000000000081526004018080602001828103825260208152602001807f43616e6e6f74207472616e7366657220746f205a65726f20416464726573732181525060200191505060405180910390fd5b6000548311158015612aed5750600083115b612b5f576040517f08c379a000000000000000000000000000000000000000000000000000000000815260040180806020018281038252600f8152602001807f4e6f7420612076616c6964204e4654000000000000000000000000000000000081525060200191505060405180910390fd5b612b6a8585856131ad565b6000807fc5d2460186f7233c927e7db2dcc703c0e500b653ca82273b7bfad8045d85a47060001b9050853f91506000801b8214158015612baa5750808214155b15612d4e5760008673ffffffffffffffffffffffffffffffffffffffff1663150b7a02338a8989896040518663ffffffff1660e01b8152600401808673ffffffffffffffffffffffffffffffffffffffff1681526020018573ffffffffffffffffffffffffffffffffffffffff168152602001848152602001806020018281038252848482818152602001925080828437600081840152601f19601f8201169050808301925050509650505050505050602060405180830381600087803b158015612c7457600080fd5b505af1158015612c88573d6000803e3d6000fd5b505050506040513d6020811015612c9e57600080fd5b8101908080519060200190929190505050905063150b7a0260e01b817bffffffffffffffffffffffffffffffffffffffffffffffffffffffff191614612d4c576040517f08c379a00000000000000000000000000000000000000000000000000000000081526004018080602001828103825260138152602001807f43616e206e6f742072656365697665204e46540000000000000000000000000081525060200191505060405180910390fd5b505b848673ffffffffffffffffffffffffffffffffffffffff168873ffffffffffffffffffffffffffffffffffffffff167fddf252ad1be2c89b69c2b068fc378daa952ba7f163c4a11628f55a4df523b3ef60405160405180910390a450505050505050565b6060612dbd82612f76565b612e2f576040517f08c379a000000000000000000000000000000000000000000000000000000000815260040180806020018281038252600f8152602001807f4e6f7420612076616c6964204e4654000000000000000000000000000000000081525060200191505060405180910390fd5b600860008381526020019081526020016000208054600181600116156101000203166002900480601f016020809104026020016040519081016040528092919081815260200182805460018160011615610100020316600290048015612ed65780601f10612eab57610100808354040283529160200191612ed6565b820191906000526020600020905b815481529060010190602001808311612eb957829003601f168201915b50505050509050919050565b6000600160008473ffffffffffffffffffffffffffffffffffffffff1673ffffffffffffffffffffffffffffffffffffffff16815260200190815260200160002060008373ffffffffffffffffffffffffffffffffffffffff1673ffffffffffffffffffffffffffffffffffffffff16815260200190815260200160002060009054906101000a900460ff16905092915050565b60008082118015612f8957506000548211155b15612f975760019050612f9c565b600090505b919050565b60008081548092919060010191905055508460036000805481526020019081526020016000208190555083600460008054815260200190815260200160002081905550856002600080548152602001908152602001600020819055508260056000805481526020019081526020016000209080519060200190613025929190613711565b5081600660008054815260200190815260200160002060006101000a81548173ffffffffffffffffffffffffffffffffffffffff021916908373ffffffffffffffffffffffffffffffffffffffff16021790555080600860008054815260200190815260200160002090805190602001906130a1929190613711565b50600960008373ffffffffffffffffffffffffffffffffffffffff1673ffffffffffffffffffffffffffffffffffffffff16815260200190815260200160002060005490806001815401808255809150506001900390600052602060002001600090919091909150556001600960008473ffffffffffffffffffffffffffffffffffffffff1673ffffffffffffffffffffffffffffffffffffffff1681526020019081526020016000208054905003600a60008473ffffffffffffffffffffffffffffffffffffffff1673ffffffffffffffffffffffffffffffffffffffff16815260200190815260200160002060008054815260200190815260200160002081905550505050505050565b600073ffffffffffffffffffffffffffffffffffffffff168273ffffffffffffffffffffffffffffffffffffffff16141580156132175750600073ffffffffffffffffffffffffffffffffffffffff168373ffffffffffffffffffffffffffffffffffffffff1614155b613289576040517f08c379a00000000000000000000000000000000000000000000000000000000081526004018080602001828103825260208152602001807f43616e6e6f74207472616e7366657220746f205a65726f20416464726573732181525060200191505060405180910390fd5b816006600083815260200190815260200160002060006101000a81548173ffffffffffffffffffffffffffffffffffffffff021916908373ffffffffffffffffffffffffffffffffffffffff16021790555060006007600083815260200190815260200160002060006101000a81548173ffffffffffffffffffffffffffffffffffffffff021916908373ffffffffffffffffffffffffffffffffffffffff160217905550600960008373ffffffffffffffffffffffffffffffffffffffff1673ffffffffffffffffffffffffffffffffffffffff1681526020019081526020016000208190806001815401808255809150506001900390600052602060002001600090919091909150556001600960008473ffffffffffffffffffffffffffffffffffffffff1673ffffffffffffffffffffffffffffffffffffffff1681526020019081526020016000208054905003600a60008473ffffffffffffffffffffffffffffffffffffffff1673ffffffffffffffffffffffffffffffffffffffff168152602001908152602001600020600083815260200190815260200160002081905550600960008473ffffffffffffffffffffffffffffffffffffffff1673ffffffffffffffffffffffffffffffffffffffff1681526020019081526020016000206001600960008673ffffffffffffffffffffffffffffffffffffffff1673ffffffffffffffffffffffffffffffffffffffff1681526020019081526020016000208054905003815481106134bd57fe5b9060005260206000200154600960008573ffffffffffffffffffffffffffffffffffffffff1673ffffffffffffffffffffffffffffffffffffffff168152602001908152602001600020600a60008673ffffffffffffffffffffffffffffffffffffffff1673ffffffffffffffffffffffffffffffffffffffff1681526020019081526020016000206000848152602001908152602001600020548154811061356257fe5b9060005260206000200181905550600a60008473ffffffffffffffffffffffffffffffffffffffff1673ffffffffffffffffffffffffffffffffffffffff168152602001908152602001600020600082815260200190815260200160002054600a60008573ffffffffffffffffffffffffffffffffffffffff1673ffffffffffffffffffffffffffffffffffffffff1681526020019081526020016000206000600960008773ffffffffffffffffffffffffffffffffffffffff1673ffffffffffffffffffffffffffffffffffffffff1681526020019081526020016000206001600960008973ffffffffffffffffffffffffffffffffffffffff1673ffffffffffffffffffffffffffffffffffffffff16815260200190815260200160002080549050038154811061369157fe5b9060005260206000200154815260200190815260200160002081905550600960008473ffffffffffffffffffffffffffffffffffffffff1673ffffffffffffffffffffffffffffffffffffffff1681526020019081526020016000208054806136f657fe5b60019003818190600052602060002001600090559055505050565b828054600181600116156101000203166002900490600052602060002090601f016020900481019282601f1061375257805160ff1916838001178555613780565b82800160010185558215613780579182015b8281111561377f578251825591602001919060010190613764565b5b50905061378d9190613791565b5090565b5b808211156137aa576000816000905550600101613792565b509056fe4e6f7420746865206f776e65722c206e6f7220746865206f70657261746f72206f6620746865206f776e6572206f66207365636f6e6420506172656e74214164647265737320646f6573206e6f74206f776e2074686174206d616e7920546f6b656e734e65697468657220746865206f776e65722c206e6f72206120617070726f766564204f70657261746f724e6f7420746865206f776e65722c206e6f7220746865206f70657261746f72206f6620746865206f776e6572206f6620666972737420506172656e7421a2646970667358221220b3f1b6576a4161f75d998550894160144b60222ffa6bbde26545394df7643b1d64736f6c63430007000033",
  "immutableReferences": {},
  "source": "// SPDX-License-Identifier: MIT\r\npragma solidity >=0.5.0 <0.9.0;\r\n\r\nimport \"./Interfaces.sol\";\r\n\r\ncontract ANMLS is ERC721, ERC165, ERC721Metadata, ERC721Enumerable {\r\n    uint256 private _tokenIds = 0;\r\n    mapping(address => mapping(address => bool)) private _operator;\r\n\r\n    mapping(uint256 => uint256) private _genes;\r\n    mapping(uint256 => uint256) private _parent1;\r\n    mapping(uint256 => uint256) private _parent2;\r\n    mapping(uint256 => string) private _name;\r\n    mapping(uint256 => address) private _owner;\r\n    mapping(uint256 => address) private _approvedAddress;\r\n    mapping(uint256 => string) private _uri;\r\n    mapping(address => uint256[]) private _enumOwner;\r\n    mapping(address => mapping(uint256 => uint256)) private _enumOwnerIndex;\r\n    mapping(bytes4 => bool) private _supportedInterfaces;\r\n\r\n    /// @notice Constructor creates Parents with specified Genes\r\n    /// @param GenesParent1 Specify Genes of first Parent\r\n    /// @param GenesParent2 Specify Genes of second Parent\r\n    constructor(\r\n        uint256 GenesParent1,\r\n        uint256 GenesParent2,\r\n        string memory base\r\n    ) {\r\n        _addAnimal(GenesParent1, 0, 0, \"Eve\", msg.sender, base);\r\n        _addAnimal(GenesParent2, 0, 0, \"Adam\", msg.sender, base);\r\n        _supportedInterfaces[0x80ac58cd] = true;\r\n        _supportedInterfaces[0x01ffc9a7] = true;\r\n        _supportedInterfaces[0x5b5e139f] = true;\r\n        _supportedInterfaces[0x780e9d63] = true;\r\n    }\r\n\r\n    function _addAnimal(\r\n        uint256 Genes,\r\n        uint256 Parent1,\r\n        uint256 Parent2,\r\n        string memory Name,\r\n        address firstOwner,\r\n        string memory uri\r\n    ) private {\r\n        _tokenIds++;\r\n        _parent1[_tokenIds] = Parent1;\r\n        _parent2[_tokenIds] = Parent2;\r\n        _genes[_tokenIds] = Genes;\r\n        _name[_tokenIds] = Name;\r\n        _owner[_tokenIds] = firstOwner;\r\n        _uri[_tokenIds] = uri;\r\n        _enumOwner[firstOwner].push(_tokenIds);\r\n        _enumOwnerIndex[firstOwner][_tokenIds] =\r\n            _enumOwner[firstOwner].length -\r\n            1;\r\n    }\r\n\r\n    function _transfer(\r\n        address _from,\r\n        address _to,\r\n        uint256 _tokenId\r\n    ) private {\r\n        require(\r\n            _to != address(0) && _from != address(0),\r\n            \"Cannot transfer to Zero Address!\"\r\n        );\r\n        _owner[_tokenId] = _to;\r\n        _approvedAddress[_tokenId] = address(0);\r\n        _enumOwner[_to].push(_tokenId);\r\n        _enumOwnerIndex[_to][_tokenId] = _enumOwner[_to].length - 1;\r\n\r\n        _enumOwner[_from][_enumOwnerIndex[_from][_tokenId]] = _enumOwner[_from][\r\n            _enumOwner[_from].length - 1\r\n        ];\r\n\r\n        _enumOwnerIndex[_from][\r\n            _enumOwner[_from][_enumOwner[_from].length - 1]\r\n        ] = _enumOwnerIndex[_from][_tokenId];\r\n\r\n        _enumOwner[_from].pop();\r\n    }\r\n\r\n    // ----------------------- Begin Breading Functionality ------------------------------\r\n\r\n    /// @notice Bread Child from two Parents\r\n    /// @param Parent1 First Parent used for Breading\r\n    /// @param Parent2 Second Parent used for Breading\r\n    /// @return tokenId of Child\r\n    function breed(\r\n        uint256 Parent1,\r\n        uint256 Parent2,\r\n        string memory childName,\r\n        string memory base\r\n    ) public returns (uint256) {\r\n        require(Parent1 != Parent2, \"Need two individual Parents!\");\r\n        require(\r\n            _owner[Parent1] == msg.sender ||\r\n                _operator[_owner[Parent1]][msg.sender] == true,\r\n            \"Not the owner, nor the operator of the owner of first Parent!\"\r\n        );\r\n        require(\r\n            _owner[Parent2] == msg.sender ||\r\n                _operator[_owner[Parent2]][msg.sender] == true,\r\n            \"Not the owner, nor the operator of the owner of second Parent!\"\r\n        );\r\n\r\n        uint256 seed = uint256(keccak256(abi.encodePacked(block.number)));\r\n        uint256 childGene = (((_genes[Parent1] ^ _genes[Parent2]) ^\r\n            0xffffffffffffffffffffffffffffffffffffffffffffffffffffffffffffffff) &\r\n            _genes[Parent1]) | ((_genes[Parent1] ^ _genes[Parent2]) & seed);\r\n\r\n        _addAnimal(childGene, Parent1, Parent2, childName, msg.sender, string(abi.encodePacked(base, childGene)));\r\n        return _tokenIds;\r\n    }\r\n\r\n    function _isValidToken(uint256 _tokenId) private view returns (bool) {\r\n        if (_tokenId > 0 && _tokenId <= _tokenIds) return true;\r\n        return false;\r\n    }\r\n\r\n    // ----------------------- End Breading Functionality ------------------------------\r\n\r\n    function nameOf(uint256 _tokenId) external view returns (string memory) {\r\n        require(_isValidToken(_tokenId), \"Not a valid Token!\");\r\n        return _name[_tokenId];\r\n    }\r\n\r\n    function parent1Of(uint256 _tokenId) external view returns (uint256) {\r\n        require(_isValidToken(_tokenId), \"Not a valid Token!\");\r\n        return _parent1[_tokenId];\r\n    }\r\n\r\n    function parent2Of(uint256 _tokenId) external view returns (uint256) {\r\n        require(_isValidToken(_tokenId), \"Not a valid Token!\");\r\n        return _parent2[_tokenId];\r\n    }\r\n\r\n    function genesOf(uint256 _tokenId) external view returns (uint256) {\r\n        require(_isValidToken(_tokenId), \"Not a valid Token!\");\r\n        return _genes[_tokenId];\r\n    }\r\n\r\n    function last() external view returns (uint256) {\r\n        return _tokenIds;\r\n    }\r\n\r\n    // ----------------------- Begin ERC721 Functions -------------------------------------\r\n\r\n    /// @notice Count all NFTs assigned to an owner\r\n    /// @dev NFTs assigned to the zero address are considered invalid, and this\r\n    ///  function throws for queries about the zero address.\r\n    /// @param _checkowner An address for whom to query the balance\r\n    /// @return The number of NFTs owned by `_owner`, possibly zero\r\n    function balanceOf(address _checkowner)\r\n        external\r\n        view\r\n        override\r\n        returns (uint256)\r\n    {\r\n        return _enumOwner[_checkowner].length;\r\n    }\r\n\r\n    /// @notice Find the owner of an NFT\r\n    /// @dev NFTs assigned to zero address are considered invalid, and queries\r\n    ///  about them do throw.\r\n    /// @param _tokenId The identifier for an NFT\r\n    /// @return The address of the owner of the NFT\r\n    function ownerOf(uint256 _tokenId)\r\n        external\r\n        view\r\n        override\r\n        returns (address)\r\n    {\r\n        return _owner[_tokenId];\r\n    }\r\n\r\n    /// @notice Transfers the ownership of an NFT from one address to another address\r\n    /// @dev Throws unless `msg.sender` is the current owner, an authorized\r\n    ///  operator, or the approved address for this NFT. Throws if `_from` is\r\n    ///  not the current owner. Throws if `_to` is the zero address. Throws if\r\n    ///  `_tokenId` is not a valid NFT. When transfer is complete, this function\r\n    ///  checks if `_to` is a smart contract (code size > 0). If so, it calls\r\n    ///  `onERC721Received` on `_to` and throws if the return value is not\r\n    ///  `bytes4(keccak256(\"onERC721Received(address,address,uint256,bytes)\"))`.\r\n    /// @param _from The current owner of the NFT\r\n    /// @param _to The new owner\r\n    /// @param _tokenId The NFT to transfer\r\n    /// @param data Additional data with no specified format, sent in call to `_to`\r\n    function safeTransferFrom(\r\n        address _from,\r\n        address _to,\r\n        uint256 _tokenId,\r\n        bytes calldata data\r\n    ) external override {\r\n        require(\r\n            msg.sender == _owner[_tokenId] ||\r\n                _operator[_from][msg.sender] == true ||\r\n                msg.sender == _owner[_tokenId],\r\n            \"Sender not authorized!\"\r\n        );\r\n        require(_from == _owner[_tokenId], \"Not the Owner!\");\r\n        require(\r\n            _to == address(0) && _from == address(0),\r\n            \"Cannot transfer to Zero Address!\"\r\n        );\r\n        require(_tokenId <= _tokenIds && _tokenId > 0, \"Not a valid NFT\");\r\n\r\n        _transfer(_from, _to, _tokenId);\r\n\r\n        // Check for _to being a smart contract\r\n        bytes32 codehash;\r\n        bytes32 accountHash = 0xc5d2460186f7233c927e7db2dcc703c0e500b653ca82273b7bfad8045d85a470;\r\n        assembly {\r\n            codehash := extcodehash(_to)\r\n        } // solhint-disable-line\r\n        if (codehash != 0x0 && codehash != accountHash) {\r\n            bytes4 retval = ERC721TokenReceiver(_to).onERC721Received(\r\n                msg.sender,\r\n                _from,\r\n                _tokenId,\r\n                data\r\n            );\r\n            require(retval == 0x150b7a02, \"Can not receive NFT\");\r\n        }\r\n\r\n        emit Transfer(_from, _to, _tokenId);\r\n    }\r\n\r\n    /// @notice Transfers the ownership of an NFT from one address to another address\r\n    /// @dev This works identically to the other function with an extra data parameter,\r\n    ///  except this function just sets data to \"\".\r\n    /// @param _from The current owner of the NFT\r\n    /// @param _to The new owner\r\n    /// @param _tokenId The NFT to transfer\r\n    function safeTransferFrom(\r\n        address _from,\r\n        address _to,\r\n        uint256 _tokenId\r\n    ) external override {\r\n        require(\r\n            msg.sender == _owner[_tokenId] ||\r\n                _operator[_from][msg.sender] == true ||\r\n                msg.sender == _owner[_tokenId],\r\n            \"Sender not authorized!\"\r\n        );\r\n        require(_from == _owner[_tokenId], \"Not the Owner!\");\r\n        require(\r\n            _to != address(0) && _from != address(0),\r\n            \"Cannot transfer to Zero Address!\"\r\n        );\r\n        require(_tokenId <= _tokenIds && _tokenId > 0, \"Not a valid NFT\");\r\n\r\n        _transfer(_from, _to, _tokenId);\r\n\r\n        // Check for _to being a smart contract\r\n        bytes32 codehash;\r\n        bytes32 accountHash = 0xc5d2460186f7233c927e7db2dcc703c0e500b653ca82273b7bfad8045d85a470;\r\n        assembly {\r\n            codehash := extcodehash(_to)\r\n        } // solhint-disable-line\r\n        if (codehash != 0x0 && codehash != accountHash) {\r\n            bytes4 retval = ERC721TokenReceiver(_to).onERC721Received(\r\n                msg.sender,\r\n                _from,\r\n                _tokenId,\r\n                \"\"\r\n            );\r\n            require(retval == 0x150b7a02, \"Can not receive NFT\");\r\n        }\r\n        emit Transfer(_from, _to, _tokenId);\r\n    }\r\n\r\n    /// @notice Transfer ownership of an NFT -- THE CALLER IS RESPONSIBLE\r\n    ///  TO CONFIRM THAT `_to` IS CAPABLE OF RECEIVING NFTS OR ELSE\r\n    ///  THEY MAY BE PERMANENTLY LOST\r\n    /// @dev Throws unless `msg.sender` is the current owner, an authorized\r\n    ///  operator, or the approved address for this NFT. Throws if `_from` is\r\n    ///  not the current owner. Throws if `_to` is the zero address. Throws if\r\n    ///  `_tokenId` is not a valid NFT.\r\n    /// @param _from The current owner of the NFT\r\n    /// @param _to The new owner\r\n    /// @param _tokenId The NFT to transfer\r\n    function transferFrom(\r\n        address _from,\r\n        address _to,\r\n        uint256 _tokenId\r\n    ) external override {\r\n        require(_owner[_tokenId] == _from, \"You are not the owner!\");\r\n        require(\r\n            _owner[_tokenId] == msg.sender ||\r\n                _approvedAddress[_tokenId] == msg.sender,\r\n            \"You are not the owner!\"\r\n        );\r\n        require(\r\n            _to != address(0) && _from != address(0),\r\n            \"Cannot send to zero address\"\r\n        );\r\n        require(_tokenId <= _tokenIds && _tokenId > 0, \"Not a valid NFT\");\r\n\r\n        _transfer(_from, _to, _tokenId);\r\n        emit Transfer(_from, _to, _tokenId);\r\n    }\r\n\r\n    /// @notice Change or reaffirm the approved address for an NFT\r\n    /// @dev The zero address indicates there is no approved address.\r\n    ///  Throws unless `msg.sender` is the current NFT owner, or an authorized\r\n    ///  operator of the current owner.\r\n    /// @param _approved The new approved NFT controller\r\n    /// @param _tokenId The NFT to approve\r\n    function approve(address _approved, uint256 _tokenId) external override {\r\n        require(\r\n            _owner[_tokenId] == msg.sender ||\r\n                _operator[_owner[_tokenId]][msg.sender],\r\n            \"Neither the owner, nor a approved Operator\"\r\n        );\r\n        _approvedAddress[_tokenId] = _approved;\r\n        emit Approval(_owner[_tokenId], _approved, _tokenId);\r\n    }\r\n\r\n    /// @notice Enable or disable approval for a third party (\"operator\") to manage\r\n    ///  all of `msg.sender`'s assets\r\n    /// @dev Emits the ApprovalForAll event. The contract MUST allow\r\n    ///  multiple operators per owner.\r\n    /// @param _newoperator Address to add to the set of authorized operators\r\n    /// @param _approved True if the operator is approved, false to revoke approval\r\n    function setApprovalForAll(address _newoperator, bool _approved)\r\n        external\r\n        override\r\n    {\r\n        _operator[msg.sender][_newoperator] = _approved;\r\n        emit ApprovalForAll(msg.sender, _newoperator, _approved);\r\n    }\r\n\r\n    /// @notice Get the approved address for a single NFT\r\n    /// @dev Throws if `_tokenId` is not a valid NFT.\r\n    /// @param _tokenId The NFT to find the approved address for\r\n    /// @return The approved address for this NFT, or the zero address if there is none\r\n    function getApproved(uint256 _tokenId)\r\n        external\r\n        view\r\n        override\r\n        returns (address)\r\n    {\r\n        require(_isValidToken(_tokenId), \"Not a valid NFT!\");\r\n        return _approvedAddress[_tokenId];\r\n    }\r\n\r\n    /// @notice Query if an address is an authorized operator for another address\r\n    /// @param _checkowner The address that owns the NFTs\r\n    /// @param _checkoperator The address that acts on behalf of the owner\r\n    /// @return True if `_operator` is an approved operator for `_owner`, false otherwise\r\n    function isApprovedForAll(address _checkowner, address _checkoperator)\r\n        external\r\n        view\r\n        override\r\n        returns (bool)\r\n    {\r\n        return _operator[_checkowner][_checkoperator];\r\n    }\r\n\r\n    // ----------------------- End ERC721 Functions -------------------------------------\r\n\r\n    // ----------------------- Begin ERC721Metadata Functions -------------------------------------\r\n\r\n    /// @notice A descriptive name for a collection of NFTs in this contract\r\n    function name() external pure override returns (string memory _retname) {\r\n        return \"Animals\";\r\n    }\r\n\r\n    /// @notice An abbreviated name for NFTs in this contract\r\n    function symbol()\r\n        external\r\n        pure\r\n        override\r\n        returns (string memory _retsymbol)\r\n    {\r\n        return \"ANMLS\";\r\n    }\r\n\r\n    /// @notice A distinct Uniform Resource Identifier (URI) for a given asset.\r\n    /// @dev Throws if `_tokenId` is not a valid NFT. URIs are defined in RFC\r\n    ///  3986. The URI may point to a JSON file that conforms to the \"ERC721\r\n    ///  Metadata JSON Schema\".\r\n    function tokenURI(uint256 _tokenId)\r\n        external\r\n        view\r\n        override\r\n        returns (string memory)\r\n    {\r\n        require(_isValidToken(_tokenId), \"Not a valid NFT\");\r\n        return _uri[_tokenId];\r\n    }\r\n\r\n    // Additional: Set URI\r\n    function setTokenUri(uint256 _tokenId, string memory newuri) external {\r\n        require(_isValidToken(_tokenId), \"Not a valid NFT\");\r\n        require(\r\n            _owner[_tokenId] == msg.sender ||\r\n                _operator[_owner[_tokenId]][msg.sender],\r\n            \"Neither the owner, nor a approved Operator\"\r\n        );\r\n        _uri[_tokenId] = newuri;\r\n    }\r\n\r\n    // ----------------------- End ERC721Metadata Functions -------------------------------------\r\n\r\n    // ----------------------- Begin ERC165 Functions -------------------------------------\r\n\r\n    /// @notice Query if a contract implements an interface\r\n    /// @param interfaceID The interface identifier, as specified in ERC-165\r\n    /// @dev Interface identification is specified in ERC-165. This function\r\n    ///  uses less than 30,000 gas.\r\n    /// @return `true` if the contract implements `interfaceID` and\r\n    ///  `interfaceID` is not 0xffffffff, `false` otherwise\r\n    function supportsInterface(bytes4 interfaceID)\r\n        external\r\n        view\r\n        override\r\n        returns (bool)\r\n    {\r\n        return _supportedInterfaces[interfaceID];\r\n    }\r\n\r\n    // ----------------------- End ERC165 Functions -------------------------------------\r\n    // ----------------------- Begin ERC721Enumerable Functions -------------------------\r\n\r\n    /// @notice Count NFTs tracked by this contract\r\n    /// @return A count of valid NFTs tracked by this contract, where each one of\r\n    ///  them has an assigned and queryable owner not equal to the zero address\r\n    function totalSupply() external view override returns (uint256) {\r\n        return _tokenIds;\r\n    }\r\n\r\n    /// @notice Enumerate valid NFTs\r\n    /// @dev Throws if `_index` >= `totalSupply()`.\r\n    /// @param _index A counter less than `totalSupply()`\r\n    /// @return The token identifier for the `_index`th NFT,\r\n    ///  (sort order not specified)\r\n    function tokenByIndex(uint256 _index)\r\n        external\r\n        view\r\n        override\r\n        returns (uint256)\r\n    {\r\n        require(_index < _tokenIds, \"Index is too high\");\r\n        return _index + 1;\r\n    }\r\n\r\n    /// @notice Enumerate NFTs assigned to an owner\r\n    /// @dev Throws if `_index` >= `balanceOf(_owner)` or if\r\n    ///  `_owner` is the zero address, representing invalid NFTs.\r\n    /// @param _checkowner An address where we are interested in NFTs owned by them\r\n    /// @param _index A counter less than `balanceOf(_owner)`\r\n    /// @return The token identifier for the `_index`th NFT assigned to `_owner`,\r\n    ///   (sort order not specified)\r\n    function tokenOfOwnerByIndex(address _checkowner, uint256 _index)\r\n        external\r\n        view\r\n        override\r\n        returns (uint256)\r\n    {\r\n        require(\r\n            _enumOwner[_checkowner].length > _index,\r\n            \"Address does not own that many Tokens\"\r\n        );\r\n        require(_checkowner != address(0), \"Given Address is zero\");\r\n        return _enumOwner[_checkowner][_index];\r\n    }\r\n\r\n    // ----------------------- End ERC721Enumerable Functions ---------------------------\r\n}\r\n",
  "sourcePath": "C:\\wetzel\\local\\anmls\\contracts\\ANMLS.sol",
  "compiler": {
    "name": "solc",
    "version": "0.7.0+commit.9e61f92b.Emscripten.clang"
  },
  "schemaVersion": "3.4.3",
  "updatedAt": "2022-01-29T17:21:03.956Z",
  "networkType": "ethereum",
  "devdoc": {
    "kind": "dev",
    "methods": {
      "approve(address,uint256)": {
        "details": "The zero address indicates there is no approved address.  Throws unless `msg.sender` is the current NFT owner, or an authorized  operator of the current owner.",
        "params": {
          "_approved": "The new approved NFT controller",
          "_tokenId": "The NFT to approve"
        }
      },
      "balanceOf(address)": {
        "details": "NFTs assigned to the zero address are considered invalid, and this  function throws for queries about the zero address.",
        "params": {
          "_checkowner": "An address for whom to query the balance"
        },
        "returns": {
          "_0": "The number of NFTs owned by `_owner`, possibly zero"
        }
      },
      "breed(uint256,uint256,string,string)": {
        "params": {
          "Parent1": "First Parent used for Breading",
          "Parent2": "Second Parent used for Breading"
        },
        "returns": {
          "_0": "tokenId of Child"
        }
      },
      "constructor": {
        "params": {
          "GenesParent1": "Specify Genes of first Parent",
          "GenesParent2": "Specify Genes of second Parent"
        }
      },
      "getApproved(uint256)": {
        "details": "Throws if `_tokenId` is not a valid NFT.",
        "params": {
          "_tokenId": "The NFT to find the approved address for"
        },
        "returns": {
          "_0": "The approved address for this NFT, or the zero address if there is none"
        }
      },
      "isApprovedForAll(address,address)": {
        "params": {
          "_checkoperator": "The address that acts on behalf of the owner",
          "_checkowner": "The address that owns the NFTs"
        },
        "returns": {
          "_0": "True if `_operator` is an approved operator for `_owner`, false otherwise"
        }
      },
      "ownerOf(uint256)": {
        "details": "NFTs assigned to zero address are considered invalid, and queries  about them do throw.",
        "params": {
          "_tokenId": "The identifier for an NFT"
        },
        "returns": {
          "_0": "The address of the owner of the NFT"
        }
      },
      "safeTransferFrom(address,address,uint256)": {
        "details": "This works identically to the other function with an extra data parameter,  except this function just sets data to \"\".",
        "params": {
          "_from": "The current owner of the NFT",
          "_to": "The new owner",
          "_tokenId": "The NFT to transfer"
        }
      },
      "safeTransferFrom(address,address,uint256,bytes)": {
        "details": "Throws unless `msg.sender` is the current owner, an authorized  operator, or the approved address for this NFT. Throws if `_from` is  not the current owner. Throws if `_to` is the zero address. Throws if  `_tokenId` is not a valid NFT. When transfer is complete, this function  checks if `_to` is a smart contract (code size > 0). If so, it calls  `onERC721Received` on `_to` and throws if the return value is not  `bytes4(keccak256(\"onERC721Received(address,address,uint256,bytes)\"))`.",
        "params": {
          "_from": "The current owner of the NFT",
          "_to": "The new owner",
          "_tokenId": "The NFT to transfer",
          "data": "Additional data with no specified format, sent in call to `_to`"
        }
      },
      "setApprovalForAll(address,bool)": {
        "details": "Emits the ApprovalForAll event. The contract MUST allow  multiple operators per owner.",
        "params": {
          "_approved": "True if the operator is approved, false to revoke approval",
          "_newoperator": "Address to add to the set of authorized operators"
        }
      },
      "supportsInterface(bytes4)": {
        "details": "Interface identification is specified in ERC-165. This function  uses less than 30,000 gas.",
        "params": {
          "interfaceID": "The interface identifier, as specified in ERC-165"
        },
        "returns": {
          "_0": "`true` if the contract implements `interfaceID` and  `interfaceID` is not 0xffffffff, `false` otherwise"
        }
      },
      "tokenByIndex(uint256)": {
        "details": "Throws if `_index` >= `totalSupply()`.",
        "params": {
          "_index": "A counter less than `totalSupply()`"
        },
        "returns": {
          "_0": "The token identifier for the `_index`th NFT,  (sort order not specified)"
        }
      },
      "tokenOfOwnerByIndex(address,uint256)": {
        "details": "Throws if `_index` >= `balanceOf(_owner)` or if  `_owner` is the zero address, representing invalid NFTs.",
        "params": {
          "_checkowner": "An address where we are interested in NFTs owned by them",
          "_index": "A counter less than `balanceOf(_owner)`"
        },
        "returns": {
          "_0": "The token identifier for the `_index`th NFT assigned to `_owner`,   (sort order not specified)"
        }
      },
      "tokenURI(uint256)": {
        "details": "Throws if `_tokenId` is not a valid NFT. URIs are defined in RFC  3986. The URI may point to a JSON file that conforms to the \"ERC721  Metadata JSON Schema\"."
      },
      "totalSupply()": {
        "returns": {
          "_0": "A count of valid NFTs tracked by this contract, where each one of  them has an assigned and queryable owner not equal to the zero address"
        }
      },
      "transferFrom(address,address,uint256)": {
        "details": "Throws unless `msg.sender` is the current owner, an authorized  operator, or the approved address for this NFT. Throws if `_from` is  not the current owner. Throws if `_to` is the zero address. Throws if  `_tokenId` is not a valid NFT.",
        "params": {
          "_from": "The current owner of the NFT",
          "_to": "The new owner",
          "_tokenId": "The NFT to transfer"
        }
      }
    },
    "version": 1
  },
  "userdoc": {
    "kind": "user",
    "methods": {
      "approve(address,uint256)": {
        "notice": "Change or reaffirm the approved address for an NFT"
      },
      "balanceOf(address)": {
        "notice": "Count all NFTs assigned to an owner"
      },
      "breed(uint256,uint256,string,string)": {
        "notice": "Bread Child from two Parents"
      },
      "constructor": {
        "notice": "Constructor creates Parents with specified Genes"
      },
      "getApproved(uint256)": {
        "notice": "Get the approved address for a single NFT"
      },
      "isApprovedForAll(address,address)": {
        "notice": "Query if an address is an authorized operator for another address"
      },
      "name()": {
        "notice": "A descriptive name for a collection of NFTs in this contract"
      },
      "ownerOf(uint256)": {
        "notice": "Find the owner of an NFT"
      },
      "safeTransferFrom(address,address,uint256)": {
        "notice": "Transfers the ownership of an NFT from one address to another address"
      },
      "safeTransferFrom(address,address,uint256,bytes)": {
        "notice": "Transfers the ownership of an NFT from one address to another address"
      },
      "setApprovalForAll(address,bool)": {
        "notice": "Enable or disable approval for a third party (\"operator\") to manage  all of `msg.sender`'s assets"
      },
      "supportsInterface(bytes4)": {
        "notice": "Query if a contract implements an interface"
      },
      "symbol()": {
        "notice": "An abbreviated name for NFTs in this contract"
      },
      "tokenByIndex(uint256)": {
        "notice": "Enumerate valid NFTs"
      },
      "tokenOfOwnerByIndex(address,uint256)": {
        "notice": "Enumerate NFTs assigned to an owner"
      },
      "tokenURI(uint256)": {
        "notice": "A distinct Uniform Resource Identifier (URI) for a given asset."
      },
      "totalSupply()": {
        "notice": "Count NFTs tracked by this contract"
      },
      "transferFrom(address,address,uint256)": {
        "notice": "Transfer ownership of an NFT -- THE CALLER IS RESPONSIBLE  TO CONFIRM THAT `_to` IS CAPABLE OF RECEIVING NFTS OR ELSE  THEY MAY BE PERMANENTLY LOST"
      }
    },
    "version": 1
  }
}