{
  "contractName": "ANMLS",
  "abi": [
    {
      "inputs": [
        {
          "internalType": "uint256",
          "name": "GenesParent1",
          "type": "uint256"
        },
        {
          "internalType": "uint256",
          "name": "GenesParent2",
          "type": "uint256"
        },
        {
          "internalType": "string",
          "name": "base",
          "type": "string"
        }
      ],
      "stateMutability": "nonpayable",
      "type": "constructor"
    },
    {
      "anonymous": false,
      "inputs": [
        {
          "indexed": true,
          "internalType": "address",
          "name": "_owner",
          "type": "address"
        },
        {
          "indexed": true,
          "internalType": "address",
          "name": "_approved",
          "type": "address"
        },
        {
          "indexed": true,
          "internalType": "uint256",
          "name": "_tokenId",
          "type": "uint256"
        }
      ],
      "name": "Approval",
      "type": "event"
    },
    {
      "anonymous": false,
      "inputs": [
        {
          "indexed": true,
          "internalType": "address",
          "name": "_owner",
          "type": "address"
        },
        {
          "indexed": true,
          "internalType": "address",
          "name": "_operator",
          "type": "address"
        },
        {
          "indexed": false,
          "internalType": "bool",
          "name": "_approved",
          "type": "bool"
        }
      ],
      "name": "ApprovalForAll",
      "type": "event"
    },
    {
      "anonymous": false,
      "inputs": [
        {
          "indexed": true,
          "internalType": "address",
          "name": "_from",
          "type": "address"
        },
        {
          "indexed": true,
          "internalType": "address",
          "name": "_to",
          "type": "address"
        },
        {
          "indexed": true,
          "internalType": "uint256",
          "name": "_tokenId",
          "type": "uint256"
        }
      ],
      "name": "Transfer",
      "type": "event"
    },
    {
      "inputs": [
        {
          "internalType": "uint256",
          "name": "Parent1",
          "type": "uint256"
        },
        {
          "internalType": "uint256",
          "name": "Parent2",
          "type": "uint256"
        },
        {
          "internalType": "string",
          "name": "childName",
          "type": "string"
        },
        {
          "internalType": "string",
          "name": "base",
          "type": "string"
        }
      ],
      "name": "breed",
      "outputs": [
        {
          "internalType": "uint256",
          "name": "",
          "type": "uint256"
        }
      ],
      "stateMutability": "nonpayable",
      "type": "function"
    },
    {
      "inputs": [
        {
          "internalType": "uint256",
          "name": "_tokenId",
          "type": "uint256"
        }
      ],
      "name": "nameOf",
      "outputs": [
        {
          "internalType": "string",
          "name": "",
          "type": "string"
        }
      ],
      "stateMutability": "view",
      "type": "function",
      "constant": true
    },
    {
      "inputs": [
        {
          "internalType": "uint256",
          "name": "_tokenId",
          "type": "uint256"
        }
      ],
      "name": "parent1Of",
      "outputs": [
        {
          "internalType": "uint256",
          "name": "",
          "type": "uint256"
        }
      ],
      "stateMutability": "view",
      "type": "function",
      "constant": true
    },
    {
      "inputs": [
        {
          "internalType": "uint256",
          "name": "_tokenId",
          "type": "uint256"
        }
      ],
      "name": "parent2Of",
      "outputs": [
        {
          "internalType": "uint256",
          "name": "",
          "type": "uint256"
        }
      ],
      "stateMutability": "view",
      "type": "function",
      "constant": true
    },
    {
      "inputs": [
        {
          "internalType": "uint256",
          "name": "_tokenId",
          "type": "uint256"
        }
      ],
      "name": "genesOf",
      "outputs": [
        {
          "internalType": "uint256",
          "name": "",
          "type": "uint256"
        }
      ],
      "stateMutability": "view",
      "type": "function",
      "constant": true
    },
    {
      "inputs": [],
      "name": "last",
      "outputs": [
        {
          "internalType": "uint256",
          "name": "",
          "type": "uint256"
        }
      ],
      "stateMutability": "view",
      "type": "function",
      "constant": true
    },
    {
      "inputs": [
        {
          "internalType": "address",
          "name": "_checkowner",
          "type": "address"
        }
      ],
      "name": "balanceOf",
      "outputs": [
        {
          "internalType": "uint256",
          "name": "",
          "type": "uint256"
        }
      ],
      "stateMutability": "view",
      "type": "function",
      "constant": true
    },
    {
      "inputs": [
        {
          "internalType": "uint256",
          "name": "_tokenId",
          "type": "uint256"
        }
      ],
      "name": "ownerOf",
      "outputs": [
        {
          "internalType": "address",
          "name": "",
          "type": "address"
        }
      ],
      "stateMutability": "view",
      "type": "function",
      "constant": true
    },
    {
      "inputs": [
        {
          "internalType": "address",
          "name": "_from",
          "type": "address"
        },
        {
          "internalType": "address",
          "name": "_to",
          "type": "address"
        },
        {
          "internalType": "uint256",
          "name": "_tokenId",
          "type": "uint256"
        }
      ],
      "name": "safeTransferFrom",
      "outputs": [],
      "stateMutability": "nonpayable",
      "type": "function"
    },
    {
      "inputs": [
        {
          "internalType": "address",
          "name": "_from",
          "type": "address"
        },
        {
          "internalType": "address",
          "name": "_to",
          "type": "address"
        },
        {
          "internalType": "uint256",
          "name": "_tokenId",
          "type": "uint256"
        },
        {
          "internalType": "bytes",
          "name": "data",
          "type": "bytes"
        }
      ],
      "name": "safeTransferFrom",
      "outputs": [],
      "stateMutability": "nonpayable",
      "type": "function"
    },
    {
      "inputs": [
        {
          "internalType": "address",
          "name": "_from",
          "type": "address"
        },
        {
          "internalType": "address",
          "name": "_to",
          "type": "address"
        },
        {
          "internalType": "uint256",
          "name": "_tokenId",
          "type": "uint256"
        }
      ],
      "name": "transferFrom",
      "outputs": [],
      "stateMutability": "nonpayable",
      "type": "function"
    },
    {
      "inputs": [
        {
          "internalType": "address",
          "name": "_approved",
          "type": "address"
        },
        {
          "internalType": "uint256",
          "name": "_tokenId",
          "type": "uint256"
        }
      ],
      "name": "approve",
      "outputs": [],
      "stateMutability": "nonpayable",
      "type": "function"
    },
    {
      "inputs": [
        {
          "internalType": "address",
          "name": "_newoperator",
          "type": "address"
        },
        {
          "internalType": "bool",
          "name": "_approved",
          "type": "bool"
        }
      ],
      "name": "setApprovalForAll",
      "outputs": [],
      "stateMutability": "nonpayable",
      "type": "function"
    },
    {
      "inputs": [
        {
          "internalType": "uint256",
          "name": "_tokenId",
          "type": "uint256"
        }
      ],
      "name": "getApproved",
      "outputs": [
        {
          "internalType": "address",
          "name": "",
          "type": "address"
        }
      ],
      "stateMutability": "view",
      "type": "function",
      "constant": true
    },
    {
      "inputs": [
        {
          "internalType": "address",
          "name": "_checkowner",
          "type": "address"
        },
        {
          "internalType": "address",
          "name": "_checkoperator",
          "type": "address"
        }
      ],
      "name": "isApprovedForAll",
      "outputs": [
        {
          "internalType": "bool",
          "name": "",
          "type": "bool"
        }
      ],
      "stateMutability": "view",
      "type": "function",
      "constant": true
    },
    {
      "inputs": [],
      "name": "name",
      "outputs": [
        {
          "internalType": "string",
          "name": "_retname",
          "type": "string"
        }
      ],
      "stateMutability": "pure",
      "type": "function",
      "constant": true
    },
    {
      "inputs": [],
      "name": "symbol",
      "outputs": [
        {
          "internalType": "string",
          "name": "_retsymbol",
          "type": "string"
        }
      ],
      "stateMutability": "pure",
      "type": "function",
      "constant": true
    },
    {
      "inputs": [
        {
          "internalType": "uint256",
          "name": "_tokenId",
          "type": "uint256"
        }
      ],
      "name": "tokenURI",
      "outputs": [
        {
          "internalType": "string",
          "name": "",
          "type": "string"
        }
      ],
      "stateMutability": "view",
      "type": "function",
      "constant": true
    },
    {
      "inputs": [
        {
          "internalType": "uint256",
          "name": "_tokenId",
          "type": "uint256"
        },
        {
          "internalType": "string",
          "name": "newuri",
          "type": "string"
        }
      ],
      "name": "setTokenUri",
      "outputs": [],
      "stateMutability": "nonpayable",
      "type": "function"
    },
    {
      "inputs": [
        {
          "internalType": "bytes4",
          "name": "interfaceID",
          "type": "bytes4"
        }
      ],
      "name": "supportsInterface",
      "outputs": [
        {
          "internalType": "bool",
          "name": "",
          "type": "bool"
        }
      ],
      "stateMutability": "view",
      "type": "function",
      "constant": true
    },
    {
      "inputs": [],
      "name": "totalSupply",
      "outputs": [
        {
          "internalType": "uint256",
          "name": "",
          "type": "uint256"
        }
      ],
      "stateMutability": "view",
      "type": "function",
      "constant": true
    },
    {
      "inputs": [
        {
          "internalType": "uint256",
          "name": "_index",
          "type": "uint256"
        }
      ],
      "name": "tokenByIndex",
      "outputs": [
        {
          "internalType": "uint256",
          "name": "",
          "type": "uint256"
        }
      ],
      "stateMutability": "view",
      "type": "function",
      "constant": true
    },
    {
      "inputs": [
        {
          "internalType": "address",
          "name": "_checkowner",
          "type": "address"
        },
        {
          "internalType": "uint256",
          "name": "_index",
          "type": "uint256"
        }
      ],
      "name": "tokenOfOwnerByIndex",
      "outputs": [
        {
          "internalType": "uint256",
          "name": "",
          "type": "uint256"
        }
      ],
      "stateMutability": "view",
      "type": "function",
      "constant": true
    }
  ],
  "bytecode": "0x6080604052600080553480156200001557600080fd5b5060405162004af038038062004af083398181016040528101906200003b919062000776565b620000bf836000806040518060400160405280600381526020017f45766500000000000000000000000000000000000000000000000000000000008152503386620000918a6200029460201b620022601760201c565b604051602001620000a492919062000828565b6040516020818303038152906040526200040e60201b60201c565b62000143826000806040518060400160405280600481526020017f4164616d00000000000000000000000000000000000000000000000000000000815250338662000115896200029460201b620022601760201c565b6040516020016200012892919062000828565b6040516020818303038152906040526200040e60201b60201c565b6001600b60006380ac58cd60e01b7bffffffffffffffffffffffffffffffffffffffffffffffffffffffff1916815260200190815260200160002060006101000a81548160ff0219169083151502179055506001600b60006301ffc9a760e01b7bffffffffffffffffffffffffffffffffffffffffffffffffffffffff1916815260200190815260200160002060006101000a81548160ff0219169083151502179055506001600b6000635b5e139f60e01b7bffffffffffffffffffffffffffffffffffffffffffffffffffffffff1916815260200190815260200160002060006101000a81548160ff0219169083151502179055506001600b600063780e9d6360e01b7bffffffffffffffffffffffffffffffffffffffffffffffffffffffff1916815260200190815260200160002060006101000a81548160ff02191690831515021790555050505062000bf1565b60606000821415620002de576040518060400160405280600181526020017f3000000000000000000000000000000000000000000000000000000000000000815250905062000409565b600082905060005b6000821462000316578080620002fc9062000a41565b915050600a826200030e919062000922565b9150620002e6565b60008167ffffffffffffffff81111562000335576200033462000b83565b5b6040519080825280601f01601f191660200182016040528015620003685781602001600182028036833780820191505090505b5090505b6000851462000402576001826200038491906200095a565b9150600a8562000395919062000a8f565b6030620003a39190620008c5565b60f81b818381518110620003bc57620003bb62000b54565b5b60200101907effffffffffffffffffffffffffffffffffffffffffffffffffffffffffffff1916908160001a905350600a85620003fa919062000922565b94506200036c565b8093505050505b919050565b600080815480929190620004229062000a41565b919050555084600360008054815260200190815260200160002081905550836004600080548152602001908152602001600020819055508560026000805481526020019081526020016000208190555082600560008054815260200190815260200160002090805190602001906200049c92919062000631565b5081600660008054815260200190815260200160002060006101000a81548173ffffffffffffffffffffffffffffffffffffffff021916908373ffffffffffffffffffffffffffffffffffffffff16021790555080600860008054815260200190815260200160002090805190602001906200051a92919062000631565b50600960008373ffffffffffffffffffffffffffffffffffffffff1673ffffffffffffffffffffffffffffffffffffffff16815260200190815260200160002060005490806001815401808255809150506001900390600052602060002001600090919091909150556001600960008473ffffffffffffffffffffffffffffffffffffffff1673ffffffffffffffffffffffffffffffffffffffff16815260200190815260200160002080549050620005d491906200095a565b600a60008473ffffffffffffffffffffffffffffffffffffffff1673ffffffffffffffffffffffffffffffffffffffff16815260200190815260200160002060008054815260200190815260200160002081905550505050505050565b8280546200063f90620009d5565b90600052602060002090601f016020900481019282620006635760008555620006af565b82601f106200067e57805160ff1916838001178555620006af565b82800160010185558215620006af579182015b82811115620006ae57825182559160200191906001019062000691565b5b509050620006be9190620006c2565b5090565b5b80821115620006dd576000816000905550600101620006c3565b5090565b6000620006f8620006f28462000879565b62000850565b90508281526020810184848401111562000717576200071662000bb7565b5b620007248482856200099f565b509392505050565b600082601f83011262000744576200074362000bb2565b5b815162000756848260208601620006e1565b91505092915050565b600081519050620007708162000bd7565b92915050565b60008060006060848603121562000792576200079162000bc1565b5b6000620007a2868287016200075f565b9350506020620007b5868287016200075f565b925050604084015167ffffffffffffffff811115620007d957620007d862000bbc565b5b620007e7868287016200072c565b9150509250925092565b6000620007fe82620008af565b6200080a8185620008ba565b93506200081c8185602086016200099f565b80840191505092915050565b6000620008368285620007f1565b9150620008448284620007f1565b91508190509392505050565b60006200085c6200086f565b90506200086a828262000a0b565b919050565b6000604051905090565b600067ffffffffffffffff82111562000897576200089662000b83565b5b620008a28262000bc6565b9050602081019050919050565b600081519050919050565b600081905092915050565b6000620008d28262000995565b9150620008df8362000995565b9250827fffffffffffffffffffffffffffffffffffffffffffffffffffffffffffffffff0382111562000917576200091662000ac7565b5b828201905092915050565b60006200092f8262000995565b91506200093c8362000995565b9250826200094f576200094e62000af6565b5b828204905092915050565b6000620009678262000995565b9150620009748362000995565b9250828210156200098a576200098962000ac7565b5b828203905092915050565b6000819050919050565b60005b83811015620009bf578082015181840152602081019050620009a2565b83811115620009cf576000848401525b50505050565b60006002820490506001821680620009ee57607f821691505b6020821081141562000a055762000a0462000b25565b5b50919050565b62000a168262000bc6565b810181811067ffffffffffffffff8211171562000a385762000a3762000b83565b5b80604052505050565b600062000a4e8262000995565b91507fffffffffffffffffffffffffffffffffffffffffffffffffffffffffffffffff82141562000a845762000a8362000ac7565b5b600182019050919050565b600062000a9c8262000995565b915062000aa98362000995565b92508262000abc5762000abb62000af6565b5b828206905092915050565b7f4e487b7100000000000000000000000000000000000000000000000000000000600052601160045260246000fd5b7f4e487b7100000000000000000000000000000000000000000000000000000000600052601260045260246000fd5b7f4e487b7100000000000000000000000000000000000000000000000000000000600052602260045260246000fd5b7f4e487b7100000000000000000000000000000000000000000000000000000000600052603260045260246000fd5b7f4e487b7100000000000000000000000000000000000000000000000000000000600052604160045260246000fd5b600080fd5b600080fd5b600080fd5b600080fd5b6000601f19601f8301169050919050565b62000be28162000995565b811462000bee57600080fd5b50565b613eef8062000c016000396000f3fe608060405234801561001057600080fd5b506004361061014d5760003560e01c806347799da8116100c3578063a22cb4651161007c578063a22cb465146103ea578063af8f66b214610406578063b78c53c214610436578063b88d4fde14610466578063c87b56dd14610482578063e985e9c5146104b25761014d565b806347799da8146103025780634f6ccce71461032057806357f7789e146103505780636352211e1461036c57806370a082311461039c57806395d89b41146103cc5761014d565b8063095ea7b311610115578063095ea7b31461023057806318160ddd1461024c57806323b872dd1461026a5780632f745c591461028657806342842e0e146102b657806347477ad2146102d25761014d565b806301ffc9a714610152578063051a266414610182578063053dcc4f146101b257806306fdde03146101e2578063081812fc14610200575b600080fd5b61016c60048036038101906101679190612f09565b6104e2565b60405161017991906134ab565b60405180910390f35b61019c60048036038101906101979190612f63565b61054a565b6040516101a991906134c6565b60405180910390f35b6101cc60048036038101906101c79190612fec565b610637565b6040516101d991906136e8565b60405180910390f35b6101ea610a58565b6040516101f791906134c6565b60405180910390f35b61021a60048036038101906102159190612f63565b610a95565b60405161022791906133f8565b60405180910390f35b61024a60048036038101906102459190612ec9565b610b1a565b005b610254610d63565b60405161026191906136e8565b60405180910390f35b610284600480360381019061027f9190612dae565b610d6c565b005b6102a0600480360381019061029b9190612ec9565b61107c565b6040516102ad91906136e8565b60405180910390f35b6102d060048036038101906102cb9190612dae565b6111d6565b005b6102ec60048036038101906102e79190612f63565b6116c2565b6040516102f991906136e8565b60405180910390f35b61030a611727565b60405161031791906136e8565b60405180910390f35b61033a60048036038101906103359190612f63565b611730565b60405161034791906136e8565b60405180910390f35b61036a60048036038101906103659190612f90565b611789565b005b61038660048036038101906103819190612f63565b611962565b60405161039391906133f8565b60405180910390f35b6103b660048036038101906103b19190612d41565b61199f565b6040516103c391906136e8565b60405180910390f35b6103d46119eb565b6040516103e191906134c6565b60405180910390f35b61040460048036038101906103ff9190612e89565b611a28565b005b610420600480360381019061041b9190612f63565b611b25565b60405161042d91906136e8565b60405180910390f35b610450600480360381019061044b9190612f63565b611b8a565b60405161045d91906136e8565b60405180910390f35b610480600480360381019061047b9190612e01565b611bef565b005b61049c60048036038101906104979190612f63565b6120df565b6040516104a991906134c6565b60405180910390f35b6104cc60048036038101906104c79190612d6e565b6121cc565b6040516104d991906134ab565b60405180910390f35b6000600b6000837bffffffffffffffffffffffffffffffffffffffffffffffffffffffff19167bffffffffffffffffffffffffffffffffffffffffffffffffffffffff1916815260200190815260200160002060009054906101000a900460ff169050919050565b6060610555826123c1565b610594576040517f08c379a000000000000000000000000000000000000000000000000000000000815260040161058b90613668565b60405180910390fd5b6005600083815260200190815260200160002080546105b290613902565b80601f01602080910402602001604051908101604052809291908181526020018280546105de90613902565b801561062b5780601f106106005761010080835404028352916020019161062b565b820191906000526020600020905b81548152906001019060200180831161060e57829003601f168201915b50505050509050919050565b60008385141561067c576040517f08c379a000000000000000000000000000000000000000000000000000000000815260040161067390613648565b60405180910390fd5b3373ffffffffffffffffffffffffffffffffffffffff166006600087815260200190815260200160002060009054906101000a900473ffffffffffffffffffffffffffffffffffffffff1673ffffffffffffffffffffffffffffffffffffffff1614806107a9575060011515600160006006600089815260200190815260200160002060009054906101000a900473ffffffffffffffffffffffffffffffffffffffff1673ffffffffffffffffffffffffffffffffffffffff1673ffffffffffffffffffffffffffffffffffffffff16815260200190815260200160002060003373ffffffffffffffffffffffffffffffffffffffff1673ffffffffffffffffffffffffffffffffffffffff16815260200190815260200160002060009054906101000a900460ff161515145b6107e8576040517f08c379a00000000000000000000000000000000000000000000000000000000081526004016107df90613628565b60405180910390fd5b3373ffffffffffffffffffffffffffffffffffffffff166006600086815260200190815260200160002060009054906101000a900473ffffffffffffffffffffffffffffffffffffffff1673ffffffffffffffffffffffffffffffffffffffff161480610915575060011515600160006006600088815260200190815260200160002060009054906101000a900473ffffffffffffffffffffffffffffffffffffffff1673ffffffffffffffffffffffffffffffffffffffff1673ffffffffffffffffffffffffffffffffffffffff16815260200190815260200160002060003373ffffffffffffffffffffffffffffffffffffffff1673ffffffffffffffffffffffffffffffffffffffff16815260200190815260200160002060009054906101000a900460ff161515145b610954576040517f08c379a000000000000000000000000000000000000000000000000000000000815260040161094b90613548565b60405180910390fd5b60004360405160200161096791906133dd565b6040516020818303038152906040528051906020012060001c90506000816002600088815260200190815260200160002054600260008a815260200190815260200160002054181660026000898152602001908152602001600020547fffffffffffffffffffffffffffffffffffffffffffffffffffffffffffffffff600260008a815260200190815260200160002054600260008c815260200190815260200160002054181816179050610a49818888883389610a2488612260565b604051602001610a359291906133b9565b6040516020818303038152906040526123ec565b60005492505050949350505050565b60606040518060400160405280600781526020017f416e696d616c7300000000000000000000000000000000000000000000000000815250905090565b6000610aa0826123c1565b610adf576040517f08c379a0000000000000000000000000000000000000000000000000000000008152600401610ad6906136a8565b60405180910390fd5b6007600083815260200190815260200160002060009054906101000a900473ffffffffffffffffffffffffffffffffffffffff169050919050565b3373ffffffffffffffffffffffffffffffffffffffff166006600083815260200190815260200160002060009054906101000a900473ffffffffffffffffffffffffffffffffffffffff1673ffffffffffffffffffffffffffffffffffffffff161480610c405750600160006006600084815260200190815260200160002060009054906101000a900473ffffffffffffffffffffffffffffffffffffffff1673ffffffffffffffffffffffffffffffffffffffff1673ffffffffffffffffffffffffffffffffffffffff16815260200190815260200160002060003373ffffffffffffffffffffffffffffffffffffffff1673ffffffffffffffffffffffffffffffffffffffff16815260200190815260200160002060009054906101000a900460ff165b610c7f576040517f08c379a0000000000000000000000000000000000000000000000000000000008152600401610c76906135a8565b60405180910390fd5b816007600083815260200190815260200160002060006101000a81548173ffffffffffffffffffffffffffffffffffffffff021916908373ffffffffffffffffffffffffffffffffffffffff160217905550808273ffffffffffffffffffffffffffffffffffffffff166006600084815260200190815260200160002060009054906101000a900473ffffffffffffffffffffffffffffffffffffffff1673ffffffffffffffffffffffffffffffffffffffff167f8c5be1e5ebec7d5bd14f71427d1e84f3dd0314c0f7b2291e5b200ac8c7c3b92560405160405180910390a45050565b60008054905090565b8273ffffffffffffffffffffffffffffffffffffffff166006600083815260200190815260200160002060009054906101000a900473ffffffffffffffffffffffffffffffffffffffff1673ffffffffffffffffffffffffffffffffffffffff1614610e0d576040517f08c379a0000000000000000000000000000000000000000000000000000000008152600401610e04906134e8565b60405180910390fd5b3373ffffffffffffffffffffffffffffffffffffffff166006600083815260200190815260200160002060009054906101000a900473ffffffffffffffffffffffffffffffffffffffff1673ffffffffffffffffffffffffffffffffffffffff161480610ed857503373ffffffffffffffffffffffffffffffffffffffff166007600083815260200190815260200160002060009054906101000a900473ffffffffffffffffffffffffffffffffffffffff1673ffffffffffffffffffffffffffffffffffffffff16145b610f17576040517f08c379a0000000000000000000000000000000000000000000000000000000008152600401610f0e906134e8565b60405180910390fd5b600073ffffffffffffffffffffffffffffffffffffffff168273ffffffffffffffffffffffffffffffffffffffff1614158015610f815750600073ffffffffffffffffffffffffffffffffffffffff168373ffffffffffffffffffffffffffffffffffffffff1614155b610fc0576040517f08c379a0000000000000000000000000000000000000000000000000000000008152600401610fb7906135e8565b60405180910390fd5b6000548111158015610fd25750600081115b611011576040517f08c379a000000000000000000000000000000000000000000000000000000000815260040161100890613568565b60405180910390fd5b61101c838383612607565b808273ffffffffffffffffffffffffffffffffffffffff168473ffffffffffffffffffffffffffffffffffffffff167fddf252ad1be2c89b69c2b068fc378daa952ba7f163c4a11628f55a4df523b3ef60405160405180910390a4505050565b600081600960008573ffffffffffffffffffffffffffffffffffffffff1673ffffffffffffffffffffffffffffffffffffffff1681526020019081526020016000208054905011611102576040517f08c379a00000000000000000000000000000000000000000000000000000000081526004016110f990613588565b60405180910390fd5b600073ffffffffffffffffffffffffffffffffffffffff168373ffffffffffffffffffffffffffffffffffffffff161415611172576040517f08c379a0000000000000000000000000000000000000000000000000000000008152600401611169906135c8565b60405180910390fd5b600960008473ffffffffffffffffffffffffffffffffffffffff1673ffffffffffffffffffffffffffffffffffffffff16815260200190815260200160002082815481106111c3576111c2613aa5565b5b9060005260206000200154905092915050565b6006600082815260200190815260200160002060009054906101000a900473ffffffffffffffffffffffffffffffffffffffff1673ffffffffffffffffffffffffffffffffffffffff163373ffffffffffffffffffffffffffffffffffffffff1614806112d0575060011515600160008573ffffffffffffffffffffffffffffffffffffffff1673ffffffffffffffffffffffffffffffffffffffff16815260200190815260200160002060003373ffffffffffffffffffffffffffffffffffffffff1673ffffffffffffffffffffffffffffffffffffffff16815260200190815260200160002060009054906101000a900460ff161515145b8061133957506006600082815260200190815260200160002060009054906101000a900473ffffffffffffffffffffffffffffffffffffffff1673ffffffffffffffffffffffffffffffffffffffff163373ffffffffffffffffffffffffffffffffffffffff16145b611378576040517f08c379a000000000000000000000000000000000000000000000000000000000815260040161136f90613508565b60405180910390fd5b6006600082815260200190815260200160002060009054906101000a900473ffffffffffffffffffffffffffffffffffffffff1673ffffffffffffffffffffffffffffffffffffffff168373ffffffffffffffffffffffffffffffffffffffff1614611419576040517f08c379a000000000000000000000000000000000000000000000000000000000815260040161141090613528565b60405180910390fd5b600073ffffffffffffffffffffffffffffffffffffffff168273ffffffffffffffffffffffffffffffffffffffff16141580156114835750600073ffffffffffffffffffffffffffffffffffffffff168373ffffffffffffffffffffffffffffffffffffffff1614155b6114c2576040517f08c379a00000000000000000000000000000000000000000000000000000000081526004016114b990613608565b60405180910390fd5b60005481111580156114d45750600081115b611513576040517f08c379a000000000000000000000000000000000000000000000000000000000815260040161150a90613568565b60405180910390fd5b61151e838383612607565b6000807fc5d2460186f7233c927e7db2dcc703c0e500b653ca82273b7bfad8045d85a47060001b9050833f91506000801b821415801561155e5750808214155b156116605760008473ffffffffffffffffffffffffffffffffffffffff1663150b7a023388876040518463ffffffff1660e01b81526004016115a293929190613461565b602060405180830381600087803b1580156115bc57600080fd5b505af11580156115d0573d6000803e3d6000fd5b505050506040513d601f19601f820116820180604052508101906115f49190612f36565b905063150b7a0260e01b817bffffffffffffffffffffffffffffffffffffffffffffffffffffffff19161461165e576040517f08c379a0000000000000000000000000000000000000000000000000000000008152600401611655906136c8565b60405180910390fd5b505b828473ffffffffffffffffffffffffffffffffffffffff168673ffffffffffffffffffffffffffffffffffffffff167fddf252ad1be2c89b69c2b068fc378daa952ba7f163c4a11628f55a4df523b3ef60405160405180910390a45050505050565b60006116cd826123c1565b61170c576040517f08c379a000000000000000000000000000000000000000000000000000000000815260040161170390613668565b60405180910390fd5b60026000838152602001908152602001600020549050919050565b60008054905090565b600080548210611775576040517f08c379a000000000000000000000000000000000000000000000000000000000815260040161176c90613688565b60405180910390fd5b6001826117829190613791565b9050919050565b611792826123c1565b6117d1576040517f08c379a00000000000000000000000000000000000000000000000000000000081526004016117c890613568565b60405180910390fd5b3373ffffffffffffffffffffffffffffffffffffffff166006600084815260200190815260200160002060009054906101000a900473ffffffffffffffffffffffffffffffffffffffff1673ffffffffffffffffffffffffffffffffffffffff1614806118f75750600160006006600085815260200190815260200160002060009054906101000a900473ffffffffffffffffffffffffffffffffffffffff1673ffffffffffffffffffffffffffffffffffffffff1673ffffffffffffffffffffffffffffffffffffffff16815260200190815260200160002060003373ffffffffffffffffffffffffffffffffffffffff1673ffffffffffffffffffffffffffffffffffffffff16815260200190815260200160002060009054906101000a900460ff165b611936576040517f08c379a000000000000000000000000000000000000000000000000000000000815260040161192d906135a8565b60405180910390fd5b8060086000848152602001908152602001600020908051906020019061195d929190612b6f565b505050565b60006006600083815260200190815260200160002060009054906101000a900473ffffffffffffffffffffffffffffffffffffffff169050919050565b6000600960008373ffffffffffffffffffffffffffffffffffffffff1673ffffffffffffffffffffffffffffffffffffffff168152602001908152602001600020805490509050919050565b60606040518060400160405280600581526020017f414e4d4c53000000000000000000000000000000000000000000000000000000815250905090565b80600160003373ffffffffffffffffffffffffffffffffffffffff1673ffffffffffffffffffffffffffffffffffffffff16815260200190815260200160002060008473ffffffffffffffffffffffffffffffffffffffff1673ffffffffffffffffffffffffffffffffffffffff16815260200190815260200160002060006101000a81548160ff0219169083151502179055508173ffffffffffffffffffffffffffffffffffffffff163373ffffffffffffffffffffffffffffffffffffffff167f17307eab39ab6107e8899845ad3d59bd9653f200f220920489ca2b5937696c3183604051611b1991906134ab565b60405180910390a35050565b6000611b30826123c1565b611b6f576040517f08c379a0000000000000000000000000000000000000000000000000000000008152600401611b6690613668565b60405180910390fd5b60046000838152602001908152602001600020549050919050565b6000611b95826123c1565b611bd4576040517f08c379a0000000000000000000000000000000000000000000000000000000008152600401611bcb90613668565b60405180910390fd5b60036000838152602001908152602001600020549050919050565b6006600084815260200190815260200160002060009054906101000a900473ffffffffffffffffffffffffffffffffffffffff1673ffffffffffffffffffffffffffffffffffffffff163373ffffffffffffffffffffffffffffffffffffffff161480611ce9575060011515600160008773ffffffffffffffffffffffffffffffffffffffff1673ffffffffffffffffffffffffffffffffffffffff16815260200190815260200160002060003373ffffffffffffffffffffffffffffffffffffffff1673ffffffffffffffffffffffffffffffffffffffff16815260200190815260200160002060009054906101000a900460ff161515145b80611d5257506006600084815260200190815260200160002060009054906101000a900473ffffffffffffffffffffffffffffffffffffffff1673ffffffffffffffffffffffffffffffffffffffff163373ffffffffffffffffffffffffffffffffffffffff16145b611d91576040517f08c379a0000000000000000000000000000000000000000000000000000000008152600401611d8890613508565b60405180910390fd5b6006600084815260200190815260200160002060009054906101000a900473ffffffffffffffffffffffffffffffffffffffff1673ffffffffffffffffffffffffffffffffffffffff168573ffffffffffffffffffffffffffffffffffffffff1614611e32576040517f08c379a0000000000000000000000000000000000000000000000000000000008152600401611e2990613528565b60405180910390fd5b600073ffffffffffffffffffffffffffffffffffffffff168473ffffffffffffffffffffffffffffffffffffffff16148015611e9a5750600073ffffffffffffffffffffffffffffffffffffffff168573ffffffffffffffffffffffffffffffffffffffff16145b611ed9576040517f08c379a0000000000000000000000000000000000000000000000000000000008152600401611ed090613608565b60405180910390fd5b6000548311158015611eeb5750600083115b611f2a576040517f08c379a0000000000000000000000000000000000000000000000000000000008152600401611f2190613568565b60405180910390fd5b611f35858585612607565b6000807fc5d2460186f7233c927e7db2dcc703c0e500b653ca82273b7bfad8045d85a47060001b9050853f91506000801b8214158015611f755750808214155b1561207b5760008673ffffffffffffffffffffffffffffffffffffffff1663150b7a02338a8989896040518663ffffffff1660e01b8152600401611fbd959493929190613413565b602060405180830381600087803b158015611fd757600080fd5b505af1158015611feb573d6000803e3d6000fd5b505050506040513d601f19601f8201168201806040525081019061200f9190612f36565b905063150b7a0260e01b817bffffffffffffffffffffffffffffffffffffffffffffffffffffffff191614612079576040517f08c379a0000000000000000000000000000000000000000000000000000000008152600401612070906136c8565b60405180910390fd5b505b848673ffffffffffffffffffffffffffffffffffffffff168873ffffffffffffffffffffffffffffffffffffffff167fddf252ad1be2c89b69c2b068fc378daa952ba7f163c4a11628f55a4df523b3ef60405160405180910390a450505050505050565b60606120ea826123c1565b612129576040517f08c379a000000000000000000000000000000000000000000000000000000000815260040161212090613568565b60405180910390fd5b60086000838152602001908152602001600020805461214790613902565b80601f016020809104026020016040519081016040528092919081815260200182805461217390613902565b80156121c05780601f10612195576101008083540402835291602001916121c0565b820191906000526020600020905b8154815290600101906020018083116121a357829003601f168201915b50505050509050919050565b6000600160008473ffffffffffffffffffffffffffffffffffffffff1673ffffffffffffffffffffffffffffffffffffffff16815260200190815260200160002060008373ffffffffffffffffffffffffffffffffffffffff1673ffffffffffffffffffffffffffffffffffffffff16815260200190815260200160002060009054906101000a900460ff16905092915050565b606060008214156122a8576040518060400160405280600181526020017f300000000000000000000000000000000000000000000000000000000000000081525090506123bc565b600082905060005b600082146122da5780806122c390613965565b915050600a826122d391906137e7565b91506122b0565b60008167ffffffffffffffff8111156122f6576122f5613ad4565b5b6040519080825280601f01601f1916602001820160405280156123285781602001600182028036833780820191505090505b5090505b600085146123b5576001826123419190613818565b9150600a8561235091906139b8565b603061235c9190613791565b60f81b81838151811061237257612371613aa5565b5b60200101907effffffffffffffffffffffffffffffffffffffffffffffffffffffffffffff1916908160001a905350600a856123ae91906137e7565b945061232c565b8093505050505b919050565b600080821180156123d457506000548211155b156123e257600190506123e7565b600090505b919050565b6000808154809291906123fe90613965565b91905055508460036000805481526020019081526020016000208190555083600460008054815260200190815260200160002081905550856002600080548152602001908152602001600020819055508260056000805481526020019081526020016000209080519060200190612476929190612b6f565b5081600660008054815260200190815260200160002060006101000a81548173ffffffffffffffffffffffffffffffffffffffff021916908373ffffffffffffffffffffffffffffffffffffffff16021790555080600860008054815260200190815260200160002090805190602001906124f2929190612b6f565b50600960008373ffffffffffffffffffffffffffffffffffffffff1673ffffffffffffffffffffffffffffffffffffffff16815260200190815260200160002060005490806001815401808255809150506001900390600052602060002001600090919091909150556001600960008473ffffffffffffffffffffffffffffffffffffffff1673ffffffffffffffffffffffffffffffffffffffff168152602001908152602001600020805490506125aa9190613818565b600a60008473ffffffffffffffffffffffffffffffffffffffff1673ffffffffffffffffffffffffffffffffffffffff16815260200190815260200160002060008054815260200190815260200160002081905550505050505050565b600073ffffffffffffffffffffffffffffffffffffffff168273ffffffffffffffffffffffffffffffffffffffff16141580156126715750600073ffffffffffffffffffffffffffffffffffffffff168373ffffffffffffffffffffffffffffffffffffffff1614155b6126b0576040517f08c379a00000000000000000000000000000000000000000000000000000000081526004016126a790613608565b60405180910390fd5b816006600083815260200190815260200160002060006101000a81548173ffffffffffffffffffffffffffffffffffffffff021916908373ffffffffffffffffffffffffffffffffffffffff16021790555060006007600083815260200190815260200160002060006101000a81548173ffffffffffffffffffffffffffffffffffffffff021916908373ffffffffffffffffffffffffffffffffffffffff160217905550600960008373ffffffffffffffffffffffffffffffffffffffff1673ffffffffffffffffffffffffffffffffffffffff1681526020019081526020016000208190806001815401808255809150506001900390600052602060002001600090919091909150556001600960008473ffffffffffffffffffffffffffffffffffffffff1673ffffffffffffffffffffffffffffffffffffffff1681526020019081526020016000208054905061280a9190613818565b600a60008473ffffffffffffffffffffffffffffffffffffffff1673ffffffffffffffffffffffffffffffffffffffff168152602001908152602001600020600083815260200190815260200160002081905550600960008473ffffffffffffffffffffffffffffffffffffffff1673ffffffffffffffffffffffffffffffffffffffff1681526020019081526020016000206001600960008673ffffffffffffffffffffffffffffffffffffffff1673ffffffffffffffffffffffffffffffffffffffff168152602001908152602001600020805490506128ec9190613818565b815481106128fd576128fc613aa5565b5b9060005260206000200154600960008573ffffffffffffffffffffffffffffffffffffffff1673ffffffffffffffffffffffffffffffffffffffff168152602001908152602001600020600a60008673ffffffffffffffffffffffffffffffffffffffff1673ffffffffffffffffffffffffffffffffffffffff168152602001908152602001600020600084815260200190815260200160002054815481106129a9576129a8613aa5565b5b9060005260206000200181905550600a60008473ffffffffffffffffffffffffffffffffffffffff1673ffffffffffffffffffffffffffffffffffffffff168152602001908152602001600020600082815260200190815260200160002054600a60008573ffffffffffffffffffffffffffffffffffffffff1673ffffffffffffffffffffffffffffffffffffffff1681526020019081526020016000206000600960008773ffffffffffffffffffffffffffffffffffffffff1673ffffffffffffffffffffffffffffffffffffffff1681526020019081526020016000206001600960008973ffffffffffffffffffffffffffffffffffffffff1673ffffffffffffffffffffffffffffffffffffffff16815260200190815260200160002080549050612ad79190613818565b81548110612ae857612ae7613aa5565b5b9060005260206000200154815260200190815260200160002081905550600960008473ffffffffffffffffffffffffffffffffffffffff1673ffffffffffffffffffffffffffffffffffffffff168152602001908152602001600020805480612b5457612b53613a76565b5b60019003818190600052602060002001600090559055505050565b828054612b7b90613902565b90600052602060002090601f016020900481019282612b9d5760008555612be4565b82601f10612bb657805160ff1916838001178555612be4565b82800160010185558215612be4579182015b82811115612be3578251825591602001919060010190612bc8565b5b509050612bf19190612bf5565b5090565b5b80821115612c0e576000816000905550600101612bf6565b5090565b6000612c25612c2084613728565b613703565b905082815260208101848484011115612c4157612c40613b12565b5b612c4c8482856138c0565b509392505050565b600081359050612c6381613e5d565b92915050565b600081359050612c7881613e74565b92915050565b600081359050612c8d81613e8b565b92915050565b600081519050612ca281613e8b565b92915050565b60008083601f840112612cbe57612cbd613b08565b5b8235905067ffffffffffffffff811115612cdb57612cda613b03565b5b602083019150836001820283011115612cf757612cf6613b0d565b5b9250929050565b600082601f830112612d1357612d12613b08565b5b8135612d23848260208601612c12565b91505092915050565b600081359050612d3b81613ea2565b92915050565b600060208284031215612d5757612d56613b1c565b5b6000612d6584828501612c54565b91505092915050565b60008060408385031215612d8557612d84613b1c565b5b6000612d9385828601612c54565b9250506020612da485828601612c54565b9150509250929050565b600080600060608486031215612dc757612dc6613b1c565b5b6000612dd586828701612c54565b9350506020612de686828701612c54565b9250506040612df786828701612d2c565b9150509250925092565b600080600080600060808688031215612e1d57612e1c613b1c565b5b6000612e2b88828901612c54565b9550506020612e3c88828901612c54565b9450506040612e4d88828901612d2c565b935050606086013567ffffffffffffffff811115612e6e57612e6d613b17565b5b612e7a88828901612ca8565b92509250509295509295909350565b60008060408385031215612ea057612e9f613b1c565b5b6000612eae85828601612c54565b9250506020612ebf85828601612c69565b9150509250929050565b60008060408385031215612ee057612edf613b1c565b5b6000612eee85828601612c54565b9250506020612eff85828601612d2c565b9150509250929050565b600060208284031215612f1f57612f1e613b1c565b5b6000612f2d84828501612c7e565b91505092915050565b600060208284031215612f4c57612f4b613b1c565b5b6000612f5a84828501612c93565b91505092915050565b600060208284031215612f7957612f78613b1c565b5b6000612f8784828501612d2c565b91505092915050565b60008060408385031215612fa757612fa6613b1c565b5b6000612fb585828601612d2c565b925050602083013567ffffffffffffffff811115612fd657612fd5613b17565b5b612fe285828601612cfe565b9150509250929050565b6000806000806080858703121561300657613005613b1c565b5b600061301487828801612d2c565b945050602061302587828801612d2c565b935050604085013567ffffffffffffffff81111561304657613045613b17565b5b61305287828801612cfe565b925050606085013567ffffffffffffffff81111561307357613072613b17565b5b61307f87828801612cfe565b91505092959194509250565b6130948161384c565b82525050565b6130a38161385e565b82525050565b60006130b58385613764565b93506130c28385846138c0565b6130cb83613b21565b840190509392505050565b60006130e182613759565b6130eb8185613775565b93506130fb8185602086016138cf565b61310481613b21565b840191505092915050565b600061311a82613759565b6131248185613786565b93506131348185602086016138cf565b80840191505092915050565b600061314d601683613775565b915061315882613b32565b602082019050919050565b6000613170601683613775565b915061317b82613b5b565b602082019050919050565b6000613193600e83613775565b915061319e82613b84565b602082019050919050565b60006131b6603e83613775565b91506131c182613bad565b604082019050919050565b60006131d9600f83613775565b91506131e482613bfc565b602082019050919050565b60006131fc602583613775565b915061320782613c25565b604082019050919050565b600061321f602a83613775565b915061322a82613c74565b604082019050919050565b6000613242601583613775565b915061324d82613cc3565b602082019050919050565b6000613265601b83613775565b915061327082613cec565b602082019050919050565b6000613288602083613775565b915061329382613d15565b602082019050919050565b60006132ab603d83613775565b91506132b682613d3e565b604082019050919050565b60006132ce600083613764565b91506132d982613d8d565b600082019050919050565b60006132f1601c83613775565b91506132fc82613d90565b602082019050919050565b6000613314601283613775565b915061331f82613db9565b602082019050919050565b6000613337601183613775565b915061334282613de2565b602082019050919050565b600061335a601083613775565b915061336582613e0b565b602082019050919050565b600061337d601383613775565b915061338882613e34565b602082019050919050565b61339c816138b6565b82525050565b6133b36133ae826138b6565b6139ae565b82525050565b60006133c5828561310f565b91506133d1828461310f565b91508190509392505050565b60006133e982846133a2565b60208201915081905092915050565b600060208201905061340d600083018461308b565b92915050565b6000608082019050613428600083018861308b565b613435602083018761308b565b6134426040830186613393565b81810360608301526134558184866130a9565b90509695505050505050565b6000608082019050613476600083018661308b565b613483602083018561308b565b6134906040830184613393565b81810360608301526134a1816132c1565b9050949350505050565b60006020820190506134c0600083018461309a565b92915050565b600060208201905081810360008301526134e081846130d6565b905092915050565b6000602082019050818103600083015261350181613140565b9050919050565b6000602082019050818103600083015261352181613163565b9050919050565b6000602082019050818103600083015261354181613186565b9050919050565b60006020820190508181036000830152613561816131a9565b9050919050565b60006020820190508181036000830152613581816131cc565b9050919050565b600060208201905081810360008301526135a1816131ef565b9050919050565b600060208201905081810360008301526135c181613212565b9050919050565b600060208201905081810360008301526135e181613235565b9050919050565b6000602082019050818103600083015261360181613258565b9050919050565b600060208201905081810360008301526136218161327b565b9050919050565b600060208201905081810360008301526136418161329e565b9050919050565b60006020820190508181036000830152613661816132e4565b9050919050565b6000602082019050818103600083015261368181613307565b9050919050565b600060208201905081810360008301526136a18161332a565b9050919050565b600060208201905081810360008301526136c18161334d565b9050919050565b600060208201905081810360008301526136e181613370565b9050919050565b60006020820190506136fd6000830184613393565b92915050565b600061370d61371e565b90506137198282613934565b919050565b6000604051905090565b600067ffffffffffffffff82111561374357613742613ad4565b5b61374c82613b21565b9050602081019050919050565b600081519050919050565b600082825260208201905092915050565b600082825260208201905092915050565b600081905092915050565b600061379c826138b6565b91506137a7836138b6565b9250827fffffffffffffffffffffffffffffffffffffffffffffffffffffffffffffffff038211156137dc576137db6139e9565b5b828201905092915050565b60006137f2826138b6565b91506137fd836138b6565b92508261380d5761380c613a18565b5b828204905092915050565b6000613823826138b6565b915061382e836138b6565b925082821015613841576138406139e9565b5b828203905092915050565b600061385782613896565b9050919050565b60008115159050919050565b60007fffffffff0000000000000000000000000000000000000000000000000000000082169050919050565b600073ffffffffffffffffffffffffffffffffffffffff82169050919050565b6000819050919050565b82818337600083830152505050565b60005b838110156138ed5780820151818401526020810190506138d2565b838111156138fc576000848401525b50505050565b6000600282049050600182168061391a57607f821691505b6020821081141561392e5761392d613a47565b5b50919050565b61393d82613b21565b810181811067ffffffffffffffff8211171561395c5761395b613ad4565b5b80604052505050565b6000613970826138b6565b91507fffffffffffffffffffffffffffffffffffffffffffffffffffffffffffffffff8214156139a3576139a26139e9565b5b600182019050919050565b6000819050919050565b60006139c3826138b6565b91506139ce836138b6565b9250826139de576139dd613a18565b5b828206905092915050565b7f4e487b7100000000000000000000000000000000000000000000000000000000600052601160045260246000fd5b7f4e487b7100000000000000000000000000000000000000000000000000000000600052601260045260246000fd5b7f4e487b7100000000000000000000000000000000000000000000000000000000600052602260045260246000fd5b7f4e487b7100000000000000000000000000000000000000000000000000000000600052603160045260246000fd5b7f4e487b7100000000000000000000000000000000000000000000000000000000600052603260045260246000fd5b7f4e487b7100000000000000000000000000000000000000000000000000000000600052604160045260246000fd5b600080fd5b600080fd5b600080fd5b600080fd5b600080fd5b600080fd5b6000601f19601f8301169050919050565b7f596f7520617265206e6f7420746865206f776e65722100000000000000000000600082015250565b7f53656e646572206e6f7420617574686f72697a65642100000000000000000000600082015250565b7f4e6f7420746865204f776e657221000000000000000000000000000000000000600082015250565b7f4e6f7420746865206f776e65722c206e6f7220746865206f70657261746f722060008201527f6f6620746865206f776e6572206f66207365636f6e6420506172656e74210000602082015250565b7f4e6f7420612076616c6964204e46540000000000000000000000000000000000600082015250565b7f4164647265737320646f6573206e6f74206f776e2074686174206d616e79205460008201527f6f6b656e73000000000000000000000000000000000000000000000000000000602082015250565b7f4e65697468657220746865206f776e65722c206e6f72206120617070726f766560008201527f64204f70657261746f7200000000000000000000000000000000000000000000602082015250565b7f476976656e2041646472657373206973207a65726f0000000000000000000000600082015250565b7f43616e6e6f742073656e6420746f207a65726f20616464726573730000000000600082015250565b7f43616e6e6f74207472616e7366657220746f205a65726f204164647265737321600082015250565b7f4e6f7420746865206f776e65722c206e6f7220746865206f70657261746f722060008201527f6f6620746865206f776e6572206f6620666972737420506172656e7421000000602082015250565b50565b7f4e6565642074776f20696e646976696475616c20506172656e74732100000000600082015250565b7f4e6f7420612076616c696420546f6b656e210000000000000000000000000000600082015250565b7f496e64657820697320746f6f2068696768000000000000000000000000000000600082015250565b7f4e6f7420612076616c6964204e46542100000000000000000000000000000000600082015250565b7f43616e206e6f742072656365697665204e465400000000000000000000000000600082015250565b613e668161384c565b8114613e7157600080fd5b50565b613e7d8161385e565b8114613e8857600080fd5b50565b613e948161386a565b8114613e9f57600080fd5b50565b613eab816138b6565b8114613eb657600080fd5b5056fea26469706673582212207fc291c45a69ca2367465c0f0561bf949fc25d5d7d84ebe20ecc71a514b0b19264736f6c63430008060033",
  "immutableReferences": {},
  "source": "// SPDX-License-Identifier: MIT\r\npragma solidity ^0.8.1;\r\n\r\nimport \"./Interfaces.sol\";\r\nimport \"@openzeppelin/contracts/utils/Strings.sol\";\r\n\r\n\r\ncontract ANMLS is ERC721, ERC165, ERC721Metadata, ERC721Enumerable {\r\n    uint256 private _tokenIds = 0;\r\n    mapping(address => mapping(address => bool)) private _operator;\r\n\r\n    mapping(uint256 => uint256) private _genes;\r\n    mapping(uint256 => uint256) private _parent1;\r\n    mapping(uint256 => uint256) private _parent2;\r\n    mapping(uint256 => string) private _name;\r\n    mapping(uint256 => address) private _owner;\r\n    mapping(uint256 => address) private _approvedAddress;\r\n    mapping(uint256 => string) private _uri;\r\n    mapping(address => uint256[]) private _enumOwner;\r\n    mapping(address => mapping(uint256 => uint256)) private _enumOwnerIndex;\r\n    mapping(bytes4 => bool) private _supportedInterfaces;\r\n\r\n    /// @notice Constructor creates Parents with specified Genes\r\n    /// @param GenesParent1 Specify Genes of first Parent\r\n    /// @param GenesParent2 Specify Genes of second Parent\r\n    constructor(\r\n        uint256 GenesParent1,\r\n        uint256 GenesParent2,\r\n        string memory base\r\n    ) {\r\n        _addAnimal(GenesParent1, 0, 0, \"Eve\", msg.sender, string(abi.encodePacked(base, Strings.toString(GenesParent1))));\r\n        _addAnimal(GenesParent2, 0, 0, \"Adam\", msg.sender, string(abi.encodePacked(base, Strings.toString(GenesParent2))));\r\n        _supportedInterfaces[0x80ac58cd] = true;\r\n        _supportedInterfaces[0x01ffc9a7] = true;\r\n        _supportedInterfaces[0x5b5e139f] = true;\r\n        _supportedInterfaces[0x780e9d63] = true;\r\n    }\r\n\r\n    function _addAnimal(\r\n        uint256 Genes,\r\n        uint256 Parent1,\r\n        uint256 Parent2,\r\n        string memory Name,\r\n        address firstOwner,\r\n        string memory uri\r\n    ) private {\r\n        _tokenIds++;\r\n        _parent1[_tokenIds] = Parent1;\r\n        _parent2[_tokenIds] = Parent2;\r\n        _genes[_tokenIds] = Genes;\r\n        _name[_tokenIds] = Name;\r\n        _owner[_tokenIds] = firstOwner;\r\n        _uri[_tokenIds] = uri;\r\n        _enumOwner[firstOwner].push(_tokenIds);\r\n        _enumOwnerIndex[firstOwner][_tokenIds] =\r\n            _enumOwner[firstOwner].length -\r\n            1;\r\n    }\r\n\r\n    function _transfer(\r\n        address _from,\r\n        address _to,\r\n        uint256 _tokenId\r\n    ) private {\r\n        require(\r\n            _to != address(0) && _from != address(0),\r\n            \"Cannot transfer to Zero Address!\"\r\n        );\r\n        _owner[_tokenId] = _to;\r\n        _approvedAddress[_tokenId] = address(0);\r\n        _enumOwner[_to].push(_tokenId);\r\n        _enumOwnerIndex[_to][_tokenId] = _enumOwner[_to].length - 1;\r\n\r\n        _enumOwner[_from][_enumOwnerIndex[_from][_tokenId]] = _enumOwner[_from][\r\n            _enumOwner[_from].length - 1\r\n        ];\r\n\r\n        _enumOwnerIndex[_from][\r\n            _enumOwner[_from][_enumOwner[_from].length - 1]\r\n        ] = _enumOwnerIndex[_from][_tokenId];\r\n\r\n        _enumOwner[_from].pop();\r\n    }\r\n\r\n    // ----------------------- Begin Breading Functionality ------------------------------\r\n\r\n    /// @notice Bread Child from two Parents\r\n    /// @param Parent1 First Parent used for Breading\r\n    /// @param Parent2 Second Parent used for Breading\r\n    /// @return tokenId of Child\r\n    function breed(\r\n        uint256 Parent1,\r\n        uint256 Parent2,\r\n        string memory childName,\r\n        string memory base\r\n    ) public returns (uint256) {\r\n        require(Parent1 != Parent2, \"Need two individual Parents!\");\r\n        require(\r\n            _owner[Parent1] == msg.sender ||\r\n                _operator[_owner[Parent1]][msg.sender] == true,\r\n            \"Not the owner, nor the operator of the owner of first Parent!\"\r\n        );\r\n        require(\r\n            _owner[Parent2] == msg.sender ||\r\n                _operator[_owner[Parent2]][msg.sender] == true,\r\n            \"Not the owner, nor the operator of the owner of second Parent!\"\r\n        );\r\n\r\n        uint256 seed = uint256(keccak256(abi.encodePacked(block.number)));\r\n        uint256 childGene = (((_genes[Parent1] ^ _genes[Parent2]) ^\r\n            0xffffffffffffffffffffffffffffffffffffffffffffffffffffffffffffffff) &\r\n            _genes[Parent1]) | ((_genes[Parent1] ^ _genes[Parent2]) & seed);\r\n\r\n        _addAnimal(childGene, Parent1, Parent2, childName, msg.sender, string(abi.encodePacked(base, Strings.toString(childGene))));\r\n        return _tokenIds;\r\n    }\r\n\r\n    function _isValidToken(uint256 _tokenId) private view returns (bool) {\r\n        if (_tokenId > 0 && _tokenId <= _tokenIds) return true;\r\n        return false;\r\n    }\r\n\r\n    // ----------------------- End Breading Functionality ------------------------------\r\n\r\n    function nameOf(uint256 _tokenId) external view returns (string memory) {\r\n        require(_isValidToken(_tokenId), \"Not a valid Token!\");\r\n        return _name[_tokenId];\r\n    }\r\n\r\n    function parent1Of(uint256 _tokenId) external view returns (uint256) {\r\n        require(_isValidToken(_tokenId), \"Not a valid Token!\");\r\n        return _parent1[_tokenId];\r\n    }\r\n\r\n    function parent2Of(uint256 _tokenId) external view returns (uint256) {\r\n        require(_isValidToken(_tokenId), \"Not a valid Token!\");\r\n        return _parent2[_tokenId];\r\n    }\r\n\r\n    function genesOf(uint256 _tokenId) external view returns (uint256) {\r\n        require(_isValidToken(_tokenId), \"Not a valid Token!\");\r\n        return _genes[_tokenId];\r\n    }\r\n\r\n    function last() external view returns (uint256) {\r\n        return _tokenIds;\r\n    }\r\n\r\n    // ----------------------- Begin ERC721 Functions -------------------------------------\r\n\r\n    /// @notice Count all NFTs assigned to an owner\r\n    /// @dev NFTs assigned to the zero address are considered invalid, and this\r\n    ///  function throws for queries about the zero address.\r\n    /// @param _checkowner An address for whom to query the balance\r\n    /// @return The number of NFTs owned by `_owner`, possibly zero\r\n    function balanceOf(address _checkowner)\r\n        external\r\n        view\r\n        override\r\n        returns (uint256)\r\n    {\r\n        return _enumOwner[_checkowner].length;\r\n    }\r\n\r\n    /// @notice Find the owner of an NFT\r\n    /// @dev NFTs assigned to zero address are considered invalid, and queries\r\n    ///  about them do throw.\r\n    /// @param _tokenId The identifier for an NFT\r\n    /// @return The address of the owner of the NFT\r\n    function ownerOf(uint256 _tokenId)\r\n        external\r\n        view\r\n        override\r\n        returns (address)\r\n    {\r\n        return _owner[_tokenId];\r\n    }\r\n\r\n    /// @notice Transfers the ownership of an NFT from one address to another address\r\n    /// @dev Throws unless `msg.sender` is the current owner, an authorized\r\n    ///  operator, or the approved address for this NFT. Throws if `_from` is\r\n    ///  not the current owner. Throws if `_to` is the zero address. Throws if\r\n    ///  `_tokenId` is not a valid NFT. When transfer is complete, this function\r\n    ///  checks if `_to` is a smart contract (code size > 0). If so, it calls\r\n    ///  `onERC721Received` on `_to` and throws if the return value is not\r\n    ///  `bytes4(keccak256(\"onERC721Received(address,address,uint256,bytes)\"))`.\r\n    /// @param _from The current owner of the NFT\r\n    /// @param _to The new owner\r\n    /// @param _tokenId The NFT to transfer\r\n    /// @param data Additional data with no specified format, sent in call to `_to`\r\n    function safeTransferFrom(\r\n        address _from,\r\n        address _to,\r\n        uint256 _tokenId,\r\n        bytes calldata data\r\n    ) external override {\r\n        require(\r\n            msg.sender == _owner[_tokenId] ||\r\n                _operator[_from][msg.sender] == true ||\r\n                msg.sender == _owner[_tokenId],\r\n            \"Sender not authorized!\"\r\n        );\r\n        require(_from == _owner[_tokenId], \"Not the Owner!\");\r\n        require(\r\n            _to == address(0) && _from == address(0),\r\n            \"Cannot transfer to Zero Address!\"\r\n        );\r\n        require(_tokenId <= _tokenIds && _tokenId > 0, \"Not a valid NFT\");\r\n\r\n        _transfer(_from, _to, _tokenId);\r\n\r\n        // Check for _to being a smart contract\r\n        bytes32 codehash;\r\n        bytes32 accountHash = 0xc5d2460186f7233c927e7db2dcc703c0e500b653ca82273b7bfad8045d85a470;\r\n        assembly {\r\n            codehash := extcodehash(_to)\r\n        } // solhint-disable-line\r\n        if (codehash != 0x0 && codehash != accountHash) {\r\n            bytes4 retval = ERC721TokenReceiver(_to).onERC721Received(\r\n                msg.sender,\r\n                _from,\r\n                _tokenId,\r\n                data\r\n            );\r\n            require(retval == 0x150b7a02, \"Can not receive NFT\");\r\n        }\r\n\r\n        emit Transfer(_from, _to, _tokenId);\r\n    }\r\n\r\n    /// @notice Transfers the ownership of an NFT from one address to another address\r\n    /// @dev This works identically to the other function with an extra data parameter,\r\n    ///  except this function just sets data to \"\".\r\n    /// @param _from The current owner of the NFT\r\n    /// @param _to The new owner\r\n    /// @param _tokenId The NFT to transfer\r\n    function safeTransferFrom(\r\n        address _from,\r\n        address _to,\r\n        uint256 _tokenId\r\n    ) external override {\r\n        require(\r\n            msg.sender == _owner[_tokenId] ||\r\n                _operator[_from][msg.sender] == true ||\r\n                msg.sender == _owner[_tokenId],\r\n            \"Sender not authorized!\"\r\n        );\r\n        require(_from == _owner[_tokenId], \"Not the Owner!\");\r\n        require(\r\n            _to != address(0) && _from != address(0),\r\n            \"Cannot transfer to Zero Address!\"\r\n        );\r\n        require(_tokenId <= _tokenIds && _tokenId > 0, \"Not a valid NFT\");\r\n\r\n        _transfer(_from, _to, _tokenId);\r\n\r\n        // Check for _to being a smart contract\r\n        bytes32 codehash;\r\n        bytes32 accountHash = 0xc5d2460186f7233c927e7db2dcc703c0e500b653ca82273b7bfad8045d85a470;\r\n        assembly {\r\n            codehash := extcodehash(_to)\r\n        } // solhint-disable-line\r\n        if (codehash != 0x0 && codehash != accountHash) {\r\n            bytes4 retval = ERC721TokenReceiver(_to).onERC721Received(\r\n                msg.sender,\r\n                _from,\r\n                _tokenId,\r\n                \"\"\r\n            );\r\n            require(retval == 0x150b7a02, \"Can not receive NFT\");\r\n        }\r\n        emit Transfer(_from, _to, _tokenId);\r\n    }\r\n\r\n    /// @notice Transfer ownership of an NFT -- THE CALLER IS RESPONSIBLE\r\n    ///  TO CONFIRM THAT `_to` IS CAPABLE OF RECEIVING NFTS OR ELSE\r\n    ///  THEY MAY BE PERMANENTLY LOST\r\n    /// @dev Throws unless `msg.sender` is the current owner, an authorized\r\n    ///  operator, or the approved address for this NFT. Throws if `_from` is\r\n    ///  not the current owner. Throws if `_to` is the zero address. Throws if\r\n    ///  `_tokenId` is not a valid NFT.\r\n    /// @param _from The current owner of the NFT\r\n    /// @param _to The new owner\r\n    /// @param _tokenId The NFT to transfer\r\n    function transferFrom(\r\n        address _from,\r\n        address _to,\r\n        uint256 _tokenId\r\n    ) external override {\r\n        require(_owner[_tokenId] == _from, \"You are not the owner!\");\r\n        require(\r\n            _owner[_tokenId] == msg.sender ||\r\n                _approvedAddress[_tokenId] == msg.sender,\r\n            \"You are not the owner!\"\r\n        );\r\n        require(\r\n            _to != address(0) && _from != address(0),\r\n            \"Cannot send to zero address\"\r\n        );\r\n        require(_tokenId <= _tokenIds && _tokenId > 0, \"Not a valid NFT\");\r\n\r\n        _transfer(_from, _to, _tokenId);\r\n        emit Transfer(_from, _to, _tokenId);\r\n    }\r\n\r\n    /// @notice Change or reaffirm the approved address for an NFT\r\n    /// @dev The zero address indicates there is no approved address.\r\n    ///  Throws unless `msg.sender` is the current NFT owner, or an authorized\r\n    ///  operator of the current owner.\r\n    /// @param _approved The new approved NFT controller\r\n    /// @param _tokenId The NFT to approve\r\n    function approve(address _approved, uint256 _tokenId) external override {\r\n        require(\r\n            _owner[_tokenId] == msg.sender ||\r\n                _operator[_owner[_tokenId]][msg.sender],\r\n            \"Neither the owner, nor a approved Operator\"\r\n        );\r\n        _approvedAddress[_tokenId] = _approved;\r\n        emit Approval(_owner[_tokenId], _approved, _tokenId);\r\n    }\r\n\r\n    /// @notice Enable or disable approval for a third party (\"operator\") to manage\r\n    ///  all of `msg.sender`'s assets\r\n    /// @dev Emits the ApprovalForAll event. The contract MUST allow\r\n    ///  multiple operators per owner.\r\n    /// @param _newoperator Address to add to the set of authorized operators\r\n    /// @param _approved True if the operator is approved, false to revoke approval\r\n    function setApprovalForAll(address _newoperator, bool _approved)\r\n        external\r\n        override\r\n    {\r\n        _operator[msg.sender][_newoperator] = _approved;\r\n        emit ApprovalForAll(msg.sender, _newoperator, _approved);\r\n    }\r\n\r\n    /// @notice Get the approved address for a single NFT\r\n    /// @dev Throws if `_tokenId` is not a valid NFT.\r\n    /// @param _tokenId The NFT to find the approved address for\r\n    /// @return The approved address for this NFT, or the zero address if there is none\r\n    function getApproved(uint256 _tokenId)\r\n        external\r\n        view\r\n        override\r\n        returns (address)\r\n    {\r\n        require(_isValidToken(_tokenId), \"Not a valid NFT!\");\r\n        return _approvedAddress[_tokenId];\r\n    }\r\n\r\n    /// @notice Query if an address is an authorized operator for another address\r\n    /// @param _checkowner The address that owns the NFTs\r\n    /// @param _checkoperator The address that acts on behalf of the owner\r\n    /// @return True if `_operator` is an approved operator for `_owner`, false otherwise\r\n    function isApprovedForAll(address _checkowner, address _checkoperator)\r\n        external\r\n        view\r\n        override\r\n        returns (bool)\r\n    {\r\n        return _operator[_checkowner][_checkoperator];\r\n    }\r\n\r\n    // ----------------------- End ERC721 Functions -------------------------------------\r\n\r\n    // ----------------------- Begin ERC721Metadata Functions -------------------------------------\r\n\r\n    /// @notice A descriptive name for a collection of NFTs in this contract\r\n    function name() external pure override returns (string memory _retname) {\r\n        return \"Animals\";\r\n    }\r\n\r\n    /// @notice An abbreviated name for NFTs in this contract\r\n    function symbol()\r\n        external\r\n        pure\r\n        override\r\n        returns (string memory _retsymbol)\r\n    {\r\n        return \"ANMLS\";\r\n    }\r\n\r\n    /// @notice A distinct Uniform Resource Identifier (URI) for a given asset.\r\n    /// @dev Throws if `_tokenId` is not a valid NFT. URIs are defined in RFC\r\n    ///  3986. The URI may point to a JSON file that conforms to the \"ERC721\r\n    ///  Metadata JSON Schema\".\r\n    function tokenURI(uint256 _tokenId)\r\n        external\r\n        view\r\n        override\r\n        returns (string memory)\r\n    {\r\n        require(_isValidToken(_tokenId), \"Not a valid NFT\");\r\n        return _uri[_tokenId];\r\n    }\r\n\r\n    // Additional: Set URI\r\n    function setTokenUri(uint256 _tokenId, string memory newuri) external {\r\n        require(_isValidToken(_tokenId), \"Not a valid NFT\");\r\n        require(\r\n            _owner[_tokenId] == msg.sender ||\r\n                _operator[_owner[_tokenId]][msg.sender],\r\n            \"Neither the owner, nor a approved Operator\"\r\n        );\r\n        _uri[_tokenId] = newuri;\r\n    }\r\n\r\n    // ----------------------- End ERC721Metadata Functions -------------------------------------\r\n\r\n    // ----------------------- Begin ERC165 Functions -------------------------------------\r\n\r\n    /// @notice Query if a contract implements an interface\r\n    /// @param interfaceID The interface identifier, as specified in ERC-165\r\n    /// @dev Interface identification is specified in ERC-165. This function\r\n    ///  uses less than 30,000 gas.\r\n    /// @return `true` if the contract implements `interfaceID` and\r\n    ///  `interfaceID` is not 0xffffffff, `false` otherwise\r\n    function supportsInterface(bytes4 interfaceID)\r\n        external\r\n        view\r\n        override\r\n        returns (bool)\r\n    {\r\n        return _supportedInterfaces[interfaceID];\r\n    }\r\n\r\n    // ----------------------- End ERC165 Functions -------------------------------------\r\n    // ----------------------- Begin ERC721Enumerable Functions -------------------------\r\n\r\n    /// @notice Count NFTs tracked by this contract\r\n    /// @return A count of valid NFTs tracked by this contract, where each one of\r\n    ///  them has an assigned and queryable owner not equal to the zero address\r\n    function totalSupply() external view override returns (uint256) {\r\n        return _tokenIds;\r\n    }\r\n\r\n    /// @notice Enumerate valid NFTs\r\n    /// @dev Throws if `_index` >= `totalSupply()`.\r\n    /// @param _index A counter less than `totalSupply()`\r\n    /// @return The token identifier for the `_index`th NFT,\r\n    ///  (sort order not specified)\r\n    function tokenByIndex(uint256 _index)\r\n        external\r\n        view\r\n        override\r\n        returns (uint256)\r\n    {\r\n        require(_index < _tokenIds, \"Index is too high\");\r\n        return _index + 1;\r\n    }\r\n\r\n    /// @notice Enumerate NFTs assigned to an owner\r\n    /// @dev Throws if `_index` >= `balanceOf(_owner)` or if\r\n    ///  `_owner` is the zero address, representing invalid NFTs.\r\n    /// @param _checkowner An address where we are interested in NFTs owned by them\r\n    /// @param _index A counter less than `balanceOf(_owner)`\r\n    /// @return The token identifier for the `_index`th NFT assigned to `_owner`,\r\n    ///   (sort order not specified)\r\n    function tokenOfOwnerByIndex(address _checkowner, uint256 _index)\r\n        external\r\n        view\r\n        override\r\n        returns (uint256)\r\n    {\r\n        require(\r\n            _enumOwner[_checkowner].length > _index,\r\n            \"Address does not own that many Tokens\"\r\n        );\r\n        require(_checkowner != address(0), \"Given Address is zero\");\r\n        return _enumOwner[_checkowner][_index];\r\n    }\r\n\r\n    // ----------------------- End ERC721Enumerable Functions ---------------------------\r\n}\r\n",
  "sourcePath": "E:\\local\\anmls\\contracts\\ANMLS.sol",
  "compiler": {
    "name": "solc",
    "version": "0.8.6+commit.11564f7e.Emscripten.clang"
  },
  "schemaVersion": "3.4.4",
  "updatedAt": "2022-01-29T18:39:13.768Z",
  "networkType": "ethereum",
  "devdoc": {
    "kind": "dev",
    "methods": {
      "approve(address,uint256)": {
        "details": "The zero address indicates there is no approved address.  Throws unless `msg.sender` is the current NFT owner, or an authorized  operator of the current owner.",
        "params": {
          "_approved": "The new approved NFT controller",
          "_tokenId": "The NFT to approve"
        }
      },
      "balanceOf(address)": {
        "details": "NFTs assigned to the zero address are considered invalid, and this  function throws for queries about the zero address.",
        "params": {
          "_checkowner": "An address for whom to query the balance"
        },
        "returns": {
          "_0": "The number of NFTs owned by `_owner`, possibly zero"
        }
      },
      "breed(uint256,uint256,string,string)": {
        "params": {
          "Parent1": "First Parent used for Breading",
          "Parent2": "Second Parent used for Breading"
        },
        "returns": {
          "_0": "tokenId of Child"
        }
      },
      "constructor": {
        "params": {
          "GenesParent1": "Specify Genes of first Parent",
          "GenesParent2": "Specify Genes of second Parent"
        }
      },
      "getApproved(uint256)": {
        "details": "Throws if `_tokenId` is not a valid NFT.",
        "params": {
          "_tokenId": "The NFT to find the approved address for"
        },
        "returns": {
          "_0": "The approved address for this NFT, or the zero address if there is none"
        }
      },
      "isApprovedForAll(address,address)": {
        "params": {
          "_checkoperator": "The address that acts on behalf of the owner",
          "_checkowner": "The address that owns the NFTs"
        },
        "returns": {
          "_0": "True if `_operator` is an approved operator for `_owner`, false otherwise"
        }
      },
      "ownerOf(uint256)": {
        "details": "NFTs assigned to zero address are considered invalid, and queries  about them do throw.",
        "params": {
          "_tokenId": "The identifier for an NFT"
        },
        "returns": {
          "_0": "The address of the owner of the NFT"
        }
      },
      "safeTransferFrom(address,address,uint256)": {
        "details": "This works identically to the other function with an extra data parameter,  except this function just sets data to \"\".",
        "params": {
          "_from": "The current owner of the NFT",
          "_to": "The new owner",
          "_tokenId": "The NFT to transfer"
        }
      },
      "safeTransferFrom(address,address,uint256,bytes)": {
        "details": "Throws unless `msg.sender` is the current owner, an authorized  operator, or the approved address for this NFT. Throws if `_from` is  not the current owner. Throws if `_to` is the zero address. Throws if  `_tokenId` is not a valid NFT. When transfer is complete, this function  checks if `_to` is a smart contract (code size > 0). If so, it calls  `onERC721Received` on `_to` and throws if the return value is not  `bytes4(keccak256(\"onERC721Received(address,address,uint256,bytes)\"))`.",
        "params": {
          "_from": "The current owner of the NFT",
          "_to": "The new owner",
          "_tokenId": "The NFT to transfer",
          "data": "Additional data with no specified format, sent in call to `_to`"
        }
      },
      "setApprovalForAll(address,bool)": {
        "details": "Emits the ApprovalForAll event. The contract MUST allow  multiple operators per owner.",
        "params": {
          "_approved": "True if the operator is approved, false to revoke approval",
          "_newoperator": "Address to add to the set of authorized operators"
        }
      },
      "supportsInterface(bytes4)": {
        "details": "Interface identification is specified in ERC-165. This function  uses less than 30,000 gas.",
        "params": {
          "interfaceID": "The interface identifier, as specified in ERC-165"
        },
        "returns": {
          "_0": "`true` if the contract implements `interfaceID` and  `interfaceID` is not 0xffffffff, `false` otherwise"
        }
      },
      "tokenByIndex(uint256)": {
        "details": "Throws if `_index` >= `totalSupply()`.",
        "params": {
          "_index": "A counter less than `totalSupply()`"
        },
        "returns": {
          "_0": "The token identifier for the `_index`th NFT,  (sort order not specified)"
        }
      },
      "tokenOfOwnerByIndex(address,uint256)": {
        "details": "Throws if `_index` >= `balanceOf(_owner)` or if  `_owner` is the zero address, representing invalid NFTs.",
        "params": {
          "_checkowner": "An address where we are interested in NFTs owned by them",
          "_index": "A counter less than `balanceOf(_owner)`"
        },
        "returns": {
          "_0": "The token identifier for the `_index`th NFT assigned to `_owner`,   (sort order not specified)"
        }
      },
      "tokenURI(uint256)": {
        "details": "Throws if `_tokenId` is not a valid NFT. URIs are defined in RFC  3986. The URI may point to a JSON file that conforms to the \"ERC721  Metadata JSON Schema\"."
      },
      "totalSupply()": {
        "returns": {
          "_0": "A count of valid NFTs tracked by this contract, where each one of  them has an assigned and queryable owner not equal to the zero address"
        }
      },
      "transferFrom(address,address,uint256)": {
        "details": "Throws unless `msg.sender` is the current owner, an authorized  operator, or the approved address for this NFT. Throws if `_from` is  not the current owner. Throws if `_to` is the zero address. Throws if  `_tokenId` is not a valid NFT.",
        "params": {
          "_from": "The current owner of the NFT",
          "_to": "The new owner",
          "_tokenId": "The NFT to transfer"
        }
      }
    },
    "version": 1
  },
  "userdoc": {
    "kind": "user",
    "methods": {
      "approve(address,uint256)": {
        "notice": "Change or reaffirm the approved address for an NFT"
      },
      "balanceOf(address)": {
        "notice": "Count all NFTs assigned to an owner"
      },
      "breed(uint256,uint256,string,string)": {
        "notice": "Bread Child from two Parents"
      },
      "constructor": {
        "notice": "Constructor creates Parents with specified Genes"
      },
      "getApproved(uint256)": {
        "notice": "Get the approved address for a single NFT"
      },
      "isApprovedForAll(address,address)": {
        "notice": "Query if an address is an authorized operator for another address"
      },
      "name()": {
        "notice": "A descriptive name for a collection of NFTs in this contract"
      },
      "ownerOf(uint256)": {
        "notice": "Find the owner of an NFT"
      },
      "safeTransferFrom(address,address,uint256)": {
        "notice": "Transfers the ownership of an NFT from one address to another address"
      },
      "safeTransferFrom(address,address,uint256,bytes)": {
        "notice": "Transfers the ownership of an NFT from one address to another address"
      },
      "setApprovalForAll(address,bool)": {
        "notice": "Enable or disable approval for a third party (\"operator\") to manage  all of `msg.sender`'s assets"
      },
      "supportsInterface(bytes4)": {
        "notice": "Query if a contract implements an interface"
      },
      "symbol()": {
        "notice": "An abbreviated name for NFTs in this contract"
      },
      "tokenByIndex(uint256)": {
        "notice": "Enumerate valid NFTs"
      },
      "tokenOfOwnerByIndex(address,uint256)": {
        "notice": "Enumerate NFTs assigned to an owner"
      },
      "tokenURI(uint256)": {
        "notice": "A distinct Uniform Resource Identifier (URI) for a given asset."
      },
      "totalSupply()": {
        "notice": "Count NFTs tracked by this contract"
      },
      "transferFrom(address,address,uint256)": {
        "notice": "Transfer ownership of an NFT -- THE CALLER IS RESPONSIBLE  TO CONFIRM THAT `_to` IS CAPABLE OF RECEIVING NFTS OR ELSE  THEY MAY BE PERMANENTLY LOST"
      }
    },
    "version": 1
  }
}