{
  "contractName": "Base",
  "abi": [
    {
      "inputs": [
        {
          "internalType": "uint256",
          "name": "GenesParent1",
          "type": "uint256"
        },
        {
          "internalType": "string",
          "name": "uri1",
          "type": "string"
        },
        {
          "internalType": "uint256",
          "name": "GenesParent2",
          "type": "uint256"
        },
        {
          "internalType": "string",
          "name": "uri2",
          "type": "string"
        }
      ],
      "stateMutability": "nonpayable",
      "type": "constructor"
    },
    {
      "anonymous": false,
      "inputs": [
        {
          "indexed": true,
          "internalType": "address",
          "name": "_owner",
          "type": "address"
        },
        {
          "indexed": true,
          "internalType": "address",
          "name": "_approved",
          "type": "address"
        },
        {
          "indexed": true,
          "internalType": "uint256",
          "name": "_tokenId",
          "type": "uint256"
        }
      ],
      "name": "Approval",
      "type": "event"
    },
    {
      "anonymous": false,
      "inputs": [
        {
          "indexed": true,
          "internalType": "address",
          "name": "_owner",
          "type": "address"
        },
        {
          "indexed": true,
          "internalType": "address",
          "name": "_operator",
          "type": "address"
        },
        {
          "indexed": false,
          "internalType": "bool",
          "name": "_approved",
          "type": "bool"
        }
      ],
      "name": "ApprovalForAll",
      "type": "event"
    },
    {
      "anonymous": false,
      "inputs": [
        {
          "indexed": true,
          "internalType": "address",
          "name": "_from",
          "type": "address"
        },
        {
          "indexed": true,
          "internalType": "address",
          "name": "_to",
          "type": "address"
        },
        {
          "indexed": true,
          "internalType": "uint256",
          "name": "_tokenId",
          "type": "uint256"
        }
      ],
      "name": "Transfer",
      "type": "event"
    },
    {
      "inputs": [
        {
          "internalType": "uint256",
          "name": "Parent1",
          "type": "uint256"
        },
        {
          "internalType": "uint256",
          "name": "Parent2",
          "type": "uint256"
        },
        {
          "internalType": "string",
          "name": "childName",
          "type": "string"
        }
      ],
      "name": "breed",
      "outputs": [
        {
          "internalType": "uint256",
          "name": "",
          "type": "uint256"
        }
      ],
      "stateMutability": "nonpayable",
      "type": "function"
    },
    {
      "inputs": [
        {
          "internalType": "uint256",
          "name": "_tokenId",
          "type": "uint256"
        }
      ],
      "name": "nameOf",
      "outputs": [
        {
          "internalType": "string",
          "name": "",
          "type": "string"
        }
      ],
      "stateMutability": "view",
      "type": "function",
      "constant": true
    },
    {
      "inputs": [
        {
          "internalType": "uint256",
          "name": "_tokenId",
          "type": "uint256"
        }
      ],
      "name": "parent1Of",
      "outputs": [
        {
          "internalType": "uint256",
          "name": "",
          "type": "uint256"
        }
      ],
      "stateMutability": "view",
      "type": "function",
      "constant": true
    },
    {
      "inputs": [
        {
          "internalType": "uint256",
          "name": "_tokenId",
          "type": "uint256"
        }
      ],
      "name": "parent2Of",
      "outputs": [
        {
          "internalType": "uint256",
          "name": "",
          "type": "uint256"
        }
      ],
      "stateMutability": "view",
      "type": "function",
      "constant": true
    },
    {
      "inputs": [
        {
          "internalType": "uint256",
          "name": "_tokenId",
          "type": "uint256"
        }
      ],
      "name": "genesOf",
      "outputs": [
        {
          "internalType": "uint256",
          "name": "",
          "type": "uint256"
        }
      ],
      "stateMutability": "view",
      "type": "function",
      "constant": true
    },
    {
      "inputs": [],
      "name": "last",
      "outputs": [
        {
          "internalType": "uint256",
          "name": "",
          "type": "uint256"
        }
      ],
      "stateMutability": "view",
      "type": "function",
      "constant": true
    },
    {
      "inputs": [
        {
          "internalType": "address",
          "name": "_checkowner",
          "type": "address"
        }
      ],
      "name": "balanceOf",
      "outputs": [
        {
          "internalType": "uint256",
          "name": "",
          "type": "uint256"
        }
      ],
      "stateMutability": "view",
      "type": "function",
      "constant": true
    },
    {
      "inputs": [
        {
          "internalType": "uint256",
          "name": "_tokenId",
          "type": "uint256"
        }
      ],
      "name": "ownerOf",
      "outputs": [
        {
          "internalType": "address",
          "name": "",
          "type": "address"
        }
      ],
      "stateMutability": "view",
      "type": "function",
      "constant": true
    },
    {
      "inputs": [
        {
          "internalType": "address",
          "name": "_from",
          "type": "address"
        },
        {
          "internalType": "address",
          "name": "_to",
          "type": "address"
        },
        {
          "internalType": "uint256",
          "name": "_tokenId",
          "type": "uint256"
        }
      ],
      "name": "safeTransferFrom",
      "outputs": [],
      "stateMutability": "nonpayable",
      "type": "function"
    },
    {
      "inputs": [
        {
          "internalType": "address",
          "name": "_from",
          "type": "address"
        },
        {
          "internalType": "address",
          "name": "_to",
          "type": "address"
        },
        {
          "internalType": "uint256",
          "name": "_tokenId",
          "type": "uint256"
        },
        {
          "internalType": "bytes",
          "name": "data",
          "type": "bytes"
        }
      ],
      "name": "safeTransferFrom",
      "outputs": [],
      "stateMutability": "nonpayable",
      "type": "function"
    },
    {
      "inputs": [
        {
          "internalType": "address",
          "name": "_from",
          "type": "address"
        },
        {
          "internalType": "address",
          "name": "_to",
          "type": "address"
        },
        {
          "internalType": "uint256",
          "name": "_tokenId",
          "type": "uint256"
        }
      ],
      "name": "transferFrom",
      "outputs": [],
      "stateMutability": "nonpayable",
      "type": "function"
    },
    {
      "inputs": [
        {
          "internalType": "address",
          "name": "_approved",
          "type": "address"
        },
        {
          "internalType": "uint256",
          "name": "_tokenId",
          "type": "uint256"
        }
      ],
      "name": "approve",
      "outputs": [],
      "stateMutability": "nonpayable",
      "type": "function"
    },
    {
      "inputs": [
        {
          "internalType": "address",
          "name": "_newoperator",
          "type": "address"
        },
        {
          "internalType": "bool",
          "name": "_approved",
          "type": "bool"
        }
      ],
      "name": "setApprovalForAll",
      "outputs": [],
      "stateMutability": "nonpayable",
      "type": "function"
    },
    {
      "inputs": [
        {
          "internalType": "uint256",
          "name": "_tokenId",
          "type": "uint256"
        }
      ],
      "name": "getApproved",
      "outputs": [
        {
          "internalType": "address",
          "name": "",
          "type": "address"
        }
      ],
      "stateMutability": "view",
      "type": "function",
      "constant": true
    },
    {
      "inputs": [
        {
          "internalType": "address",
          "name": "_checkowner",
          "type": "address"
        },
        {
          "internalType": "address",
          "name": "_checkoperator",
          "type": "address"
        }
      ],
      "name": "isApprovedForAll",
      "outputs": [
        {
          "internalType": "bool",
          "name": "",
          "type": "bool"
        }
      ],
      "stateMutability": "view",
      "type": "function",
      "constant": true
    },
    {
      "inputs": [],
      "name": "name",
      "outputs": [
        {
          "internalType": "string",
          "name": "_retname",
          "type": "string"
        }
      ],
      "stateMutability": "pure",
      "type": "function",
      "constant": true
    },
    {
      "inputs": [],
      "name": "symbol",
      "outputs": [
        {
          "internalType": "string",
          "name": "_retsymbol",
          "type": "string"
        }
      ],
      "stateMutability": "pure",
      "type": "function",
      "constant": true
    },
    {
      "inputs": [
        {
          "internalType": "uint256",
          "name": "_tokenId",
          "type": "uint256"
        }
      ],
      "name": "tokenURI",
      "outputs": [
        {
          "internalType": "string",
          "name": "",
          "type": "string"
        }
      ],
      "stateMutability": "view",
      "type": "function",
      "constant": true
    },
    {
      "inputs": [
        {
          "internalType": "uint256",
          "name": "_tokenId",
          "type": "uint256"
        },
        {
          "internalType": "string",
          "name": "newuri",
          "type": "string"
        }
      ],
      "name": "setTokenUri",
      "outputs": [],
      "stateMutability": "nonpayable",
      "type": "function"
    },
    {
      "inputs": [
        {
          "internalType": "bytes4",
          "name": "interfaceID",
          "type": "bytes4"
        }
      ],
      "name": "supportsInterface",
      "outputs": [
        {
          "internalType": "bool",
          "name": "",
          "type": "bool"
        }
      ],
      "stateMutability": "view",
      "type": "function",
      "constant": true
    },
    {
      "inputs": [],
      "name": "totalSupply",
      "outputs": [
        {
          "internalType": "uint256",
          "name": "",
          "type": "uint256"
        }
      ],
      "stateMutability": "view",
      "type": "function",
      "constant": true
    },
    {
      "inputs": [
        {
          "internalType": "uint256",
          "name": "_index",
          "type": "uint256"
        }
      ],
      "name": "tokenByIndex",
      "outputs": [
        {
          "internalType": "uint256",
          "name": "",
          "type": "uint256"
        }
      ],
      "stateMutability": "view",
      "type": "function",
      "constant": true
    },
    {
      "inputs": [
        {
          "internalType": "address",
          "name": "_checkowner",
          "type": "address"
        },
        {
          "internalType": "uint256",
          "name": "_index",
          "type": "uint256"
        }
      ],
      "name": "tokenOfOwnerByIndex",
      "outputs": [
        {
          "internalType": "uint256",
          "name": "",
          "type": "uint256"
        }
      ],
      "stateMutability": "view",
      "type": "function",
      "constant": true
    },
    {
      "inputs": [
        {
          "internalType": "uint256",
          "name": "_tokenId",
          "type": "uint256"
        },
        {
          "internalType": "uint256",
          "name": "price",
          "type": "uint256"
        }
      ],
      "name": "sell",
      "outputs": [],
      "stateMutability": "nonpayable",
      "type": "function"
    },
    {
      "inputs": [
        {
          "internalType": "uint256",
          "name": "_tokenId",
          "type": "uint256"
        }
      ],
      "name": "buy",
      "outputs": [],
      "stateMutability": "payable",
      "type": "function",
      "payable": true
    },
    {
      "inputs": [
        {
          "internalType": "uint256",
          "name": "index",
          "type": "uint256"
        }
      ],
      "name": "buyableByIndex",
      "outputs": [
        {
          "internalType": "uint256",
          "name": "",
          "type": "uint256"
        }
      ],
      "stateMutability": "view",
      "type": "function",
      "constant": true
    },
    {
      "inputs": [],
      "name": "buyableNumber",
      "outputs": [
        {
          "internalType": "uint256",
          "name": "",
          "type": "uint256"
        }
      ],
      "stateMutability": "view",
      "type": "function",
      "constant": true
    },
    {
      "inputs": [
        {
          "internalType": "uint256",
          "name": "_tokenId",
          "type": "uint256"
        }
      ],
      "name": "priceOf",
      "outputs": [
        {
          "internalType": "uint256",
          "name": "",
          "type": "uint256"
        }
      ],
      "stateMutability": "view",
      "type": "function",
      "constant": true
    },
    {
      "inputs": [
        {
          "internalType": "uint256",
          "name": "_tokenId",
          "type": "uint256"
        }
      ],
      "name": "isBuyable",
      "outputs": [
        {
          "internalType": "bool",
          "name": "",
          "type": "bool"
        }
      ],
      "stateMutability": "view",
      "type": "function",
      "constant": true
    }
  ],
  "bytecode": "0x6080604052600080553480156200001557600080fd5b50604051620048fd380380620048fd833981810160405260808110156200003b57600080fd5b8101908080519060200190929190805160405193929190846401000000008211156200006657600080fd5b838201915060208201858111156200007d57600080fd5b82518660018202830111640100000000821117156200009b57600080fd5b8083526020830192505050908051906020019080838360005b83811015620000d1578082015181840152602081019050620000b4565b50505050905090810190601f168015620000ff5780820380516001836020036101000a031916815260200191505b5060405260200180519060200190929190805160405193929190846401000000008211156200012d57600080fd5b838201915060208201858111156200014457600080fd5b82518660018202830111640100000000821117156200016257600080fd5b8083526020830192505050908051906020019080838360005b83811015620001985780820151818401526020810190506200017b565b50505050905090810190601f168015620001c65780820380516001836020036101000a031916815260200191505b5060405250505062000219846000806040518060400160405280600381526020017f45766500000000000000000000000000000000000000000000000000000000008152503388620003b760201b60201c565b62000265826000806040518060400160405280600481526020017f4164616d000000000000000000000000000000000000000000000000000000008152503386620003b760201b60201c565b6001600b60006380ac58cd60e01b7bffffffffffffffffffffffffffffffffffffffffffffffffffffffff1916815260200190815260200160002060006101000a81548160ff0219169083151502179055506001600b60006301ffc9a760e01b7bffffffffffffffffffffffffffffffffffffffffffffffffffffffff1916815260200190815260200160002060006101000a81548160ff0219169083151502179055506001600b6000635b5e139f60e01b7bffffffffffffffffffffffffffffffffffffffffffffffffffffffff1916815260200190815260200160002060006101000a81548160ff0219169083151502179055506001600b600063780e9d6360e01b7bffffffffffffffffffffffffffffffffffffffffffffffffffffffff1916815260200190815260200160002060006101000a81548160ff021916908315150217905550505050506200066d565b600080815480929190600101919050555084600360008054815260200190815260200160002081905550836004600080548152602001908152602001600020819055508560026000805481526020019081526020016000208190555082600560008054815260200190815260200160002090805190602001906200043d929190620005c7565b5081600660008054815260200190815260200160002060006101000a81548173ffffffffffffffffffffffffffffffffffffffff021916908373ffffffffffffffffffffffffffffffffffffffff1602179055508060086000805481526020019081526020016000209080519060200190620004bb929190620005c7565b50600960008373ffffffffffffffffffffffffffffffffffffffff1673ffffffffffffffffffffffffffffffffffffffff16815260200190815260200160002060005490806001815401808255809150506001900390600052602060002001600090919091909150556001600960008473ffffffffffffffffffffffffffffffffffffffff1673ffffffffffffffffffffffffffffffffffffffff1681526020019081526020016000208054905003600a60008473ffffffffffffffffffffffffffffffffffffffff1673ffffffffffffffffffffffffffffffffffffffff16815260200190815260200160002060008054815260200190815260200160002081905550505050505050565b828054600181600116156101000203166002900490600052602060002090601f016020900481019282601f106200060a57805160ff19168380011785556200063b565b828001600101855582156200063b579182015b828111156200063a5782518255916020019190600101906200061d565b5b5090506200064a91906200064e565b5090565b5b80821115620006695760008160009055506001016200064f565b5090565b614280806200067d6000396000f3fe6080604052600436106101c25760003560e01c80636352211e116100f7578063b9186d7d11610095578063d96a094a11610064578063d96a094a14610cee578063e738c7c814610d1c578063e985e9c514610d6d578063f96ec76514610df4576101c2565b8063b9186d7d14610ab6578063c14370d814610b05578063c87b56dd14610bf5578063d79875eb14610ca9576101c2565b8063a22cb465116100d1578063a22cb465146108eb578063af8f66b214610948578063b78c53c214610997578063b88d4fde146109e6576101c2565b80636352211e1461079157806370a08231146107f657806395d89b411461085b576101c2565b806323b872dd1161016457806347477ad21161013e57806347477ad2146105f657806347799da8146106455780634f6ccce71461067057806357f7789e146106bf576101c2565b806323b872dd146104915780632f745c591461050c57806342842e0e1461057b576101c2565b8063081812fc116101a0578063081812fc1461037b578063095ea7b3146103e057806318160ddd1461043b5780631900395a14610466576101c2565b806301ffc9a7146101c7578063051a26641461023757806306fdde03146102eb575b600080fd5b3480156101d357600080fd5b5061021f600480360360208110156101ea57600080fd5b8101908080357bffffffffffffffffffffffffffffffffffffffffffffffffffffffff19169060200190929190505050610e43565b60405180821515815260200191505060405180910390f35b34801561024357600080fd5b506102706004803603602081101561025a57600080fd5b8101908080359060200190929190505050610eab565b6040518080602001828103825283818151815260200191508051906020019080838360005b838110156102b0578082015181840152602081019050610295565b50505050905090810190601f1680156102dd5780820380516001836020036101000a031916815260200191505b509250505060405180910390f35b3480156102f757600080fd5b50610300610fdb565b6040518080602001828103825283818151815260200191508051906020019080838360005b83811015610340578082015181840152602081019050610325565b50505050905090810190601f16801561036d5780820380516001836020036101000a031916815260200191505b509250505060405180910390f35b34801561038757600080fd5b506103b46004803603602081101561039e57600080fd5b8101908080359060200190929190505050611018565b604051808273ffffffffffffffffffffffffffffffffffffffff16815260200191505060405180910390f35b3480156103ec57600080fd5b506104396004803603604081101561040357600080fd5b81019080803573ffffffffffffffffffffffffffffffffffffffff169060200190929190803590602001909291905050506110d0565b005b34801561044757600080fd5b5061045061132f565b6040518082815260200191505060405180910390f35b34801561047257600080fd5b5061047b611338565b6040518082815260200191505060405180910390f35b34801561049d57600080fd5b5061050a600480360360608110156104b457600080fd5b81019080803573ffffffffffffffffffffffffffffffffffffffff169060200190929190803573ffffffffffffffffffffffffffffffffffffffff16906020019092919080359060200190929190505050611345565b005b34801561051857600080fd5b506105656004803603604081101561052f57600080fd5b81019080803573ffffffffffffffffffffffffffffffffffffffff16906020019092919080359060200190929190505050611721565b6040518082815260200191505060405180910390f35b34801561058757600080fd5b506105f46004803603606081101561059e57600080fd5b81019080803573ffffffffffffffffffffffffffffffffffffffff169060200190929190803573ffffffffffffffffffffffffffffffffffffffff169060200190929190803590602001909291905050506118bd565b005b34801561060257600080fd5b5061062f6004803603602081101561061957600080fd5b8101908080359060200190929190505050611ef7565b6040518082815260200191505060405180910390f35b34801561065157600080fd5b5061065a611f8f565b6040518082815260200191505060405180910390f35b34801561067c57600080fd5b506106a96004803603602081101561069357600080fd5b8101908080359060200190929190505050611f98565b6040518082815260200191505060405180910390f35b3480156106cb57600080fd5b5061078f600480360360408110156106e257600080fd5b81019080803590602001909291908035906020019064010000000081111561070957600080fd5b82018360208201111561071b57600080fd5b8035906020019184600183028401116401000000008311171561073d57600080fd5b91908080601f016020809104026020016040519081016040528093929190818152602001838380828437600081840152601f19601f82011690508083019250505050505050919291929050505061201b565b005b34801561079d57600080fd5b506107ca600480360360208110156107b457600080fd5b810190808035906020019092919050505061223d565b604051808273ffffffffffffffffffffffffffffffffffffffff16815260200191505060405180910390f35b34801561080257600080fd5b506108456004803603602081101561081957600080fd5b81019080803573ffffffffffffffffffffffffffffffffffffffff16906020019092919050505061227a565b6040518082815260200191505060405180910390f35b34801561086757600080fd5b506108706122c6565b6040518080602001828103825283818151815260200191508051906020019080838360005b838110156108b0578082015181840152602081019050610895565b50505050905090810190601f1680156108dd5780820380516001836020036101000a031916815260200191505b509250505060405180910390f35b3480156108f757600080fd5b506109466004803603604081101561090e57600080fd5b81019080803573ffffffffffffffffffffffffffffffffffffffff169060200190929190803515159060200190929190505050612303565b005b34801561095457600080fd5b506109816004803603602081101561096b57600080fd5b8101908080359060200190929190505050612402565b6040518082815260200191505060405180910390f35b3480156109a357600080fd5b506109d0600480360360208110156109ba57600080fd5b810190808035906020019092919050505061249a565b6040518082815260200191505060405180910390f35b3480156109f257600080fd5b50610ab460048036036080811015610a0957600080fd5b81019080803573ffffffffffffffffffffffffffffffffffffffff169060200190929190803573ffffffffffffffffffffffffffffffffffffffff1690602001909291908035906020019092919080359060200190640100000000811115610a7057600080fd5b820183602082011115610a8257600080fd5b80359060200191846001830284011164010000000083111715610aa457600080fd5b9091929391929390505050612532565b005b348015610ac257600080fd5b50610aef60048036036020811015610ad957600080fd5b8101908080359060200190929190505050612b8c565b6040518082815260200191505060405180910390f35b348015610b1157600080fd5b50610bdf60048036036060811015610b2857600080fd5b81019080803590602001909291908035906020019092919080359060200190640100000000811115610b5957600080fd5b820183602082011115610b6b57600080fd5b80359060200191846001830284011164010000000083111715610b8d57600080fd5b91908080601f016020809104026020016040519081016040528093929190818152602001838380828437600081840152601f19601f820116905080830192505050505050509192919290505050612be5565b6040518082815260200191505060405180910390f35b348015610c0157600080fd5b50610c2e60048036036020811015610c1857600080fd5b81019080803590602001909291905050506130cb565b6040518080602001828103825283818151815260200191508051906020019080838360005b83811015610c6e578082015181840152602081019050610c53565b50505050905090810190601f168015610c9b5780820380516001836020036101000a031916815260200191505b509250505060405180910390f35b348015610cb557600080fd5b50610cec60048036036040811015610ccc57600080fd5b8101908080359060200190929190803590602001909291905050506131fb565b005b610d1a60048036036020811015610d0457600080fd5b81019080803590602001909291905050506133e4565b005b348015610d2857600080fd5b50610d5560048036036020811015610d3f57600080fd5b8101908080359060200190929190505050613818565b60405180821515815260200191505060405180910390f35b348015610d7957600080fd5b50610ddc60048036036040811015610d9057600080fd5b81019080803573ffffffffffffffffffffffffffffffffffffffff169060200190929190803573ffffffffffffffffffffffffffffffffffffffff169060200190929190505050613854565b60405180821515815260200191505060405180910390f35b348015610e0057600080fd5b50610e2d60048036036020811015610e1757600080fd5b81019080803590602001909291905050506138e8565b6040518082815260200191505060405180910390f35b6000600b6000837bffffffffffffffffffffffffffffffffffffffffffffffffffffffff19167bffffffffffffffffffffffffffffffffffffffffffffffffffffffff1916815260200190815260200160002060009054906101000a900460ff169050919050565b6060610eb68261391a565b610f28576040517f08c379a00000000000000000000000000000000000000000000000000000000081526004018080602001828103825260128152602001807f4e6f7420612076616c696420546f6b656e21000000000000000000000000000081525060200191505060405180910390fd5b600560008381526020019081526020016000208054600181600116156101000203166002900480601f016020809104026020016040519081016040528092919081815260200182805460018160011615610100020316600290048015610fcf5780601f10610fa457610100808354040283529160200191610fcf565b820191906000526020600020905b815481529060010190602001808311610fb257829003601f168201915b50505050509050919050565b60606040518060400160405280600781526020017f416e696d616c7300000000000000000000000000000000000000000000000000815250905090565b60006110238261391a565b611095576040517f08c379a00000000000000000000000000000000000000000000000000000000081526004018080602001828103825260108152602001807f4e6f7420612076616c6964204e4654210000000000000000000000000000000081525060200191505060405180910390fd5b6007600083815260200190815260200160002060009054906101000a900473ffffffffffffffffffffffffffffffffffffffff169050919050565b3373ffffffffffffffffffffffffffffffffffffffff166006600083815260200190815260200160002060009054906101000a900473ffffffffffffffffffffffffffffffffffffffff1673ffffffffffffffffffffffffffffffffffffffff1614806111f65750600160006006600084815260200190815260200160002060009054906101000a900473ffffffffffffffffffffffffffffffffffffffff1673ffffffffffffffffffffffffffffffffffffffff1673ffffffffffffffffffffffffffffffffffffffff16815260200190815260200160002060003373ffffffffffffffffffffffffffffffffffffffff1673ffffffffffffffffffffffffffffffffffffffff16815260200190815260200160002060009054906101000a900460ff165b61124b576040517f08c379a000000000000000000000000000000000000000000000000000000000815260040180806020018281038252602a8152602001806141e4602a913960400191505060405180910390fd5b816007600083815260200190815260200160002060006101000a81548173ffffffffffffffffffffffffffffffffffffffff021916908373ffffffffffffffffffffffffffffffffffffffff160217905550808273ffffffffffffffffffffffffffffffffffffffff166006600084815260200190815260200160002060009054906101000a900473ffffffffffffffffffffffffffffffffffffffff1673ffffffffffffffffffffffffffffffffffffffff167f8c5be1e5ebec7d5bd14f71427d1e84f3dd0314c0f7b2291e5b200ac8c7c3b92560405160405180910390a45050565b60008054905090565b6000600d80549050905090565b8273ffffffffffffffffffffffffffffffffffffffff166006600083815260200190815260200160002060009054906101000a900473ffffffffffffffffffffffffffffffffffffffff1673ffffffffffffffffffffffffffffffffffffffff1614611419576040517f08c379a00000000000000000000000000000000000000000000000000000000081526004018080602001828103825260168152602001807f596f7520617265206e6f7420746865206f776e6572210000000000000000000081525060200191505060405180910390fd5b3373ffffffffffffffffffffffffffffffffffffffff166006600083815260200190815260200160002060009054906101000a900473ffffffffffffffffffffffffffffffffffffffff1673ffffffffffffffffffffffffffffffffffffffff1614806114e457503373ffffffffffffffffffffffffffffffffffffffff166007600083815260200190815260200160002060009054906101000a900473ffffffffffffffffffffffffffffffffffffffff1673ffffffffffffffffffffffffffffffffffffffff16145b611556576040517f08c379a00000000000000000000000000000000000000000000000000000000081526004018080602001828103825260168152602001807f596f7520617265206e6f7420746865206f776e6572210000000000000000000081525060200191505060405180910390fd5b600073ffffffffffffffffffffffffffffffffffffffff168273ffffffffffffffffffffffffffffffffffffffff16141580156115c05750600073ffffffffffffffffffffffffffffffffffffffff168373ffffffffffffffffffffffffffffffffffffffff1614155b611632576040517f08c379a000000000000000000000000000000000000000000000000000000000815260040180806020018281038252601b8152602001807f43616e6e6f742073656e6420746f207a65726f2061646472657373000000000081525060200191505060405180910390fd5b60005481111580156116445750600081115b6116b6576040517f08c379a000000000000000000000000000000000000000000000000000000000815260040180806020018281038252600f8152602001807f4e6f7420612076616c6964204e4654000000000000000000000000000000000081525060200191505060405180910390fd5b6116c1838383613945565b808273ffffffffffffffffffffffffffffffffffffffff168473ffffffffffffffffffffffffffffffffffffffff167fddf252ad1be2c89b69c2b068fc378daa952ba7f163c4a11628f55a4df523b3ef60405160405180910390a4505050565b600081600960008573ffffffffffffffffffffffffffffffffffffffff1673ffffffffffffffffffffffffffffffffffffffff16815260200190815260200160002080549050116117bd576040517f08c379a00000000000000000000000000000000000000000000000000000000081526004018080602001828103825260258152602001806141bf6025913960400191505060405180910390fd5b600073ffffffffffffffffffffffffffffffffffffffff168373ffffffffffffffffffffffffffffffffffffffff161415611860576040517f08c379a00000000000000000000000000000000000000000000000000000000081526004018080602001828103825260158152602001807f476976656e2041646472657373206973207a65726f000000000000000000000081525060200191505060405180910390fd5b600960008473ffffffffffffffffffffffffffffffffffffffff1673ffffffffffffffffffffffffffffffffffffffff16815260200190815260200160002082815481106118aa57fe5b9060005260206000200154905092915050565b6006600082815260200190815260200160002060009054906101000a900473ffffffffffffffffffffffffffffffffffffffff1673ffffffffffffffffffffffffffffffffffffffff163373ffffffffffffffffffffffffffffffffffffffff1614806119b7575060011515600160008573ffffffffffffffffffffffffffffffffffffffff1673ffffffffffffffffffffffffffffffffffffffff16815260200190815260200160002060003373ffffffffffffffffffffffffffffffffffffffff1673ffffffffffffffffffffffffffffffffffffffff16815260200190815260200160002060009054906101000a900460ff161515145b80611a2057506006600082815260200190815260200160002060009054906101000a900473ffffffffffffffffffffffffffffffffffffffff1673ffffffffffffffffffffffffffffffffffffffff163373ffffffffffffffffffffffffffffffffffffffff16145b611a92576040517f08c379a00000000000000000000000000000000000000000000000000000000081526004018080602001828103825260168152602001807f53656e646572206e6f7420617574686f72697a6564210000000000000000000081525060200191505060405180910390fd5b6006600082815260200190815260200160002060009054906101000a900473ffffffffffffffffffffffffffffffffffffffff1673ffffffffffffffffffffffffffffffffffffffff168373ffffffffffffffffffffffffffffffffffffffff1614611b66576040517f08c379a000000000000000000000000000000000000000000000000000000000815260040180806020018281038252600e8152602001807f4e6f7420746865204f776e65722100000000000000000000000000000000000081525060200191505060405180910390fd5b600073ffffffffffffffffffffffffffffffffffffffff168273ffffffffffffffffffffffffffffffffffffffff1614158015611bd05750600073ffffffffffffffffffffffffffffffffffffffff168373ffffffffffffffffffffffffffffffffffffffff1614155b611c42576040517f08c379a00000000000000000000000000000000000000000000000000000000081526004018080602001828103825260208152602001807f43616e6e6f74207472616e7366657220746f205a65726f20416464726573732181525060200191505060405180910390fd5b6000548111158015611c545750600081115b611cc6576040517f08c379a000000000000000000000000000000000000000000000000000000000815260040180806020018281038252600f8152602001807f4e6f7420612076616c6964204e4654000000000000000000000000000000000081525060200191505060405180910390fd5b611cd1838383613945565b6000807fc5d2460186f7233c927e7db2dcc703c0e500b653ca82273b7bfad8045d85a47060001b9050833f91506000801b8214158015611d115750808214155b15611e955760008473ffffffffffffffffffffffffffffffffffffffff1663150b7a023388876040518463ffffffff1660e01b8152600401808473ffffffffffffffffffffffffffffffffffffffff1681526020018373ffffffffffffffffffffffffffffffffffffffff16815260200182815260200180602001828103825260008152602001602001945050505050602060405180830381600087803b158015611dbb57600080fd5b505af1158015611dcf573d6000803e3d6000fd5b505050506040513d6020811015611de557600080fd5b8101908080519060200190929190505050905063150b7a0260e01b817bffffffffffffffffffffffffffffffffffffffffffffffffffffffff191614611e93576040517f08c379a00000000000000000000000000000000000000000000000000000000081526004018080602001828103825260138152602001807f43616e206e6f742072656365697665204e46540000000000000000000000000081525060200191505060405180910390fd5b505b828473ffffffffffffffffffffffffffffffffffffffff168673ffffffffffffffffffffffffffffffffffffffff167fddf252ad1be2c89b69c2b068fc378daa952ba7f163c4a11628f55a4df523b3ef60405160405180910390a45050505050565b6000611f028261391a565b611f74576040517f08c379a00000000000000000000000000000000000000000000000000000000081526004018080602001828103825260128152602001807f4e6f7420612076616c696420546f6b656e21000000000000000000000000000081525060200191505060405180910390fd5b60026000838152602001908152602001600020549050919050565b60008054905090565b600080548210612010576040517f08c379a00000000000000000000000000000000000000000000000000000000081526004018080602001828103825260118152602001807f496e64657820697320746f6f206869676800000000000000000000000000000081525060200191505060405180910390fd5b600182019050919050565b6120248261391a565b612096576040517f08c379a000000000000000000000000000000000000000000000000000000000815260040180806020018281038252600f8152602001807f4e6f7420612076616c6964204e4654000000000000000000000000000000000081525060200191505060405180910390fd5b3373ffffffffffffffffffffffffffffffffffffffff166006600084815260200190815260200160002060009054906101000a900473ffffffffffffffffffffffffffffffffffffffff1673ffffffffffffffffffffffffffffffffffffffff1614806121bc5750600160006006600085815260200190815260200160002060009054906101000a900473ffffffffffffffffffffffffffffffffffffffff1673ffffffffffffffffffffffffffffffffffffffff1673ffffffffffffffffffffffffffffffffffffffff16815260200190815260200160002060003373ffffffffffffffffffffffffffffffffffffffff1673ffffffffffffffffffffffffffffffffffffffff16815260200190815260200160002060009054906101000a900460ff165b612211576040517f08c379a000000000000000000000000000000000000000000000000000000000815260040180806020018281038252602a8152602001806141e4602a913960400191505060405180910390fd5b806008600084815260200190815260200160002090805190602001906122389291906140b5565b505050565b60006006600083815260200190815260200160002060009054906101000a900473ffffffffffffffffffffffffffffffffffffffff169050919050565b6000600960008373ffffffffffffffffffffffffffffffffffffffff1673ffffffffffffffffffffffffffffffffffffffff168152602001908152602001600020805490509050919050565b60606040518060400160405280600581526020017f414e4d4c53000000000000000000000000000000000000000000000000000000815250905090565b80600160003373ffffffffffffffffffffffffffffffffffffffff1673ffffffffffffffffffffffffffffffffffffffff16815260200190815260200160002060008473ffffffffffffffffffffffffffffffffffffffff1673ffffffffffffffffffffffffffffffffffffffff16815260200190815260200160002060006101000a81548160ff0219169083151502179055508173ffffffffffffffffffffffffffffffffffffffff163373ffffffffffffffffffffffffffffffffffffffff167f17307eab39ab6107e8899845ad3d59bd9653f200f220920489ca2b5937696c318360405180821515815260200191505060405180910390a35050565b600061240d8261391a565b61247f576040517f08c379a00000000000000000000000000000000000000000000000000000000081526004018080602001828103825260128152602001807f4e6f7420612076616c696420546f6b656e21000000000000000000000000000081525060200191505060405180910390fd5b60046000838152602001908152602001600020549050919050565b60006124a58261391a565b612517576040517f08c379a00000000000000000000000000000000000000000000000000000000081526004018080602001828103825260128152602001807f4e6f7420612076616c696420546f6b656e21000000000000000000000000000081525060200191505060405180910390fd5b60036000838152602001908152602001600020549050919050565b6006600084815260200190815260200160002060009054906101000a900473ffffffffffffffffffffffffffffffffffffffff1673ffffffffffffffffffffffffffffffffffffffff163373ffffffffffffffffffffffffffffffffffffffff16148061262c575060011515600160008773ffffffffffffffffffffffffffffffffffffffff1673ffffffffffffffffffffffffffffffffffffffff16815260200190815260200160002060003373ffffffffffffffffffffffffffffffffffffffff1673ffffffffffffffffffffffffffffffffffffffff16815260200190815260200160002060009054906101000a900460ff161515145b8061269557506006600084815260200190815260200160002060009054906101000a900473ffffffffffffffffffffffffffffffffffffffff1673ffffffffffffffffffffffffffffffffffffffff163373ffffffffffffffffffffffffffffffffffffffff16145b612707576040517f08c379a00000000000000000000000000000000000000000000000000000000081526004018080602001828103825260168152602001807f53656e646572206e6f7420617574686f72697a6564210000000000000000000081525060200191505060405180910390fd5b6006600084815260200190815260200160002060009054906101000a900473ffffffffffffffffffffffffffffffffffffffff1673ffffffffffffffffffffffffffffffffffffffff168573ffffffffffffffffffffffffffffffffffffffff16146127db576040517f08c379a000000000000000000000000000000000000000000000000000000000815260040180806020018281038252600e8152602001807f4e6f7420746865204f776e65722100000000000000000000000000000000000081525060200191505060405180910390fd5b600073ffffffffffffffffffffffffffffffffffffffff168473ffffffffffffffffffffffffffffffffffffffff161480156128435750600073ffffffffffffffffffffffffffffffffffffffff168573ffffffffffffffffffffffffffffffffffffffff16145b6128b5576040517f08c379a00000000000000000000000000000000000000000000000000000000081526004018080602001828103825260208152602001807f43616e6e6f74207472616e7366657220746f205a65726f20416464726573732181525060200191505060405180910390fd5b60005483111580156128c75750600083115b612939576040517f08c379a000000000000000000000000000000000000000000000000000000000815260040180806020018281038252600f8152602001807f4e6f7420612076616c6964204e4654000000000000000000000000000000000081525060200191505060405180910390fd5b612944858585613945565b6000807fc5d2460186f7233c927e7db2dcc703c0e500b653ca82273b7bfad8045d85a47060001b9050853f91506000801b82141580156129845750808214155b15612b285760008673ffffffffffffffffffffffffffffffffffffffff1663150b7a02338a8989896040518663ffffffff1660e01b8152600401808673ffffffffffffffffffffffffffffffffffffffff1681526020018573ffffffffffffffffffffffffffffffffffffffff168152602001848152602001806020018281038252848482818152602001925080828437600081840152601f19601f8201169050808301925050509650505050505050602060405180830381600087803b158015612a4e57600080fd5b505af1158015612a62573d6000803e3d6000fd5b505050506040513d6020811015612a7857600080fd5b8101908080519060200190929190505050905063150b7a0260e01b817bffffffffffffffffffffffffffffffffffffffffffffffffffffffff191614612b26576040517f08c379a00000000000000000000000000000000000000000000000000000000081526004018080602001828103825260138152602001807f43616e206e6f742072656365697665204e46540000000000000000000000000081525060200191505060405180910390fd5b505b848673ffffffffffffffffffffffffffffffffffffffff168873ffffffffffffffffffffffffffffffffffffffff167fddf252ad1be2c89b69c2b068fc378daa952ba7f163c4a11628f55a4df523b3ef60405160405180910390a450505050505050565b6000612b978261391a565b612ba057600080fd5b600c600083815260200190815260200160002060009054906101000a900460ff16612bca57600080fd5b600e6000838152602001908152602001600020549050919050565b600082841415612c5d576040517f08c379a000000000000000000000000000000000000000000000000000000000815260040180806020018281038252601c8152602001807f4e6565642074776f20696e646976696475616c20506172656e7473210000000081525060200191505060405180910390fd5b3373ffffffffffffffffffffffffffffffffffffffff166006600086815260200190815260200160002060009054906101000a900473ffffffffffffffffffffffffffffffffffffffff1673ffffffffffffffffffffffffffffffffffffffff161480612d8a575060011515600160006006600088815260200190815260200160002060009054906101000a900473ffffffffffffffffffffffffffffffffffffffff1673ffffffffffffffffffffffffffffffffffffffff1673ffffffffffffffffffffffffffffffffffffffff16815260200190815260200160002060003373ffffffffffffffffffffffffffffffffffffffff1673ffffffffffffffffffffffffffffffffffffffff16815260200190815260200160002060009054906101000a900460ff161515145b612ddf576040517f08c379a000000000000000000000000000000000000000000000000000000000815260040180806020018281038252603d81526020018061420e603d913960400191505060405180910390fd5b3373ffffffffffffffffffffffffffffffffffffffff166006600085815260200190815260200160002060009054906101000a900473ffffffffffffffffffffffffffffffffffffffff1673ffffffffffffffffffffffffffffffffffffffff161480612f0c575060011515600160006006600087815260200190815260200160002060009054906101000a900473ffffffffffffffffffffffffffffffffffffffff1673ffffffffffffffffffffffffffffffffffffffff1673ffffffffffffffffffffffffffffffffffffffff16815260200190815260200160002060003373ffffffffffffffffffffffffffffffffffffffff1673ffffffffffffffffffffffffffffffffffffffff16815260200190815260200160002060009054906101000a900460ff161515145b612f61576040517f08c379a000000000000000000000000000000000000000000000000000000000815260040180806020018281038252603e815260200180614181603e913960400191505060405180910390fd5b600043604051602001808281526020019150506040516020818303038152906040528051906020012060001c905060008160026000878152602001908152602001600020546002600089815260200190815260200160002054181660026000888152602001908152602001600020547fffffffffffffffffffffffffffffffffffffffffffffffffffffffffffffffff6002600089815260200190815260200160002054600260008b81526020019081526020016000205418181617905060606040518060600160405280602e8152602001614153602e913990506130bc828888883386886040516020018083805190602001908083835b6020831061307c5780518252602082019150602081019050602083039250613059565b6001836020036101000a03801982511681845116808217855250505050505090500182815260200192505050604051602081830303815290604052613ea9565b60005493505050509392505050565b60606130d68261391a565b613148576040517f08c379a000000000000000000000000000000000000000000000000000000000815260040180806020018281038252600f8152602001807f4e6f7420612076616c6964204e4654000000000000000000000000000000000081525060200191505060405180910390fd5b600860008381526020019081526020016000208054600181600116156101000203166002900480601f0160208091040260200160405190810160405280929190818152602001828054600181600116156101000203166002900480156131ef5780601f106131c4576101008083540402835291602001916131ef565b820191906000526020600020905b8154815290600101906020018083116131d257829003601f168201915b50505050509050919050565b6132048261391a565b61320d57600080fd5b60006006600084815260200190815260200160002060009054906101000a900473ffffffffffffffffffffffffffffffffffffffff1690503373ffffffffffffffffffffffffffffffffffffffff168173ffffffffffffffffffffffffffffffffffffffff1614806133055750600160008273ffffffffffffffffffffffffffffffffffffffff1673ffffffffffffffffffffffffffffffffffffffff16815260200190815260200160002060003373ffffffffffffffffffffffffffffffffffffffff1673ffffffffffffffffffffffffffffffffffffffff16815260200190815260200160002060009054906101000a900460ff165b61330e57600080fd5b600c600084815260200190815260200160002060009054906101000a900460ff16156133515781600e6000858152602001908152602001600020819055506133df565b6001600c600085815260200190815260200160002060006101000a81548160ff021916908315150217905550600d83908060018154018082558091505060019003906000526020600020016000909190919091505581600e6000858152602001908152602001600020819055506001600d8054905003600f6000858152602001908152602001600020819055505b505050565b600033905060003490508173ffffffffffffffffffffffffffffffffffffffff166006600085815260200190815260200160002060009054906101000a900473ffffffffffffffffffffffffffffffffffffffff1673ffffffffffffffffffffffffffffffffffffffff1614156134c3576040517f08c379a000000000000000000000000000000000000000000000000000000000815260040180806020018281038252601b8152602001807f42757965722063616e206e6f74206265207468652073656c6c6572000000000081525060200191505060405180910390fd5b6134cc8361391a565b61353e576040517f08c379a000000000000000000000000000000000000000000000000000000000815260040180806020018281038252600f8152602001807f4e6f7420612076616c6964204e4654000000000000000000000000000000000081525060200191505060405180910390fd5b600c600084815260200190815260200160002060009054906101000a900460ff166135d1576040517f08c379a00000000000000000000000000000000000000000000000000000000081526004018080602001828103825260128152602001807f4e4654206973206e6f74206f6e2053616c65000000000000000000000000000081525060200191505060405180910390fd5b600e60008481526020019081526020016000205481101561365a576040517f08c379a00000000000000000000000000000000000000000000000000000000081526004018080602001828103825260108152602001807f507269636520697320746f6f206c6f770000000000000000000000000000000081525060200191505060405180910390fd5b60008273ffffffffffffffffffffffffffffffffffffffff166108fc349081150290604051600060405180830381858888f19350505050905080613706576040517f08c379a00000000000000000000000000000000000000000000000000000000081526004018080602001828103825260148152602001807f4661696c656420746f2073656e6420457468657200000000000000000000000081525060200191505060405180910390fd5b6137446006600086815260200190815260200160002060009054906101000a900473ffffffffffffffffffffffffffffffffffffffff168486613945565b600f600085815260200190815260200160002054600f60006001600d8054905003815260200190815260200160002081905550600d6001600d80549050038154811061378c57fe5b9060005260206000200154600d600f600087815260200190815260200160002054815481106137b757fe5b90600052602060002001819055506000600c600086815260200190815260200160002060006101000a81548160ff021916908315150217905550600d8054806137fc57fe5b6001900381819060005260206000200160009055905550505050565b60006138238261391a565b61382c57600080fd5b600c600083815260200190815260200160002060009054906101000a900460ff169050919050565b6000600160008473ffffffffffffffffffffffffffffffffffffffff1673ffffffffffffffffffffffffffffffffffffffff16815260200190815260200160002060008373ffffffffffffffffffffffffffffffffffffffff1673ffffffffffffffffffffffffffffffffffffffff16815260200190815260200160002060009054906101000a900460ff16905092915050565b6000600d8054905082106138fb57600080fd5b600d828154811061390857fe5b90600052602060002001549050919050565b6000808211801561392d57506000548211155b1561393b5760019050613940565b600090505b919050565b600073ffffffffffffffffffffffffffffffffffffffff168273ffffffffffffffffffffffffffffffffffffffff16141580156139af5750600073ffffffffffffffffffffffffffffffffffffffff168373ffffffffffffffffffffffffffffffffffffffff1614155b613a21576040517f08c379a00000000000000000000000000000000000000000000000000000000081526004018080602001828103825260208152602001807f43616e6e6f74207472616e7366657220746f205a65726f20416464726573732181525060200191505060405180910390fd5b816006600083815260200190815260200160002060006101000a81548173ffffffffffffffffffffffffffffffffffffffff021916908373ffffffffffffffffffffffffffffffffffffffff16021790555060006007600083815260200190815260200160002060006101000a81548173ffffffffffffffffffffffffffffffffffffffff021916908373ffffffffffffffffffffffffffffffffffffffff160217905550600960008373ffffffffffffffffffffffffffffffffffffffff1673ffffffffffffffffffffffffffffffffffffffff1681526020019081526020016000208190806001815401808255809150506001900390600052602060002001600090919091909150556001600960008473ffffffffffffffffffffffffffffffffffffffff1673ffffffffffffffffffffffffffffffffffffffff1681526020019081526020016000208054905003600a60008473ffffffffffffffffffffffffffffffffffffffff1673ffffffffffffffffffffffffffffffffffffffff168152602001908152602001600020600083815260200190815260200160002081905550600960008473ffffffffffffffffffffffffffffffffffffffff1673ffffffffffffffffffffffffffffffffffffffff1681526020019081526020016000206001600960008673ffffffffffffffffffffffffffffffffffffffff1673ffffffffffffffffffffffffffffffffffffffff168152602001908152602001600020805490500381548110613c5557fe5b9060005260206000200154600960008573ffffffffffffffffffffffffffffffffffffffff1673ffffffffffffffffffffffffffffffffffffffff168152602001908152602001600020600a60008673ffffffffffffffffffffffffffffffffffffffff1673ffffffffffffffffffffffffffffffffffffffff16815260200190815260200160002060008481526020019081526020016000205481548110613cfa57fe5b9060005260206000200181905550600a60008473ffffffffffffffffffffffffffffffffffffffff1673ffffffffffffffffffffffffffffffffffffffff168152602001908152602001600020600082815260200190815260200160002054600a60008573ffffffffffffffffffffffffffffffffffffffff1673ffffffffffffffffffffffffffffffffffffffff1681526020019081526020016000206000600960008773ffffffffffffffffffffffffffffffffffffffff1673ffffffffffffffffffffffffffffffffffffffff1681526020019081526020016000206001600960008973ffffffffffffffffffffffffffffffffffffffff1673ffffffffffffffffffffffffffffffffffffffff168152602001908152602001600020805490500381548110613e2957fe5b9060005260206000200154815260200190815260200160002081905550600960008473ffffffffffffffffffffffffffffffffffffffff1673ffffffffffffffffffffffffffffffffffffffff168152602001908152602001600020805480613e8e57fe5b60019003818190600052602060002001600090559055505050565b60008081548092919060010191905055508460036000805481526020019081526020016000208190555083600460008054815260200190815260200160002081905550856002600080548152602001908152602001600020819055508260056000805481526020019081526020016000209080519060200190613f2d9291906140b5565b5081600660008054815260200190815260200160002060006101000a81548173ffffffffffffffffffffffffffffffffffffffff021916908373ffffffffffffffffffffffffffffffffffffffff1602179055508060086000805481526020019081526020016000209080519060200190613fa99291906140b5565b50600960008373ffffffffffffffffffffffffffffffffffffffff1673ffffffffffffffffffffffffffffffffffffffff16815260200190815260200160002060005490806001815401808255809150506001900390600052602060002001600090919091909150556001600960008473ffffffffffffffffffffffffffffffffffffffff1673ffffffffffffffffffffffffffffffffffffffff1681526020019081526020016000208054905003600a60008473ffffffffffffffffffffffffffffffffffffffff1673ffffffffffffffffffffffffffffffffffffffff16815260200190815260200160002060008054815260200190815260200160002081905550505050505050565b828054600181600116156101000203166002900490600052602060002090601f016020900481019282601f106140f657805160ff1916838001178555614124565b82800160010185558215614124579182015b82811115614123578251825591602001919060010190614108565b5b5090506141319190614135565b5090565b5b8082111561414e576000816000905550600101614136565b509056fe68747470733a2f2f616e6d6c732d746573742e746563686e6f6c6f67792f6170692f76312f6d657461646174612f4e6f7420746865206f776e65722c206e6f7220746865206f70657261746f72206f6620746865206f776e6572206f66207365636f6e6420506172656e74214164647265737320646f6573206e6f74206f776e2074686174206d616e7920546f6b656e734e65697468657220746865206f776e65722c206e6f72206120617070726f766564204f70657261746f724e6f7420746865206f776e65722c206e6f7220746865206f70657261746f72206f6620746865206f776e6572206f6620666972737420506172656e7421a2646970667358221220106885f8a16b791d1a5514f68815baba5ca74bc08040ac202e32d028c9dd93de64736f6c63430007000033",
  "immutableReferences": {},
  "source": "// https://eips.ethereum.org/EIPS/eip-721, http://erc721.org/\n// SPDX-License-Identifier: MIT\npragma solidity >=0.5.0 <0.9.0;\n\nimport \"./Interfaces.sol\";\n\ncontract Base is ERC721, ERC165, ERC721Metadata, ERC721Enumerable {\n    uint256 private _tokenIds = 0;\n    mapping(address => mapping(address => bool)) private _operator;\n\n    mapping(uint256 => uint256) private _genes;\n    mapping(uint256 => uint256) private _parent1;\n    mapping(uint256 => uint256) private _parent2;\n    mapping(uint256 => string) private _name;\n    mapping(uint256 => address) private _owner;\n    mapping(uint256 => address) private _approvedAddress;\n    mapping(uint256 => string) private _uri;\n    mapping(address => uint256[]) private _enumOwner;\n    mapping(address => mapping(uint256 => uint256)) private _enumOwnerIndex;\n    mapping(bytes4 => bool) private _supportedInterfaces;\n\n    mapping(uint256 => bool) private _buyable;\n    uint256[] _forSale;\n    mapping(uint256 => uint256) private _price;\n    mapping(uint256 => uint256) private _indexOfBuyable;\n\n    /// @notice Constructor creates Parents with specified Genes\n    /// @param GenesParent1 Specify Genes of first Parent\n    /// @param GenesParent2 Specify Genes of second Parent\n    constructor(\n        uint256 GenesParent1,\n        string memory uri1,\n        uint256 GenesParent2,\n        string memory uri2\n    ) {\n        _addAnimal(GenesParent1, 0, 0, \"Eve\", msg.sender, uri1);\n        _addAnimal(GenesParent2, 0, 0, \"Adam\", msg.sender, uri2);\n        _supportedInterfaces[0x80ac58cd] = true;\n        _supportedInterfaces[0x01ffc9a7] = true;\n        _supportedInterfaces[0x5b5e139f] = true;\n        _supportedInterfaces[0x780e9d63] = true;\n    }\n\n    function _addAnimal(\n        uint256 Genes,\n        uint256 Parent1,\n        uint256 Parent2,\n        string memory Name,\n        address firstOwner,\n        string memory uri\n    ) private {\n        _tokenIds++;\n        _parent1[_tokenIds] = Parent1;\n        _parent2[_tokenIds] = Parent2;\n        _genes[_tokenIds] = Genes;\n        _name[_tokenIds] = Name;\n        _owner[_tokenIds] = firstOwner;\n        _uri[_tokenIds] = uri;\n        _enumOwner[firstOwner].push(_tokenIds);\n        _enumOwnerIndex[firstOwner][_tokenIds] =\n            _enumOwner[firstOwner].length -\n            1;\n    }\n\n    function _transfer(\n        address _from,\n        address _to,\n        uint256 _tokenId\n    ) private {\n        require(\n            _to != address(0) && _from != address(0),\n            \"Cannot transfer to Zero Address!\"\n        );\n        _owner[_tokenId] = _to;\n        _approvedAddress[_tokenId] = address(0);\n        _enumOwner[_to].push(_tokenId);\n        _enumOwnerIndex[_to][_tokenId] = _enumOwner[_to].length - 1;\n\n        _enumOwner[_from][_enumOwnerIndex[_from][_tokenId]] = _enumOwner[_from][\n            _enumOwner[_from].length - 1\n        ];\n\n        _enumOwnerIndex[_from][\n            _enumOwner[_from][_enumOwner[_from].length - 1]\n        ] = _enumOwnerIndex[_from][_tokenId];\n\n        _enumOwner[_from].pop();\n    }\n\n    // ----------------------- Begin Breading Functionality ------------------------------\n\n    /// @notice Bread Child from two Parents\n    /// @param Parent1 First Parent used for Breading\n    /// @param Parent2 Second Parent used for Breading\n    /// @return tokenId of Child\n    function breed(\n        uint256 Parent1,\n        uint256 Parent2,\n        string memory childName\n    ) public returns (uint256) {\n        require(Parent1 != Parent2, \"Need two individual Parents!\");\n        require(\n            _owner[Parent1] == msg.sender ||\n                _operator[_owner[Parent1]][msg.sender] == true,\n            \"Not the owner, nor the operator of the owner of first Parent!\"\n        );\n        require(\n            _owner[Parent2] == msg.sender ||\n                _operator[_owner[Parent2]][msg.sender] == true,\n            \"Not the owner, nor the operator of the owner of second Parent!\"\n        );\n\n        uint256 seed = uint256(keccak256(abi.encodePacked(block.number)));\n        uint256 childGene = (((_genes[Parent1] ^ _genes[Parent2]) ^\n            0xffffffffffffffffffffffffffffffffffffffffffffffffffffffffffffffff) &\n            _genes[Parent1]) | ((_genes[Parent1] ^ _genes[Parent2]) & seed);\n\n        string memory base = \"https://anmls-test.technology/api/v1/metadata/\";\n        _addAnimal(childGene, Parent1, Parent2, childName, msg.sender, string(abi.encodePacked(base, childGene)));\n        return _tokenIds;\n    }\n\n    function _isValidToken(uint256 _tokenId) private view returns (bool) {\n        if (_tokenId > 0 && _tokenId <= _tokenIds) return true;\n        return false;\n    }\n\n    // ----------------------- End Breading Functionality ------------------------------\n\n    function nameOf(uint256 _tokenId) external view returns (string memory) {\n        require(_isValidToken(_tokenId), \"Not a valid Token!\");\n        return _name[_tokenId];\n    }\n\n    function parent1Of(uint256 _tokenId) external view returns (uint256) {\n        require(_isValidToken(_tokenId), \"Not a valid Token!\");\n        return _parent1[_tokenId];\n    }\n\n    function parent2Of(uint256 _tokenId) external view returns (uint256) {\n        require(_isValidToken(_tokenId), \"Not a valid Token!\");\n        return _parent2[_tokenId];\n    }\n\n    function genesOf(uint256 _tokenId) external view returns (uint256) {\n        require(_isValidToken(_tokenId), \"Not a valid Token!\");\n        return _genes[_tokenId];\n    }\n\n    function last() external view returns (uint256) {\n        return _tokenIds;\n    }\n\n    // ----------------------- Begin ERC721 Functions -------------------------------------\n\n    /// @notice Count all NFTs assigned to an owner\n    /// @dev NFTs assigned to the zero address are considered invalid, and this\n    ///  function throws for queries about the zero address.\n    /// @param _checkowner An address for whom to query the balance\n    /// @return The number of NFTs owned by `_owner`, possibly zero\n    function balanceOf(address _checkowner)\n        external\n        view\n        override\n        returns (uint256)\n    {\n        return _enumOwner[_checkowner].length;\n    }\n\n    /// @notice Find the owner of an NFT\n    /// @dev NFTs assigned to zero address are considered invalid, and queries\n    ///  about them do throw.\n    /// @param _tokenId The identifier for an NFT\n    /// @return The address of the owner of the NFT\n    function ownerOf(uint256 _tokenId)\n        external\n        view\n        override\n        returns (address)\n    {\n        return _owner[_tokenId];\n    }\n\n    /// @notice Transfers the ownership of an NFT from one address to another address\n    /// @dev Throws unless `msg.sender` is the current owner, an authorized\n    ///  operator, or the approved address for this NFT. Throws if `_from` is\n    ///  not the current owner. Throws if `_to` is the zero address. Throws if\n    ///  `_tokenId` is not a valid NFT. When transfer is complete, this function\n    ///  checks if `_to` is a smart contract (code size > 0). If so, it calls\n    ///  `onERC721Received` on `_to` and throws if the return value is not\n    ///  `bytes4(keccak256(\"onERC721Received(address,address,uint256,bytes)\"))`.\n    /// @param _from The current owner of the NFT\n    /// @param _to The new owner\n    /// @param _tokenId The NFT to transfer\n    /// @param data Additional data with no specified format, sent in call to `_to`\n    function safeTransferFrom(\n        address _from,\n        address _to,\n        uint256 _tokenId,\n        bytes calldata data\n    ) external override {\n        require(\n            msg.sender == _owner[_tokenId] ||\n                _operator[_from][msg.sender] == true ||\n                msg.sender == _owner[_tokenId],\n            \"Sender not authorized!\"\n        );\n        require(_from == _owner[_tokenId], \"Not the Owner!\");\n        require(\n            _to == address(0) && _from == address(0),\n            \"Cannot transfer to Zero Address!\"\n        );\n        require(_tokenId <= _tokenIds && _tokenId > 0, \"Not a valid NFT\");\n\n        _transfer(_from, _to, _tokenId);\n\n        // Check for _to being a smart contract\n        bytes32 codehash;\n        bytes32 accountHash = 0xc5d2460186f7233c927e7db2dcc703c0e500b653ca82273b7bfad8045d85a470;\n        assembly {\n            codehash := extcodehash(_to)\n        } // solhint-disable-line\n        if (codehash != 0x0 && codehash != accountHash) {\n            bytes4 retval = ERC721TokenReceiver(_to).onERC721Received(\n                msg.sender,\n                _from,\n                _tokenId,\n                data\n            );\n            require(retval == 0x150b7a02, \"Can not receive NFT\");\n        }\n\n        emit Transfer(_from, _to, _tokenId);\n    }\n\n    /// @notice Transfers the ownership of an NFT from one address to another address\n    /// @dev This works identically to the other function with an extra data parameter,\n    ///  except this function just sets data to \"\".\n    /// @param _from The current owner of the NFT\n    /// @param _to The new owner\n    /// @param _tokenId The NFT to transfer\n    function safeTransferFrom(\n        address _from,\n        address _to,\n        uint256 _tokenId\n    ) external override {\n        require(\n            msg.sender == _owner[_tokenId] ||\n                _operator[_from][msg.sender] == true ||\n                msg.sender == _owner[_tokenId],\n            \"Sender not authorized!\"\n        );\n        require(_from == _owner[_tokenId], \"Not the Owner!\");\n        require(\n            _to != address(0) && _from != address(0),\n            \"Cannot transfer to Zero Address!\"\n        );\n        require(_tokenId <= _tokenIds && _tokenId > 0, \"Not a valid NFT\");\n\n        _transfer(_from, _to, _tokenId);\n\n        // Check for _to being a smart contract\n        bytes32 codehash;\n        bytes32 accountHash = 0xc5d2460186f7233c927e7db2dcc703c0e500b653ca82273b7bfad8045d85a470;\n        assembly {\n            codehash := extcodehash(_to)\n        } // solhint-disable-line\n        if (codehash != 0x0 && codehash != accountHash) {\n            bytes4 retval = ERC721TokenReceiver(_to).onERC721Received(\n                msg.sender,\n                _from,\n                _tokenId,\n                \"\"\n            );\n            require(retval == 0x150b7a02, \"Can not receive NFT\");\n        }\n        emit Transfer(_from, _to, _tokenId);\n    }\n\n    /// @notice Transfer ownership of an NFT -- THE CALLER IS RESPONSIBLE\n    ///  TO CONFIRM THAT `_to` IS CAPABLE OF RECEIVING NFTS OR ELSE\n    ///  THEY MAY BE PERMANENTLY LOST\n    /// @dev Throws unless `msg.sender` is the current owner, an authorized\n    ///  operator, or the approved address for this NFT. Throws if `_from` is\n    ///  not the current owner. Throws if `_to` is the zero address. Throws if\n    ///  `_tokenId` is not a valid NFT.\n    /// @param _from The current owner of the NFT\n    /// @param _to The new owner\n    /// @param _tokenId The NFT to transfer\n    function transferFrom(\n        address _from,\n        address _to,\n        uint256 _tokenId\n    ) external override {\n        require(_owner[_tokenId] == _from, \"You are not the owner!\");\n        require(\n            _owner[_tokenId] == msg.sender ||\n                _approvedAddress[_tokenId] == msg.sender,\n            \"You are not the owner!\"\n        );\n        require(\n            _to != address(0) && _from != address(0),\n            \"Cannot send to zero address\"\n        );\n        require(_tokenId <= _tokenIds && _tokenId > 0, \"Not a valid NFT\");\n\n        _transfer(_from, _to, _tokenId);\n        emit Transfer(_from, _to, _tokenId);\n    }\n\n    /// @notice Change or reaffirm the approved address for an NFT\n    /// @dev The zero address indicates there is no approved address.\n    ///  Throws unless `msg.sender` is the current NFT owner, or an authorized\n    ///  operator of the current owner.\n    /// @param _approved The new approved NFT controller\n    /// @param _tokenId The NFT to approve\n    function approve(address _approved, uint256 _tokenId) external override {\n        require(\n            _owner[_tokenId] == msg.sender ||\n                _operator[_owner[_tokenId]][msg.sender],\n            \"Neither the owner, nor a approved Operator\"\n        );\n        _approvedAddress[_tokenId] = _approved;\n        emit Approval(_owner[_tokenId], _approved, _tokenId);\n    }\n\n    /// @notice Enable or disable approval for a third party (\"operator\") to manage\n    ///  all of `msg.sender`'s assets\n    /// @dev Emits the ApprovalForAll event. The contract MUST allow\n    ///  multiple operators per owner.\n    /// @param _newoperator Address to add to the set of authorized operators\n    /// @param _approved True if the operator is approved, false to revoke approval\n    function setApprovalForAll(address _newoperator, bool _approved)\n        external\n        override\n    {\n        _operator[msg.sender][_newoperator] = _approved;\n        emit ApprovalForAll(msg.sender, _newoperator, _approved);\n    }\n\n    /// @notice Get the approved address for a single NFT\n    /// @dev Throws if `_tokenId` is not a valid NFT.\n    /// @param _tokenId The NFT to find the approved address for\n    /// @return The approved address for this NFT, or the zero address if there is none\n    function getApproved(uint256 _tokenId)\n        external\n        view\n        override\n        returns (address)\n    {\n        require(_isValidToken(_tokenId), \"Not a valid NFT!\");\n        return _approvedAddress[_tokenId];\n    }\n\n    /// @notice Query if an address is an authorized operator for another address\n    /// @param _checkowner The address that owns the NFTs\n    /// @param _checkoperator The address that acts on behalf of the owner\n    /// @return True if `_operator` is an approved operator for `_owner`, false otherwise\n    function isApprovedForAll(address _checkowner, address _checkoperator)\n        external\n        view\n        override\n        returns (bool)\n    {\n        return _operator[_checkowner][_checkoperator];\n    }\n\n    // ----------------------- End ERC721 Functions -------------------------------------\n\n    // ----------------------- Begin ERC721Metadata Functions -------------------------------------\n\n    /// @notice A descriptive name for a collection of NFTs in this contract\n    function name() external pure override returns (string memory _retname) {\n        return \"Animals\";\n    }\n\n    /// @notice An abbreviated name for NFTs in this contract\n    function symbol()\n        external\n        pure\n        override\n        returns (string memory _retsymbol)\n    {\n        return \"ANMLS\";\n    }\n\n    /// @notice A distinct Uniform Resource Identifier (URI) for a given asset.\n    /// @dev Throws if `_tokenId` is not a valid NFT. URIs are defined in RFC\n    ///  3986. The URI may point to a JSON file that conforms to the \"ERC721\n    ///  Metadata JSON Schema\".\n    function tokenURI(uint256 _tokenId)\n        external\n        view\n        override\n        returns (string memory)\n    {\n        require(_isValidToken(_tokenId), \"Not a valid NFT\");\n        return _uri[_tokenId];\n    }\n\n    // Additional: Set URI\n    function setTokenUri(uint256 _tokenId, string memory newuri) external {\n        require(_isValidToken(_tokenId), \"Not a valid NFT\");\n        require(\n            _owner[_tokenId] == msg.sender ||\n                _operator[_owner[_tokenId]][msg.sender],\n            \"Neither the owner, nor a approved Operator\"\n        );\n        _uri[_tokenId] = newuri;\n    }\n\n    // ----------------------- End ERC721Metadata Functions -------------------------------------\n\n    // ----------------------- Begin ERC165 Functions -------------------------------------\n\n    /// @notice Query if a contract implements an interface\n    /// @param interfaceID The interface identifier, as specified in ERC-165\n    /// @dev Interface identification is specified in ERC-165. This function\n    ///  uses less than 30,000 gas.\n    /// @return `true` if the contract implements `interfaceID` and\n    ///  `interfaceID` is not 0xffffffff, `false` otherwise\n    function supportsInterface(bytes4 interfaceID)\n        external\n        view\n        override\n        returns (bool)\n    {\n        return _supportedInterfaces[interfaceID];\n    }\n\n    // ----------------------- End ERC165 Functions -------------------------------------\n    // ----------------------- Begin ERC721Enumerable Functions -------------------------\n\n    /// @notice Count NFTs tracked by this contract\n    /// @return A count of valid NFTs tracked by this contract, where each one of\n    ///  them has an assigned and queryable owner not equal to the zero address\n    function totalSupply() external view override returns (uint256) {\n        return _tokenIds;\n    }\n\n    /// @notice Enumerate valid NFTs\n    /// @dev Throws if `_index` >= `totalSupply()`.\n    /// @param _index A counter less than `totalSupply()`\n    /// @return The token identifier for the `_index`th NFT,\n    ///  (sort order not specified)\n    function tokenByIndex(uint256 _index)\n        external\n        view\n        override\n        returns (uint256)\n    {\n        require(_index < _tokenIds, \"Index is too high\");\n        return _index + 1;\n    }\n\n    /// @notice Enumerate NFTs assigned to an owner\n    /// @dev Throws if `_index` >= `balanceOf(_owner)` or if\n    ///  `_owner` is the zero address, representing invalid NFTs.\n    /// @param _checkowner An address where we are interested in NFTs owned by them\n    /// @param _index A counter less than `balanceOf(_owner)`\n    /// @return The token identifier for the `_index`th NFT assigned to `_owner`,\n    ///   (sort order not specified)\n    function tokenOfOwnerByIndex(address _checkowner, uint256 _index)\n        external\n        view\n        override\n        returns (uint256)\n    {\n        require(\n            _enumOwner[_checkowner].length > _index,\n            \"Address does not own that many Tokens\"\n        );\n        require(_checkowner != address(0), \"Given Address is zero\");\n        return _enumOwner[_checkowner][_index];\n    }\n\n    // ----------------------- End ERC721Enumerable Functions ---------------------------\n\n    // ----------------------- Begin Marketplace Functions ------------------------------\n\n    function sell(uint256 _tokenId, uint256 price) external {\n        require(_isValidToken(_tokenId));\n        address owner = _owner[_tokenId];\n\n        require(owner == msg.sender || _operator[owner][msg.sender]);\n        if (_buyable[_tokenId]) {\n            _price[_tokenId] = price;\n        } else {\n            _buyable[_tokenId] = true;\n\n            _forSale.push(_tokenId);\n            _price[_tokenId] = price;\n            _indexOfBuyable[_tokenId] = _forSale.length - 1;\n        }\n    }\n\n    function buy(uint256 _tokenId) external payable {\n        address payable buyer = payable(msg.sender);\n        uint256 payedPrice = msg.value;\n\n        require(_owner[_tokenId] != buyer, \"Buyer can not be the seller\");\n        require(_isValidToken(_tokenId), \"Not a valid NFT\");\n        require(_buyable[_tokenId], \"NFT is not on Sale\");\n        require(payedPrice >= _price[_tokenId], \"Price is too low\");\n\n        // pay the seller\n        // remove token from tokensForSale\n        bool sent = buyer.send(msg.value);\n        require(sent, \"Failed to send Ether\");\n        _transfer(_owner[_tokenId], buyer, _tokenId);\n\n        _indexOfBuyable[_forSale.length - 1] = _indexOfBuyable[_tokenId];\n        _forSale[_indexOfBuyable[_tokenId]] = _forSale[_forSale.length - 1];\n\n        _buyable[_tokenId] = false;\n        _forSale.pop();\n    }\n\n    function buyableByIndex(uint256 index) external view returns (uint256) {\n        require(index < _forSale.length);\n        return _forSale[index];\n    }\n\n    function buyableNumber() external view returns (uint256) {\n        return _forSale.length;\n    }\n\n    function priceOf(uint256 _tokenId) external view returns (uint256) {\n        require(_isValidToken(_tokenId));\n        require(_buyable[_tokenId]);\n        return _price[_tokenId];\n    }\n\n    function isBuyable(uint256 _tokenId) external view returns (bool) {\n        require(_isValidToken(_tokenId));\n        return _buyable[_tokenId];\n    }\n\n    // ----------------------- End Marketplace Functions   ------------------------------\n}\n",
  "sourcePath": "C:\\wetzel\\local\\anmls\\contracts\\Base.sol",
  "compiler": {
    "name": "solc",
    "version": "0.7.0+commit.9e61f92b.Emscripten.clang"
  },
  "schemaVersion": "3.4.3",
  "updatedAt": "2021-10-19T14:03:12.735Z",
  "networkType": "ethereum",
  "devdoc": {
    "kind": "dev",
    "methods": {
      "approve(address,uint256)": {
        "details": "The zero address indicates there is no approved address.  Throws unless `msg.sender` is the current NFT owner, or an authorized  operator of the current owner.",
        "params": {
          "_approved": "The new approved NFT controller",
          "_tokenId": "The NFT to approve"
        }
      },
      "balanceOf(address)": {
        "details": "NFTs assigned to the zero address are considered invalid, and this  function throws for queries about the zero address.",
        "params": {
          "_checkowner": "An address for whom to query the balance"
        },
        "returns": {
          "_0": "The number of NFTs owned by `_owner`, possibly zero"
        }
      },
      "breed(uint256,uint256,string)": {
        "params": {
          "Parent1": "First Parent used for Breading",
          "Parent2": "Second Parent used for Breading"
        },
        "returns": {
          "_0": "tokenId of Child"
        }
      },
      "constructor": {
        "params": {
          "GenesParent1": "Specify Genes of first Parent",
          "GenesParent2": "Specify Genes of second Parent"
        }
      },
      "getApproved(uint256)": {
        "details": "Throws if `_tokenId` is not a valid NFT.",
        "params": {
          "_tokenId": "The NFT to find the approved address for"
        },
        "returns": {
          "_0": "The approved address for this NFT, or the zero address if there is none"
        }
      },
      "isApprovedForAll(address,address)": {
        "params": {
          "_checkoperator": "The address that acts on behalf of the owner",
          "_checkowner": "The address that owns the NFTs"
        },
        "returns": {
          "_0": "True if `_operator` is an approved operator for `_owner`, false otherwise"
        }
      },
      "ownerOf(uint256)": {
        "details": "NFTs assigned to zero address are considered invalid, and queries  about them do throw.",
        "params": {
          "_tokenId": "The identifier for an NFT"
        },
        "returns": {
          "_0": "The address of the owner of the NFT"
        }
      },
      "safeTransferFrom(address,address,uint256)": {
        "details": "This works identically to the other function with an extra data parameter,  except this function just sets data to \"\".",
        "params": {
          "_from": "The current owner of the NFT",
          "_to": "The new owner",
          "_tokenId": "The NFT to transfer"
        }
      },
      "safeTransferFrom(address,address,uint256,bytes)": {
        "details": "Throws unless `msg.sender` is the current owner, an authorized  operator, or the approved address for this NFT. Throws if `_from` is  not the current owner. Throws if `_to` is the zero address. Throws if  `_tokenId` is not a valid NFT. When transfer is complete, this function  checks if `_to` is a smart contract (code size > 0). If so, it calls  `onERC721Received` on `_to` and throws if the return value is not  `bytes4(keccak256(\"onERC721Received(address,address,uint256,bytes)\"))`.",
        "params": {
          "_from": "The current owner of the NFT",
          "_to": "The new owner",
          "_tokenId": "The NFT to transfer",
          "data": "Additional data with no specified format, sent in call to `_to`"
        }
      },
      "setApprovalForAll(address,bool)": {
        "details": "Emits the ApprovalForAll event. The contract MUST allow  multiple operators per owner.",
        "params": {
          "_approved": "True if the operator is approved, false to revoke approval",
          "_newoperator": "Address to add to the set of authorized operators"
        }
      },
      "supportsInterface(bytes4)": {
        "details": "Interface identification is specified in ERC-165. This function  uses less than 30,000 gas.",
        "params": {
          "interfaceID": "The interface identifier, as specified in ERC-165"
        },
        "returns": {
          "_0": "`true` if the contract implements `interfaceID` and  `interfaceID` is not 0xffffffff, `false` otherwise"
        }
      },
      "tokenByIndex(uint256)": {
        "details": "Throws if `_index` >= `totalSupply()`.",
        "params": {
          "_index": "A counter less than `totalSupply()`"
        },
        "returns": {
          "_0": "The token identifier for the `_index`th NFT,  (sort order not specified)"
        }
      },
      "tokenOfOwnerByIndex(address,uint256)": {
        "details": "Throws if `_index` >= `balanceOf(_owner)` or if  `_owner` is the zero address, representing invalid NFTs.",
        "params": {
          "_checkowner": "An address where we are interested in NFTs owned by them",
          "_index": "A counter less than `balanceOf(_owner)`"
        },
        "returns": {
          "_0": "The token identifier for the `_index`th NFT assigned to `_owner`,   (sort order not specified)"
        }
      },
      "tokenURI(uint256)": {
        "details": "Throws if `_tokenId` is not a valid NFT. URIs are defined in RFC  3986. The URI may point to a JSON file that conforms to the \"ERC721  Metadata JSON Schema\"."
      },
      "totalSupply()": {
        "returns": {
          "_0": "A count of valid NFTs tracked by this contract, where each one of  them has an assigned and queryable owner not equal to the zero address"
        }
      },
      "transferFrom(address,address,uint256)": {
        "details": "Throws unless `msg.sender` is the current owner, an authorized  operator, or the approved address for this NFT. Throws if `_from` is  not the current owner. Throws if `_to` is the zero address. Throws if  `_tokenId` is not a valid NFT.",
        "params": {
          "_from": "The current owner of the NFT",
          "_to": "The new owner",
          "_tokenId": "The NFT to transfer"
        }
      }
    },
    "version": 1
  },
  "userdoc": {
    "kind": "user",
    "methods": {
      "approve(address,uint256)": {
        "notice": "Change or reaffirm the approved address for an NFT"
      },
      "balanceOf(address)": {
        "notice": "Count all NFTs assigned to an owner"
      },
      "breed(uint256,uint256,string)": {
        "notice": "Bread Child from two Parents"
      },
      "constructor": {
        "notice": "Constructor creates Parents with specified Genes"
      },
      "getApproved(uint256)": {
        "notice": "Get the approved address for a single NFT"
      },
      "isApprovedForAll(address,address)": {
        "notice": "Query if an address is an authorized operator for another address"
      },
      "name()": {
        "notice": "A descriptive name for a collection of NFTs in this contract"
      },
      "ownerOf(uint256)": {
        "notice": "Find the owner of an NFT"
      },
      "safeTransferFrom(address,address,uint256)": {
        "notice": "Transfers the ownership of an NFT from one address to another address"
      },
      "safeTransferFrom(address,address,uint256,bytes)": {
        "notice": "Transfers the ownership of an NFT from one address to another address"
      },
      "setApprovalForAll(address,bool)": {
        "notice": "Enable or disable approval for a third party (\"operator\") to manage  all of `msg.sender`'s assets"
      },
      "supportsInterface(bytes4)": {
        "notice": "Query if a contract implements an interface"
      },
      "symbol()": {
        "notice": "An abbreviated name for NFTs in this contract"
      },
      "tokenByIndex(uint256)": {
        "notice": "Enumerate valid NFTs"
      },
      "tokenOfOwnerByIndex(address,uint256)": {
        "notice": "Enumerate NFTs assigned to an owner"
      },
      "tokenURI(uint256)": {
        "notice": "A distinct Uniform Resource Identifier (URI) for a given asset."
      },
      "totalSupply()": {
        "notice": "Count NFTs tracked by this contract"
      },
      "transferFrom(address,address,uint256)": {
        "notice": "Transfer ownership of an NFT -- THE CALLER IS RESPONSIBLE  TO CONFIRM THAT `_to` IS CAPABLE OF RECEIVING NFTS OR ELSE  THEY MAY BE PERMANENTLY LOST"
      }
    },
    "version": 1
  }
}